{
  "contracts/external/Multisend.sol": {
    "Multisend": {
      "abi": [
        {
          "inputs": [],
          "stateMutability": "nonpayable",
          "type": "constructor"
        },
        {
          "inputs": [
            {
              "internalType": "bytes",
              "name": "transactions",
              "type": "bytes"
            }
          ],
          "name": "multiSend",
          "outputs": [],
          "stateMutability": "nonpayable",
          "type": "function"
        }
      ],
      "evm": {
        "bytecode": {
          "linkReferences": {},
          "object": "608060405234801561001057600080fd5b50604080517f6d756c746973656e642e67756172642e6279746573333200000000000000000081529051908190036017019020600055610238806100556000396000f3fe608060405234801561001057600080fd5b506004361061002b5760003560e01c80638d80ff0a14610030575b600080fd5b6100d66004803603602081101561004657600080fd5b81019060208101813564010000000081111561006157600080fd5b82018360208201111561007357600080fd5b8035906020019184600183028401116401000000008311171561009557600080fd5b91908080601f0160208091040260200160405190810160405280939291908181526020018383808284376000920191909152509295506100d8945050505050565b005b604080517f6d756c746973656e642e67756172642e6279746573333200000000000000000081529051908190036017019020600054141561014a5760405162461bcd60e51b81526004018080602001828103825260308152602001806101d36030913960400191505060405180910390fd5b805160205b818110156101cd578083015160f81c6001820184015160601c60158301850151603584018601516055850187016000856000811461019457600181146101a4576101af565b6000808585888a5af191506101af565b6000808585895af491505b50806101ba57600080fd5b505080605501850194505050505061014f565b50505056fe4d756c746973656e642073686f756c64206f6e6c792062652063616c6c6564207669612064656c656761746563616c6ca26469706673582212202d062a32659bdc4ad009b526305b6daf7da0ccd97895cf533f2ac4de434aba7864736f6c634300060a0033",
          "opcodes": "PUSH1 0x80 PUSH1 0x40 MSTORE CALLVALUE DUP1 ISZERO PUSH2 0x10 JUMPI PUSH1 0x0 DUP1 REVERT JUMPDEST POP PUSH1 0x40 DUP1 MLOAD PUSH32 0x6D756C746973656E642E67756172642E62797465733332000000000000000000 DUP2 MSTORE SWAP1 MLOAD SWAP1 DUP2 SWAP1 SUB PUSH1 0x17 ADD SWAP1 KECCAK256 PUSH1 0x0 SSTORE PUSH2 0x238 DUP1 PUSH2 0x55 PUSH1 0x0 CODECOPY PUSH1 0x0 RETURN INVALID PUSH1 0x80 PUSH1 0x40 MSTORE CALLVALUE DUP1 ISZERO PUSH2 0x10 JUMPI PUSH1 0x0 DUP1 REVERT JUMPDEST POP PUSH1 0x4 CALLDATASIZE LT PUSH2 0x2B JUMPI PUSH1 0x0 CALLDATALOAD PUSH1 0xE0 SHR DUP1 PUSH4 0x8D80FF0A EQ PUSH2 0x30 JUMPI JUMPDEST PUSH1 0x0 DUP1 REVERT JUMPDEST PUSH2 0xD6 PUSH1 0x4 DUP1 CALLDATASIZE SUB PUSH1 0x20 DUP2 LT ISZERO PUSH2 0x46 JUMPI PUSH1 0x0 DUP1 REVERT JUMPDEST DUP2 ADD SWAP1 PUSH1 0x20 DUP2 ADD DUP2 CALLDATALOAD PUSH5 0x100000000 DUP2 GT ISZERO PUSH2 0x61 JUMPI PUSH1 0x0 DUP1 REVERT JUMPDEST DUP3 ADD DUP4 PUSH1 0x20 DUP3 ADD GT ISZERO PUSH2 0x73 JUMPI PUSH1 0x0 DUP1 REVERT JUMPDEST DUP1 CALLDATALOAD SWAP1 PUSH1 0x20 ADD SWAP2 DUP5 PUSH1 0x1 DUP4 MUL DUP5 ADD GT PUSH5 0x100000000 DUP4 GT OR ISZERO PUSH2 0x95 JUMPI PUSH1 0x0 DUP1 REVERT JUMPDEST SWAP2 SWAP1 DUP1 DUP1 PUSH1 0x1F ADD PUSH1 0x20 DUP1 SWAP2 DIV MUL PUSH1 0x20 ADD PUSH1 0x40 MLOAD SWAP1 DUP2 ADD PUSH1 0x40 MSTORE DUP1 SWAP4 SWAP3 SWAP2 SWAP1 DUP2 DUP2 MSTORE PUSH1 0x20 ADD DUP4 DUP4 DUP1 DUP3 DUP5 CALLDATACOPY PUSH1 0x0 SWAP3 ADD SWAP2 SWAP1 SWAP2 MSTORE POP SWAP3 SWAP6 POP PUSH2 0xD8 SWAP5 POP POP POP POP POP JUMP JUMPDEST STOP JUMPDEST PUSH1 0x40 DUP1 MLOAD PUSH32 0x6D756C746973656E642E67756172642E62797465733332000000000000000000 DUP2 MSTORE SWAP1 MLOAD SWAP1 DUP2 SWAP1 SUB PUSH1 0x17 ADD SWAP1 KECCAK256 PUSH1 0x0 SLOAD EQ ISZERO PUSH2 0x14A JUMPI PUSH1 0x40 MLOAD PUSH3 0x461BCD PUSH1 0xE5 SHL DUP2 MSTORE PUSH1 0x4 ADD DUP1 DUP1 PUSH1 0x20 ADD DUP3 DUP2 SUB DUP3 MSTORE PUSH1 0x30 DUP2 MSTORE PUSH1 0x20 ADD DUP1 PUSH2 0x1D3 PUSH1 0x30 SWAP2 CODECOPY PUSH1 0x40 ADD SWAP2 POP POP PUSH1 0x40 MLOAD DUP1 SWAP2 SUB SWAP1 REVERT JUMPDEST DUP1 MLOAD PUSH1 0x20 JUMPDEST DUP2 DUP2 LT ISZERO PUSH2 0x1CD JUMPI DUP1 DUP4 ADD MLOAD PUSH1 0xF8 SHR PUSH1 0x1 DUP3 ADD DUP5 ADD MLOAD PUSH1 0x60 SHR PUSH1 0x15 DUP4 ADD DUP6 ADD MLOAD PUSH1 0x35 DUP5 ADD DUP7 ADD MLOAD PUSH1 0x55 DUP6 ADD DUP8 ADD PUSH1 0x0 DUP6 PUSH1 0x0 DUP2 EQ PUSH2 0x194 JUMPI PUSH1 0x1 DUP2 EQ PUSH2 0x1A4 JUMPI PUSH2 0x1AF JUMP JUMPDEST PUSH1 0x0 DUP1 DUP6 DUP6 DUP9 DUP11 GAS CALL SWAP2 POP PUSH2 0x1AF JUMP JUMPDEST PUSH1 0x0 DUP1 DUP6 DUP6 DUP10 GAS DELEGATECALL SWAP2 POP JUMPDEST POP DUP1 PUSH2 0x1BA JUMPI PUSH1 0x0 DUP1 REVERT JUMPDEST POP POP DUP1 PUSH1 0x55 ADD DUP6 ADD SWAP5 POP POP POP POP POP PUSH2 0x14F JUMP JUMPDEST POP POP POP JUMP INVALID 0x4D PUSH22 0x6C746973656E642073686F756C64206F6E6C79206265 KECCAK256 PUSH4 0x616C6C65 PUSH5 0x2076696120 PUSH5 0x656C656761 PUSH21 0x6563616C6CA26469706673582212202D062A32659B 0xDC 0x4A 0xD0 MULMOD 0xB5 0x26 ADDRESS JUMPDEST PUSH14 0xAF7DA0CCD97895CF533F2AC4DE43 0x4A 0xBA PUSH25 0x64736F6C634300060A00330000000000000000000000000000 "
        },
        "methodIdentifiers": {
          "multiSend(bytes)": "8d80ff0a"
        }
      }
    }
  }
}