{
  "_format": "hh-sol-artifact-1",
  "contractName": "GelatoManager",
  "sourceName": "contracts/helpers/GelatoManager.sol",
  "abi": [
    {
      "inputs": [
        {
          "internalType": "address",
          "name": "_gelatoCore",
          "type": "address"
        },
        {
          "internalType": "contract IGelatoProviderModule[]",
          "name": "_modules",
          "type": "address[]"
        },
        {
          "components": [
            {
              "internalType": "contract IGelatoCondition[]",
              "name": "conditions",
              "type": "address[]"
            },
            {
              "components": [
                {
                  "internalType": "address",
                  "name": "addr",
                  "type": "address"
                },
                {
                  "internalType": "bytes",
                  "name": "data",
                  "type": "bytes"
                },
                {
                  "internalType": "enum Operation",
                  "name": "operation",
                  "type": "uint8"
                },
                {
                  "internalType": "enum DataFlow",
                  "name": "dataFlow",
                  "type": "uint8"
                },
                {
                  "internalType": "uint256",
                  "name": "value",
                  "type": "uint256"
                },
                {
                  "internalType": "bool",
                  "name": "termsOkCheck",
                  "type": "bool"
                }
              ],
              "internalType": "struct Action[]",
              "name": "actions",
              "type": "tuple[]"
            },
            {
              "internalType": "uint256",
              "name": "gasPriceCeil",
              "type": "uint256"
            }
          ],
          "internalType": "struct TaskSpec[]",
          "name": "_taskSpecs",
          "type": "tuple[]"
        },
        {
          "internalType": "address",
          "name": "_executor",
          "type": "address"
        }
      ],
      "stateMutability": "payable",
      "type": "constructor"
    },
    {
      "anonymous": false,
      "inputs": [
        {
          "indexed": true,
          "internalType": "address",
          "name": "previousOwner",
          "type": "address"
        },
        {
          "indexed": true,
          "internalType": "address",
          "name": "newOwner",
          "type": "address"
        }
      ],
      "name": "OwnershipTransferred",
      "type": "event"
    },
    {
      "inputs": [
        {
          "internalType": "contract IGelatoProviderModule[]",
          "name": "_modules",
          "type": "address[]"
        }
      ],
      "name": "addProviderModules",
      "outputs": [],
      "stateMutability": "nonpayable",
      "type": "function"
    },
    {
      "inputs": [
        {
          "internalType": "address",
          "name": "_executor",
          "type": "address"
        }
      ],
      "name": "assignExecutor",
      "outputs": [],
      "stateMutability": "nonpayable",
      "type": "function"
    },
    {
      "inputs": [],
      "name": "gelatoCore",
      "outputs": [
        {
          "internalType": "address",
          "name": "",
          "type": "address"
        }
      ],
      "stateMutability": "view",
      "type": "function"
    },
    {
      "inputs": [],
      "name": "isOwner",
      "outputs": [
        {
          "internalType": "bool",
          "name": "",
          "type": "bool"
        }
      ],
      "stateMutability": "view",
      "type": "function"
    },
    {
      "inputs": [],
      "name": "owner",
      "outputs": [
        {
          "internalType": "address",
          "name": "",
          "type": "address"
        }
      ],
      "stateMutability": "view",
      "type": "function"
    },
    {
      "inputs": [],
      "name": "provideFunds",
      "outputs": [],
      "stateMutability": "payable",
      "type": "function"
    },
    {
      "inputs": [],
      "name": "renounceOwnership",
      "outputs": [],
      "stateMutability": "nonpayable",
      "type": "function"
    },
    {
      "inputs": [
        {
          "internalType": "address",
          "name": "_gelatoCore",
          "type": "address"
        }
      ],
      "name": "setGelatoCore",
      "outputs": [],
      "stateMutability": "nonpayable",
      "type": "function"
    },
    {
      "inputs": [
        {
          "components": [
            {
              "internalType": "address",
              "name": "addr",
              "type": "address"
            },
            {
              "internalType": "contract IGelatoProviderModule",
              "name": "module",
              "type": "address"
            }
          ],
          "internalType": "struct Provider",
          "name": "_provider",
          "type": "tuple"
        },
        {
          "components": [
            {
              "components": [
                {
                  "internalType": "contract IGelatoCondition",
                  "name": "inst",
                  "type": "address"
                },
                {
                  "internalType": "bytes",
                  "name": "data",
                  "type": "bytes"
                }
              ],
              "internalType": "struct Condition[]",
              "name": "conditions",
              "type": "tuple[]"
            },
            {
              "components": [
                {
                  "internalType": "address",
                  "name": "addr",
                  "type": "address"
                },
                {
                  "internalType": "bytes",
                  "name": "data",
                  "type": "bytes"
                },
                {
                  "internalType": "enum Operation",
                  "name": "operation",
                  "type": "uint8"
                },
                {
                  "internalType": "enum DataFlow",
                  "name": "dataFlow",
                  "type": "uint8"
                },
                {
                  "internalType": "uint256",
                  "name": "value",
                  "type": "uint256"
                },
                {
                  "internalType": "bool",
                  "name": "termsOkCheck",
                  "type": "bool"
                }
              ],
              "internalType": "struct Action[]",
              "name": "actions",
              "type": "tuple[]"
            },
            {
              "internalType": "uint256",
              "name": "selfProviderGasLimit",
              "type": "uint256"
            },
            {
              "internalType": "uint256",
              "name": "selfProviderGasPriceCeil",
              "type": "uint256"
            }
          ],
          "internalType": "struct Task",
          "name": "_task",
          "type": "tuple"
        },
        {
          "internalType": "uint256",
          "name": "_expiryDate",
          "type": "uint256"
        }
      ],
      "name": "submitTask",
      "outputs": [],
      "stateMutability": "nonpayable",
      "type": "function"
    },
    {
      "inputs": [
        {
          "components": [
            {
              "internalType": "address",
              "name": "addr",
              "type": "address"
            },
            {
              "internalType": "contract IGelatoProviderModule",
              "name": "module",
              "type": "address"
            }
          ],
          "internalType": "struct Provider",
          "name": "_provider",
          "type": "tuple"
        },
        {
          "components": [
            {
              "components": [
                {
                  "internalType": "contract IGelatoCondition",
                  "name": "inst",
                  "type": "address"
                },
                {
                  "internalType": "bytes",
                  "name": "data",
                  "type": "bytes"
                }
              ],
              "internalType": "struct Condition[]",
              "name": "conditions",
              "type": "tuple[]"
            },
            {
              "components": [
                {
                  "internalType": "address",
                  "name": "addr",
                  "type": "address"
                },
                {
                  "internalType": "bytes",
                  "name": "data",
                  "type": "bytes"
                },
                {
                  "internalType": "enum Operation",
                  "name": "operation",
                  "type": "uint8"
                },
                {
                  "internalType": "enum DataFlow",
                  "name": "dataFlow",
                  "type": "uint8"
                },
                {
                  "internalType": "uint256",
                  "name": "value",
                  "type": "uint256"
                },
                {
                  "internalType": "bool",
                  "name": "termsOkCheck",
                  "type": "bool"
                }
              ],
              "internalType": "struct Action[]",
              "name": "actions",
              "type": "tuple[]"
            },
            {
              "internalType": "uint256",
              "name": "selfProviderGasLimit",
              "type": "uint256"
            },
            {
              "internalType": "uint256",
              "name": "selfProviderGasPriceCeil",
              "type": "uint256"
            }
          ],
          "internalType": "struct Task[]",
          "name": "_tasks",
          "type": "tuple[]"
        },
        {
          "internalType": "uint256",
          "name": "_expiryDate",
          "type": "uint256"
        },
        {
          "internalType": "uint256",
          "name": "_sumOfRequestedTaskSubmits",
          "type": "uint256"
        }
      ],
      "name": "submitTaskChain",
      "outputs": [],
      "stateMutability": "nonpayable",
      "type": "function"
    },
    {
      "inputs": [
        {
          "components": [
            {
              "internalType": "address",
              "name": "addr",
              "type": "address"
            },
            {
              "internalType": "contract IGelatoProviderModule",
              "name": "module",
              "type": "address"
            }
          ],
          "internalType": "struct Provider",
          "name": "_provider",
          "type": "tuple"
        },
        {
          "components": [
            {
              "components": [
                {
                  "internalType": "contract IGelatoCondition",
                  "name": "inst",
                  "type": "address"
                },
                {
                  "internalType": "bytes",
                  "name": "data",
                  "type": "bytes"
                }
              ],
              "internalType": "struct Condition[]",
              "name": "conditions",
              "type": "tuple[]"
            },
            {
              "components": [
                {
                  "internalType": "address",
                  "name": "addr",
                  "type": "address"
                },
                {
                  "internalType": "bytes",
                  "name": "data",
                  "type": "bytes"
                },
                {
                  "internalType": "enum Operation",
                  "name": "operation",
                  "type": "uint8"
                },
                {
                  "internalType": "enum DataFlow",
                  "name": "dataFlow",
                  "type": "uint8"
                },
                {
                  "internalType": "uint256",
                  "name": "value",
                  "type": "uint256"
                },
                {
                  "internalType": "bool",
                  "name": "termsOkCheck",
                  "type": "bool"
                }
              ],
              "internalType": "struct Action[]",
              "name": "actions",
              "type": "tuple[]"
            },
            {
              "internalType": "uint256",
              "name": "selfProviderGasLimit",
              "type": "uint256"
            },
            {
              "internalType": "uint256",
              "name": "selfProviderGasPriceCeil",
              "type": "uint256"
            }
          ],
          "internalType": "struct Task[]",
          "name": "_tasks",
          "type": "tuple[]"
        },
        {
          "internalType": "uint256",
          "name": "_expiryDate",
          "type": "uint256"
        },
        {
          "internalType": "uint256",
          "name": "_cycles",
          "type": "uint256"
        }
      ],
      "name": "submitTaskCycle",
      "outputs": [],
      "stateMutability": "nonpayable",
      "type": "function"
    },
    {
      "inputs": [
        {
          "internalType": "address",
          "name": "newOwner",
          "type": "address"
        }
      ],
      "name": "transferOwnership",
      "outputs": [],
      "stateMutability": "nonpayable",
      "type": "function"
    },
    {
      "inputs": [
        {
          "components": [
            {
              "internalType": "contract IGelatoCondition[]",
              "name": "conditions",
              "type": "address[]"
            },
            {
              "components": [
                {
                  "internalType": "address",
                  "name": "addr",
                  "type": "address"
                },
                {
                  "internalType": "bytes",
                  "name": "data",
                  "type": "bytes"
                },
                {
                  "internalType": "enum Operation",
                  "name": "operation",
                  "type": "uint8"
                },
                {
                  "internalType": "enum DataFlow",
                  "name": "dataFlow",
                  "type": "uint8"
                },
                {
                  "internalType": "uint256",
                  "name": "value",
                  "type": "uint256"
                },
                {
                  "internalType": "bool",
                  "name": "termsOkCheck",
                  "type": "bool"
                }
              ],
              "internalType": "struct Action[]",
              "name": "actions",
              "type": "tuple[]"
            },
            {
              "internalType": "uint256",
              "name": "gasPriceCeil",
              "type": "uint256"
            }
          ],
          "internalType": "struct TaskSpec[]",
          "name": "_taskSpecs",
          "type": "tuple[]"
        }
      ],
      "name": "whitelistTaskSpecs",
      "outputs": [],
      "stateMutability": "nonpayable",
      "type": "function"
    },
    {
      "inputs": [
        {
          "internalType": "uint256",
          "name": "_amount",
          "type": "uint256"
        },
        {
          "internalType": "address payable",
          "name": "_receiver",
          "type": "address"
        }
      ],
      "name": "withdrawFunds",
      "outputs": [],
      "stateMutability": "payable",
      "type": "function"
    },
    {
      "stateMutability": "payable",
      "type": "receive"
    }
  ],
  "bytecode": "0x608060405260405162001cab38038062001cab8339810160408190526200002691620003fe565b600080546001600160a01b03191633178082556040516001600160a01b039190911691907f8be0079c531659141344cd1fd0a4f28419497f9722a3daafe3b4186f6b6457e0908290a3600180546001600160a01b0319166001600160a01b038681169190911791829055604051631355a6f360e31b8152911690639aad3798903490620000bc9085908790899060040162000665565b6000604051808303818588803b158015620000d657600080fd5b505af1158015620000eb573d6000803e3d6000fd5b505050505050505050620007d6565b80516200010781620007c0565b92915050565b600082601f8301126200011e578081fd5b8151620001356200012f826200074a565b62000723565b818152915060208083019084810160005b848110156200026a578151870160c0601f198181848d030112156200016a57600080fd5b620001758262000723565b868401516200018481620007c0565b81526040848101516001600160401b0380821115620001a257600080fd5b8187018f603f820112620001b557600080fd5b8a810151925081831115620001c957600080fd5b620001db8b87601f8601160162000723565b91508282528f84848301011115620001f257600080fd5b62000203838c84018684016200077f565b50838a015250606092506200021b8d868501620003ee565b9082015260806200022f8d868301620003de565b8383015260a092508285015181830152506200024e8c848601620003cd565b9181019190915286525050928201929082019060010162000146565b505050505092915050565b600082601f83011262000286578081fd5b8151620002976200012f826200074a565b8181529150602080830190840160005b83811015620003c357815186016060818903601f19011215620002c957600080fd5b620002d5606062000723565b60208201516001600160401b0380821115620002f057600080fd5b8184018b603f8201126200030357600080fd5b60208101519250620003196200012f846200074a565b80848252602082019150604083018e60406020880286010111156200033d57600080fd5b600093505b858410156200036d57620003578f82620000fa565b8352600193909301926020928301920162000342565b508552505060408401519150808211156200038757600080fd5b50620003998a6020838601016200010d565b602083810191909152606093909301516040830152508452928301929190910190600101620002a7565b5050505092915050565b805180151581146200010757600080fd5b8051600481106200010757600080fd5b8051600281106200010757600080fd5b6000806000806080858703121562000414578384fd5b84516200042181620007c0565b602086810151919550906001600160401b038082111562000440578586fd5b81880189601f82011262000452578687fd5b80519250620004656200012f846200074a565b83815284810190828601868602840187018d10156200048257898afd5b8993505b85841015620004b15780516200049c81620007c0565b83526001939093019291860191860162000486565b5060408b01519098509450505080831115620004cb578485fd5b5050620004db8782880162000275565b925050620004ed8660608701620000fa565b905092959194509250565b6001600160a01b0316815260200190565b805160608084528151908401819052600091602091839160808701919084015b8184101562000553576200053e815162000773565b83526001939093019291840191840162000529565b50508483015186820387850152805180835285935082850191818602840186019086015b82861015620005ab57601f1985830301845262000596828251620005cb565b60019690960195938701939150860162000577565b50604088015160408a015280965050505050505092915050565b15159052565b600060018060a01b038251168352602082015160c0602085015280518060c0860152620006008160e08701602085016200077f565b604084015191506200061282620007b2565b81604086015260608401519150600482106200062a57fe5b8160608601526080840151608086015260a084015191506200065060a0860183620005c5565b601f01601f19169390930160e0019392505050565b60006060820160018060a01b038616835260206060818501528186516200068d81856200076a565b91508193508281028201838901865b83811015620006ca578683038552620006b783835162000509565b948601949250908501906001016200069c565b5050868103604088015280945087519250620006e783826200076a565b94505050818601845b82811015620007155762000706858351620004f8565b945090830190600101620006f0565b509298975050505050505050565b6040518181016001600160401b03811182821017156200074257600080fd5b604052919050565b60006001600160401b0382111562000760578081fd5b5060209081020190565b90815260200190565b6001600160a01b031690565b60005b838110156200079c57818101518382015260200162000782565b83811115620007ac576000848401525b50505050565b60028110620007bd57fe5b50565b6001600160a01b0381168114620007bd57600080fd5b6114c580620007e66000396000f3fe6080604052600436106100e15760003560e01c80638da5cb5b1161007f578063f2fde38b11610059578063f2fde38b1461020c578063fc3e5f571461022c578063fe861b991461024c578063ff92b1a814610261576100e8565b80638da5cb5b1461019f5780638f32d59b146101ca578063b348e268146101ec576100e8565b8063715018a6116100bb578063715018a614610137578063744bfe611461014c5780637bad2d061461015f5780637c3ceda41461017f576100e8565b806302526490146100ed57806317b333081461010f5780631f0d8c1614610117576100e8565b366100e857005b600080fd5b3480156100f957600080fd5b5061010d610108366004610dd2565b610281565b005b61010d61031b565b34801561012357600080fd5b5061010d610132366004610b9d565b610381565b34801561014357600080fd5b5061010d6103ed565b61010d61015a366004610eef565b61045b565b34801561016b57600080fd5b5061010d61017a366004610c5c565b610522565b34801561018b57600080fd5b5061010d61019a366004610bc0565b610590565b3480156101ab57600080fd5b506101b46105e4565b6040516101c191906110f9565b60405180910390f35b3480156101d657600080fd5b506101df6105f3565b6040516101c1919061120c565b3480156101f857600080fd5b5061010d610207366004610dd2565b610604565b34801561021857600080fd5b5061010d610227366004610b9d565b61065e565b34801561023857600080fd5b5061010d610247366004610b9d565b61068e565b34801561025857600080fd5b506101b46106e2565b34801561026d57600080fd5b5061010d61027c366004610e81565b6106f1565b6102896105f3565b6102ae5760405162461bcd60e51b81526004016102a590611333565b60405180910390fd5b6001546040516225264960e41b81526001600160a01b03909116906302526490906102e3908790879087908790600401611368565b600060405180830381600087803b1580156102fd57600080fd5b505af1158015610311573d6000803e3d6000fd5b5050505050505050565b6001546040516328d0cad760e01b81526001600160a01b03909116906328d0cad790349061034d9030906004016110f9565b6000604051808303818588803b15801561036657600080fd5b505af115801561037a573d6000803e3d6000fd5b5050505050565b6103896105f3565b6103a55760405162461bcd60e51b81526004016102a590611333565b6001600160a01b0381166103cb5760405162461bcd60e51b81526004016102a59061125d565b600180546001600160a01b0319166001600160a01b0392909216919091179055565b6103f56105f3565b6104115760405162461bcd60e51b81526004016102a590611333565b600080546040516001600160a01b03909116907f8be0079c531659141344cd1fd0a4f28419497f9722a3daafe3b4186f6b6457e0908390a3600080546001600160a01b0319169055565b6104636105f3565b61047f5760405162461bcd60e51b81526004016102a590611333565b60015460405163c6638a8b60e01b81526000916001600160a01b03169063c6638a8b906104b0908690600401611410565b602060405180830381600087803b1580156104ca57600080fd5b505af11580156104de573d6000803e3d6000fd5b505050506040513d601f19601f820116820180604052508101906105029190610ed7565b905061051d6001600160a01b0383168263ffffffff61078316565b505050565b61052a6105f3565b6105465760405162461bcd60e51b81526004016102a590611333565b60015460405163413a0ed360e01b81526001600160a01b039091169063413a0ed39061057690849060040161114e565b600060405180830381600087803b15801561036657600080fd5b6105986105f3565b6105b45760405162461bcd60e51b81526004016102a590611333565b600154604051631f0f3b6960e21b81526001600160a01b0390911690637c3ceda49061057690849060040161110d565b6000546001600160a01b031690565b6000546001600160a01b0316331490565b61060c6105f3565b6106285760405162461bcd60e51b81526004016102a590611333565b6001546040516316691c4d60e31b81526001600160a01b039091169063b348e268906102e3908790879087908790600401611368565b6106666105f3565b6106825760405162461bcd60e51b81526004016102a590611333565b61068b8161081f565b50565b6106966105f3565b6106b25760405162461bcd60e51b81526004016102a590611333565b60015460405163088a5e3360e41b81526001600160a01b03909116906388a5e330906105769084906004016110f9565b6001546001600160a01b031681565b6106f96105f3565b6107155760405162461bcd60e51b81526004016102a590611333565b6001546040516001620da9cb60e31b031981526001600160a01b039091169063ff92b1a89061074c908690869086906004016113e0565b600060405180830381600087803b15801561076657600080fd5b505af115801561077a573d6000803e3d6000fd5b50505050505050565b804710156107a35760405162461bcd60e51b81526004016102a5906112fc565b6000826001600160a01b0316826040516107bc906110f6565b60006040518083038185875af1925050503d80600081146107f9576040519150601f19603f3d011682016040523d82523d6000602084013e6107fe565b606091505b505090508061051d5760405162461bcd60e51b81526004016102a59061129f565b6001600160a01b0381166108455760405162461bcd60e51b81526004016102a590611217565b600080546040516001600160a01b03808516939216917f8be0079c531659141344cd1fd0a4f28419497f9722a3daafe3b4186f6b6457e091a3600080546001600160a01b0319166001600160a01b0392909216919091179055565b600082601f8301126108b0578081fd5b81356108c36108be82611440565b611419565b818152915060208083019084810160005b84811015610997578135870160c080601f19838c030112156108f557600080fd5b6108fe81611419565b8583013561090b8161147a565b815260408381013567ffffffffffffffff81111561092857600080fd5b6109368d89838801016109b8565b88840152506060808501356002811061094e57600080fd5b808385015250608091506109648d838701610a2c565b9083015260a0848101358284015261097e8d8587016109a2565b90830152508652505092820192908201906001016108d4565b505050505092915050565b803580151581146109b257600080fd5b92915050565b600082601f8301126109c8578081fd5b813567ffffffffffffffff8111156109de578182fd5b6109f1601f8201601f1916602001611419565b9150808252836020828501011115610a0857600080fd5b8060208401602084013760009082016020015292915050565b80356109b28161147a565b8035600481106109b257600080fd5b600060408284031215610a4c578081fd5b610a566040611419565b90508135610a638161147a565b81526020820135610a738161147a565b602082015292915050565b600060808284031215610a8f578081fd5b610a996080611419565b9050813567ffffffffffffffff80821115610ab357600080fd5b81840185601f820112610ac557600080fd5b80359250610ad56108be84611440565b8381526020808201919083810160005b87811015610b555781358601604080601f19838f03011215610b0657600080fd5b610b0f81611419565b610b1b8e878501610a21565b8152818301358a811115610b2e57600080fd5b610b3c8f88838701016109b8565b8288015250875250509382019390820190600101610ae5565b505081875280880135955084861115610b6d57600080fd5b610b7989878a016108a0565b81880152505050505050604082013560408201526060820135606082015292915050565b600060208284031215610bae578081fd5b8135610bb98161147a565b9392505050565b60006020808385031215610bd2578182fd5b823567ffffffffffffffff811115610be8578283fd5b80840185601f820112610bf9578384fd5b80359150610c096108be83611440565b8281528381019082850185850284018601891015610c25578687fd5b8693505b84841015610c50578035610c3c8161147a565b835260019390930192918501918501610c29565b50979650505050505050565b600060208284031215610c6d578081fd5b67ffffffffffffffff82351115610c82578081fd5b8135820183601f820112610c94578182fd5b610ca16108be8235611440565b81358152602080820191908301845b8435811015610dc657813585016060818a03601f19011215610cd0578687fd5b610cda6060611419565b67ffffffffffffffff60208301351115610cf2578788fd5b602082013582018a603f820112610d07578889fd5b610d176108be6020830135611440565b8060208301358252602082019150604083018d6040602080870135028601011115610d40578b8cfd5b8b5b6020850135811015610d6d57610d588f83610a21565b84526020938401939190910190600101610d42565b50508352505067ffffffffffffffff60408301351115610d8b578788fd5b610d9e8a602060408501358501016108a0565b6020828101919091526060929092013560408201528552938401939190910190600101610cb0565b50909695505050505050565b60008060008060a08587031215610de7578283fd5b610df18686610a3b565b9350604085013567ffffffffffffffff811115610e0c578384fd5b80860187601f820112610e1d578485fd5b80359150610e2d6108be83611440565b82815260208082019190838101885b86811015610e6557610e538d848435890101610a7e565b85529382019390820190600101610e3c565b50989b919a505060608901359860800135975095505050505050565b600080600060808486031215610e95578081fd5b610e9f8585610a3b565b9250604084013567ffffffffffffffff811115610eba578182fd5b610ec686828701610a7e565b925050606084013590509250925092565b600060208284031215610ee8578081fd5b5051919050565b60008060408385031215610f01578182fd5b823591506020830135610f138161147a565b809150509250929050565b6000815180845260208085018081965082840281019150828601855b85811015610fc1578284038952815180516001600160a01b031685528581015160c087870181905290610f6f82880182610fce565b60409250610f7f83850151611460565b8389015260609250828401519150610f9682611470565b918701526080828101519087015260a091820151151591909501529784019790840190600101610f3a565b5091979650505050505050565b60008151808452815b81811015610ff357602081850181015186830182015201610fd7565b818111156110045782602083870101525b50601f01601f19169290920160200192915050565b6001600160a01b03169052565b80516001600160a01b03908116835260209182015116910152565b60006080830182516080855281815180845260a0870191506020935060a08482028801018484018694505b828510156110ba57609f198983030184528051604061108c848351611019565b8782015181898601526110a182860182610fce565b600198909801979689019694505050908601905061106c565b50848701519350878103858901526110d28185610f1e565b94505050505060408301516040850152606083015160608501528091505092915050565b90565b6001600160a01b0391909116815260200190565b6020808252825182820181905260009190848201906040850190845b81811015610dc65783516001600160a01b031683529284019291840191600101611129565b60208082528251828201819052600091906040908185019080840286018301878501865b838110156111fe57888303603f19018552815180516060808652815190860181905260808601918a01908b905b808210156111c85782516001600160a01b03168452928b0192918b01916001919091019061119f565b505050888201518582038a8701526111e08282610f1e565b92890151958901959095525094870194925090860190600101611172565b509098975050505050505050565b901515815260200190565b60208082526026908201527f4f776e61626c653a206e6577206f776e657220697320746865207a65726f206160408201526564647265737360d01b606082015260800190565b60208082526022908201527f47656c61746f436f72653a2043616e6e6f742062652041646472657373205a65604082015261726f60f01b606082015260800190565b6020808252603a908201527f416464726573733a20756e61626c6520746f2073656e642076616c75652c207260408201527f6563697069656e74206d61792068617665207265766572746564000000000000606082015260800190565b6020808252601d908201527f416464726573733a20696e73756666696369656e742062616c616e6365000000604082015260600190565b6020808252818101527f4f776e61626c653a2063616c6c6572206973206e6f7420746865206f776e6572604082015260600190565b600060a082016113788388611026565b60a0604084015285519081905260209060c08085019190838202860101838901855b838110156113c85760bf198884030185526113b6838351611041565b9486019492509085019060010161139a565b50506060860197909752505050506080015292915050565b60006113ec8286611026565b608060408301526114006080830185611041565b9050826060830152949350505050565b90815260200190565b60405181810167ffffffffffffffff8111828210171561143857600080fd5b604052919050565b600067ffffffffffffffff821115611456578081fd5b5060209081020190565b806002811061146b57fe5b919050565b6004811061068b57fe5b6001600160a01b038116811461068b57600080fdfea2646970667358221220f06fa3b3a3a50a87c98fd90b9a9a713ff0fa1bd1b170470ddb85d3d41cfe10b964736f6c634300060a0033",
  "linkReferences": {},
  "deployedLinkReferences": {}
}