{
  "_format": "hh-sol-artifact-1",
  "contractName": "GelatoManager",
  "sourceName": "contracts/helpers/GelatoManager.sol",
  "abi": [
    {
      "inputs": [
        {
          "internalType": "address",
          "name": "_gelatoCore",
          "type": "address"
        },
        {
          "internalType": "contract IGelatoProviderModule[]",
          "name": "_modules",
          "type": "address[]"
        },
        {
          "components": [
            {
              "internalType": "contract IGelatoCondition[]",
              "name": "conditions",
              "type": "address[]"
            },
            {
              "components": [
                {
                  "internalType": "address",
                  "name": "addr",
                  "type": "address"
                },
                {
                  "internalType": "bytes",
                  "name": "data",
                  "type": "bytes"
                },
                {
                  "internalType": "enum Operation",
                  "name": "operation",
                  "type": "uint8"
                },
                {
                  "internalType": "enum DataFlow",
                  "name": "dataFlow",
                  "type": "uint8"
                },
                {
                  "internalType": "uint256",
                  "name": "value",
                  "type": "uint256"
                },
                {
                  "internalType": "bool",
                  "name": "termsOkCheck",
                  "type": "bool"
                }
              ],
              "internalType": "struct Action[]",
              "name": "actions",
              "type": "tuple[]"
            },
            {
              "internalType": "uint256",
              "name": "gasPriceCeil",
              "type": "uint256"
            }
          ],
          "internalType": "struct TaskSpec[]",
          "name": "_taskSpecs",
          "type": "tuple[]"
        },
        {
          "internalType": "address",
          "name": "_executor",
          "type": "address"
        }
      ],
      "stateMutability": "payable",
      "type": "constructor"
    },
    {
      "anonymous": false,
      "inputs": [
        {
          "indexed": true,
          "internalType": "address",
          "name": "previousOwner",
          "type": "address"
        },
        {
          "indexed": true,
          "internalType": "address",
          "name": "newOwner",
          "type": "address"
        }
      ],
      "name": "OwnershipTransferred",
      "type": "event"
    },
    {
      "inputs": [
        {
          "internalType": "contract IGelatoProviderModule[]",
          "name": "_modules",
          "type": "address[]"
        }
      ],
      "name": "addProviderModules",
      "outputs": [],
      "stateMutability": "nonpayable",
      "type": "function"
    },
    {
      "inputs": [
        {
          "internalType": "address",
          "name": "_executor",
          "type": "address"
        }
      ],
      "name": "assignExecutor",
      "outputs": [],
      "stateMutability": "nonpayable",
      "type": "function"
    },
    {
      "inputs": [],
      "name": "gelatoCore",
      "outputs": [
        {
          "internalType": "address",
          "name": "",
          "type": "address"
        }
      ],
      "stateMutability": "view",
      "type": "function"
    },
    {
      "inputs": [],
      "name": "isOwner",
      "outputs": [
        {
          "internalType": "bool",
          "name": "",
          "type": "bool"
        }
      ],
      "stateMutability": "view",
      "type": "function"
    },
    {
      "inputs": [],
      "name": "owner",
      "outputs": [
        {
          "internalType": "address",
          "name": "",
          "type": "address"
        }
      ],
      "stateMutability": "view",
      "type": "function"
    },
    {
      "inputs": [],
      "name": "provideFunds",
      "outputs": [],
      "stateMutability": "payable",
      "type": "function"
    },
    {
      "inputs": [],
      "name": "renounceOwnership",
      "outputs": [],
      "stateMutability": "nonpayable",
      "type": "function"
    },
    {
      "inputs": [
        {
          "internalType": "address",
          "name": "_gelatoCore",
          "type": "address"
        }
      ],
      "name": "setGelatoCore",
      "outputs": [],
      "stateMutability": "nonpayable",
      "type": "function"
    },
    {
      "inputs": [
        {
          "components": [
            {
              "internalType": "address",
              "name": "addr",
              "type": "address"
            },
            {
              "internalType": "contract IGelatoProviderModule",
              "name": "module",
              "type": "address"
            }
          ],
          "internalType": "struct Provider",
          "name": "_provider",
          "type": "tuple"
        },
        {
          "components": [
            {
              "components": [
                {
                  "internalType": "contract IGelatoCondition",
                  "name": "inst",
                  "type": "address"
                },
                {
                  "internalType": "bytes",
                  "name": "data",
                  "type": "bytes"
                }
              ],
              "internalType": "struct Condition[]",
              "name": "conditions",
              "type": "tuple[]"
            },
            {
              "components": [
                {
                  "internalType": "address",
                  "name": "addr",
                  "type": "address"
                },
                {
                  "internalType": "bytes",
                  "name": "data",
                  "type": "bytes"
                },
                {
                  "internalType": "enum Operation",
                  "name": "operation",
                  "type": "uint8"
                },
                {
                  "internalType": "enum DataFlow",
                  "name": "dataFlow",
                  "type": "uint8"
                },
                {
                  "internalType": "uint256",
                  "name": "value",
                  "type": "uint256"
                },
                {
                  "internalType": "bool",
                  "name": "termsOkCheck",
                  "type": "bool"
                }
              ],
              "internalType": "struct Action[]",
              "name": "actions",
              "type": "tuple[]"
            },
            {
              "internalType": "uint256",
              "name": "selfProviderGasLimit",
              "type": "uint256"
            },
            {
              "internalType": "uint256",
              "name": "selfProviderGasPriceCeil",
              "type": "uint256"
            }
          ],
          "internalType": "struct Task",
          "name": "_task",
          "type": "tuple"
        },
        {
          "internalType": "uint256",
          "name": "_expiryDate",
          "type": "uint256"
        }
      ],
      "name": "submitTask",
      "outputs": [],
      "stateMutability": "nonpayable",
      "type": "function"
    },
    {
      "inputs": [
        {
          "components": [
            {
              "internalType": "address",
              "name": "addr",
              "type": "address"
            },
            {
              "internalType": "contract IGelatoProviderModule",
              "name": "module",
              "type": "address"
            }
          ],
          "internalType": "struct Provider",
          "name": "_provider",
          "type": "tuple"
        },
        {
          "components": [
            {
              "components": [
                {
                  "internalType": "contract IGelatoCondition",
                  "name": "inst",
                  "type": "address"
                },
                {
                  "internalType": "bytes",
                  "name": "data",
                  "type": "bytes"
                }
              ],
              "internalType": "struct Condition[]",
              "name": "conditions",
              "type": "tuple[]"
            },
            {
              "components": [
                {
                  "internalType": "address",
                  "name": "addr",
                  "type": "address"
                },
                {
                  "internalType": "bytes",
                  "name": "data",
                  "type": "bytes"
                },
                {
                  "internalType": "enum Operation",
                  "name": "operation",
                  "type": "uint8"
                },
                {
                  "internalType": "enum DataFlow",
                  "name": "dataFlow",
                  "type": "uint8"
                },
                {
                  "internalType": "uint256",
                  "name": "value",
                  "type": "uint256"
                },
                {
                  "internalType": "bool",
                  "name": "termsOkCheck",
                  "type": "bool"
                }
              ],
              "internalType": "struct Action[]",
              "name": "actions",
              "type": "tuple[]"
            },
            {
              "internalType": "uint256",
              "name": "selfProviderGasLimit",
              "type": "uint256"
            },
            {
              "internalType": "uint256",
              "name": "selfProviderGasPriceCeil",
              "type": "uint256"
            }
          ],
          "internalType": "struct Task[]",
          "name": "_tasks",
          "type": "tuple[]"
        },
        {
          "internalType": "uint256",
          "name": "_expiryDate",
          "type": "uint256"
        },
        {
          "internalType": "uint256",
          "name": "_sumOfRequestedTaskSubmits",
          "type": "uint256"
        }
      ],
      "name": "submitTaskChain",
      "outputs": [],
      "stateMutability": "nonpayable",
      "type": "function"
    },
    {
      "inputs": [
        {
          "components": [
            {
              "internalType": "address",
              "name": "addr",
              "type": "address"
            },
            {
              "internalType": "contract IGelatoProviderModule",
              "name": "module",
              "type": "address"
            }
          ],
          "internalType": "struct Provider",
          "name": "_provider",
          "type": "tuple"
        },
        {
          "components": [
            {
              "components": [
                {
                  "internalType": "contract IGelatoCondition",
                  "name": "inst",
                  "type": "address"
                },
                {
                  "internalType": "bytes",
                  "name": "data",
                  "type": "bytes"
                }
              ],
              "internalType": "struct Condition[]",
              "name": "conditions",
              "type": "tuple[]"
            },
            {
              "components": [
                {
                  "internalType": "address",
                  "name": "addr",
                  "type": "address"
                },
                {
                  "internalType": "bytes",
                  "name": "data",
                  "type": "bytes"
                },
                {
                  "internalType": "enum Operation",
                  "name": "operation",
                  "type": "uint8"
                },
                {
                  "internalType": "enum DataFlow",
                  "name": "dataFlow",
                  "type": "uint8"
                },
                {
                  "internalType": "uint256",
                  "name": "value",
                  "type": "uint256"
                },
                {
                  "internalType": "bool",
                  "name": "termsOkCheck",
                  "type": "bool"
                }
              ],
              "internalType": "struct Action[]",
              "name": "actions",
              "type": "tuple[]"
            },
            {
              "internalType": "uint256",
              "name": "selfProviderGasLimit",
              "type": "uint256"
            },
            {
              "internalType": "uint256",
              "name": "selfProviderGasPriceCeil",
              "type": "uint256"
            }
          ],
          "internalType": "struct Task[]",
          "name": "_tasks",
          "type": "tuple[]"
        },
        {
          "internalType": "uint256",
          "name": "_expiryDate",
          "type": "uint256"
        },
        {
          "internalType": "uint256",
          "name": "_cycles",
          "type": "uint256"
        }
      ],
      "name": "submitTaskCycle",
      "outputs": [],
      "stateMutability": "nonpayable",
      "type": "function"
    },
    {
      "inputs": [
        {
          "internalType": "address",
          "name": "newOwner",
          "type": "address"
        }
      ],
      "name": "transferOwnership",
      "outputs": [],
      "stateMutability": "nonpayable",
      "type": "function"
    },
    {
      "inputs": [
        {
          "components": [
            {
              "internalType": "contract IGelatoCondition[]",
              "name": "conditions",
              "type": "address[]"
            },
            {
              "components": [
                {
                  "internalType": "address",
                  "name": "addr",
                  "type": "address"
                },
                {
                  "internalType": "bytes",
                  "name": "data",
                  "type": "bytes"
                },
                {
                  "internalType": "enum Operation",
                  "name": "operation",
                  "type": "uint8"
                },
                {
                  "internalType": "enum DataFlow",
                  "name": "dataFlow",
                  "type": "uint8"
                },
                {
                  "internalType": "uint256",
                  "name": "value",
                  "type": "uint256"
                },
                {
                  "internalType": "bool",
                  "name": "termsOkCheck",
                  "type": "bool"
                }
              ],
              "internalType": "struct Action[]",
              "name": "actions",
              "type": "tuple[]"
            },
            {
              "internalType": "uint256",
              "name": "gasPriceCeil",
              "type": "uint256"
            }
          ],
          "internalType": "struct TaskSpec[]",
          "name": "_taskSpecs",
          "type": "tuple[]"
        }
      ],
      "name": "whitelistTaskSpecs",
      "outputs": [],
      "stateMutability": "nonpayable",
      "type": "function"
    },
    {
      "inputs": [
        {
          "internalType": "uint256",
          "name": "_amount",
          "type": "uint256"
        },
        {
          "internalType": "address payable",
          "name": "_receiver",
          "type": "address"
        }
      ],
      "name": "withdrawFunds",
      "outputs": [],
      "stateMutability": "payable",
      "type": "function"
    },
    {
      "stateMutability": "payable",
      "type": "receive"
    }
  ],
  "bytecode": "0x6080604052604051620035c5380380620035c5833981810160405281019062000029919062000636565b336000806101000a81548173ffffffffffffffffffffffffffffffffffffffff021916908373ffffffffffffffffffffffffffffffffffffffff1602179055506000809054906101000a900473ffffffffffffffffffffffffffffffffffffffff1673ffffffffffffffffffffffffffffffffffffffff16600073ffffffffffffffffffffffffffffffffffffffff167f8be0079c531659141344cd1fd0a4f28419497f9722a3daafe3b4186f6b6457e060405160405180910390a383600160006101000a81548173ffffffffffffffffffffffffffffffffffffffff021916908373ffffffffffffffffffffffffffffffffffffffff160217905550600160009054906101000a900473ffffffffffffffffffffffffffffffffffffffff1673ffffffffffffffffffffffffffffffffffffffff16639aad3798348385876040518563ffffffff1660e01b8152600401620001889392919062000ac5565b6000604051808303818588803b158015620001a257600080fd5b505af1158015620001b7573d6000803e3d6000fd5b50505050505050505062000f2a565b600081519050620001d78162000e86565b92915050565b600082601f830112620001ef57600080fd5b815162000206620002008262000b3e565b62000b10565b915081818352602084019350602081019050838560208402820111156200022c57600080fd5b60005b8381101562000260578162000245888262000464565b8452602084019350602083019250506001810190506200022f565b5050505092915050565b600082601f8301126200027c57600080fd5b8151620002936200028d8262000b67565b62000b10565b91508181835260208401935060208101905083856020840282011115620002b957600080fd5b60005b83811015620002ed5781620002d288826200047b565b845260208401935060208301925050600181019050620002bc565b5050505092915050565b600082601f8301126200030957600080fd5b8151620003206200031a8262000b90565b62000b10565b9150818183526020840193506020810190508360005b838110156200036a57815186016200034f8882620004c0565b84526020840193506020830192505060018101905062000336565b5050505092915050565b600082601f8301126200038657600080fd5b81516200039d620003978262000bb9565b62000b10565b9150818183526020840193506020810190508360005b83811015620003e75781518601620003cc888262000584565b845260208401935060208301925050600181019050620003b3565b5050505092915050565b600081519050620004028162000ea0565b92915050565b600082601f8301126200041a57600080fd5b8151620004316200042b8262000be2565b62000b10565b915080825260208301602083018583830111156200044e57600080fd5b6200045b83828462000e23565b50505092915050565b600081519050620004758162000eba565b92915050565b6000815190506200048c8162000ed4565b92915050565b600081519050620004a38162000eee565b92915050565b600081519050620004ba8162000eff565b92915050565b600060c08284031215620004d357600080fd5b620004df60c062000b10565b90506000620004f184828501620001c6565b600083015250602082015167ffffffffffffffff8111156200051257600080fd5b620005208482850162000408565b60208301525060406200053684828501620004a9565b60408301525060606200054c8482850162000492565b606083015250608062000562848285016200061f565b60808301525060a06200057884828501620003f1565b60a08301525092915050565b6000606082840312156200059757600080fd5b620005a3606062000b10565b9050600082015167ffffffffffffffff811115620005c057600080fd5b620005ce84828501620001dd565b600083015250602082015167ffffffffffffffff811115620005ef57600080fd5b620005fd84828501620002f7565b602083015250604062000613848285016200061f565b60408301525092915050565b600081519050620006308162000f10565b92915050565b600080600080608085870312156200064d57600080fd5b60006200065d87828801620001c6565b945050602085015167ffffffffffffffff8111156200067b57600080fd5b62000689878288016200026a565b935050604085015167ffffffffffffffff811115620006a757600080fd5b620006b58782880162000374565b9250506060620006c887828801620001c6565b91505092959194509250565b6000620006e283836200097e565b60208301905092915050565b6000620006fc83836200098f565b60208301905092915050565b6000620007168383620009c2565b905092915050565b60006200072c838362000a57565b905092915050565b6200073f8162000d0f565b82525050565b620007508162000d0f565b82525050565b6000620007638262000c4f565b6200076f818562000cba565b93506200077c8362000c0f565b8060005b83811015620007b3578151620007978882620006d4565b9750620007a48362000c86565b92505060018101905062000780565b5085935050505092915050565b6000620007cd8262000c5a565b620007d9818562000ccb565b9350620007e68362000c1f565b8060005b838110156200081d578151620008018882620006ee565b97506200080e8362000c93565b925050600181019050620007ea565b5085935050505092915050565b6000620008378262000c65565b62000843818562000cdc565b935083602082028501620008578562000c2f565b8060005b8581101562000899578484038952815162000877858262000708565b9450620008848362000ca0565b925060208a019950506001810190506200085b565b50829750879550505050505092915050565b6000620008b88262000c70565b620008c4818562000ced565b935083602082028501620008d88562000c3f565b8060005b858110156200091a5784840389528151620008f885826200071e565b9450620009058362000cad565b925060208a01995050600181019050620008dc565b50829750879550505050505092915050565b620009378162000d23565b82525050565b60006200094a8262000c7b565b62000956818562000cfe565b93506200096881856020860162000e23565b620009738162000e59565b840191505092915050565b620009898162000dab565b82525050565b6200099a8162000dd3565b82525050565b620009ab8162000dfb565b82525050565b620009bc8162000e0f565b82525050565b600060c083016000830151620009dc600086018262000734565b5060208301518482036020860152620009f682826200093d565b915050604083015162000a0d6040860182620009b1565b50606083015162000a226060860182620009a0565b50608083015162000a37608086018262000ab4565b5060a083015162000a4c60a08601826200092c565b508091505092915050565b6000606083016000830151848203600086015262000a76828262000756565b9150506020830151848203602086015262000a9282826200082a565b915050604083015162000aa9604086018262000ab4565b508091505092915050565b62000abf8162000da1565b82525050565b600060608201905062000adc600083018662000745565b818103602083015262000af08185620008ab565b9050818103604083015262000b068184620007c0565b9050949350505050565b6000604051905081810181811067ffffffffffffffff8211171562000b3457600080fd5b8060405250919050565b600067ffffffffffffffff82111562000b5657600080fd5b602082029050602081019050919050565b600067ffffffffffffffff82111562000b7f57600080fd5b602082029050602081019050919050565b600067ffffffffffffffff82111562000ba857600080fd5b602082029050602081019050919050565b600067ffffffffffffffff82111562000bd157600080fd5b602082029050602081019050919050565b600067ffffffffffffffff82111562000bfa57600080fd5b601f19601f8301169050602081019050919050565b6000819050602082019050919050565b6000819050602082019050919050565b6000819050602082019050919050565b6000819050602082019050919050565b600081519050919050565b600081519050919050565b600081519050919050565b600081519050919050565b600081519050919050565b6000602082019050919050565b6000602082019050919050565b6000602082019050919050565b6000602082019050919050565b600082825260208201905092915050565b600082825260208201905092915050565b600082825260208201905092915050565b600082825260208201905092915050565b600082825260208201905092915050565b600062000d1c8262000d81565b9050919050565b60008115159050919050565b600062000d3c8262000d0f565b9050919050565b600062000d508262000d0f565b9050919050565b600081905062000d678262000e6a565b919050565b600081905062000d7c8262000e78565b919050565b600073ffffffffffffffffffffffffffffffffffffffff82169050919050565b6000819050919050565b600062000db88262000dbf565b9050919050565b600062000dcc8262000d81565b9050919050565b600062000de08262000de7565b9050919050565b600062000df48262000d81565b9050919050565b600062000e088262000d57565b9050919050565b600062000e1c8262000d6c565b9050919050565b60005b8381101562000e4357808201518184015260208101905062000e26565b8381111562000e53576000848401525b50505050565b6000601f19601f8301169050919050565b6004811062000e7557fe5b50565b6002811062000e8357fe5b50565b62000e918162000d0f565b811462000e9d57600080fd5b50565b62000eab8162000d23565b811462000eb757600080fd5b50565b62000ec58162000d2f565b811462000ed157600080fd5b50565b62000edf8162000d43565b811462000eeb57600080fd5b50565b6004811062000efc57600080fd5b50565b6002811062000f0d57600080fd5b50565b62000f1b8162000da1565b811462000f2757600080fd5b50565b61268b8062000f3a6000396000f3fe6080604052600436106100e15760003560e01c80638da5cb5b1161007f578063f2fde38b11610059578063f2fde38b1461024d578063fc3e5f5714610276578063fe861b991461029f578063ff92b1a8146102ca576100e8565b80638da5cb5b146101ce5780638f32d59b146101f9578063b348e26814610224576100e8565b8063715018a6116100bb578063715018a614610149578063744bfe61146101605780637bad2d061461017c5780637c3ceda4146101a5576100e8565b806302526490146100ed57806317b33308146101165780631f0d8c1614610120576100e8565b366100e857005b600080fd5b3480156100f957600080fd5b50610114600480360381019061010f9190611611565b6102f3565b005b61011e6103d3565b005b34801561012c57600080fd5b5061014760048036038101906101429190611566565b610463565b005b34801561015557600080fd5b5061015e61055e565b005b61017a6004803603810190610175919061171c565b610664565b005b34801561018857600080fd5b506101a3600480360381019061019e91906115d0565b61078a565b005b3480156101b157600080fd5b506101cc60048036038101906101c7919061158f565b610861565b005b3480156101da57600080fd5b506101e3610938565b6040516101f09190611f47565b60405180910390f35b34801561020557600080fd5b5061020e610961565b60405161021b9190611fc1565b60405180910390f35b34801561023057600080fd5b5061024b60048036038101906102469190611611565b6109b8565b005b34801561025957600080fd5b50610274600480360381019061026f9190611566565b610a98565b005b34801561028257600080fd5b5061029d60048036038101906102989190611566565b610aeb565b005b3480156102ab57600080fd5b506102b4610bc2565b6040516102c19190611f47565b60405180910390f35b3480156102d657600080fd5b506102f160048036038101906102ec919061168c565b610be8565b005b6102fb610961565b61033a576040517f08c379a00000000000000000000000000000000000000000000000000000000081526004016103319061205c565b60405180910390fd5b600160009054906101000a900473ffffffffffffffffffffffffffffffffffffffff1673ffffffffffffffffffffffffffffffffffffffff166302526490858585856040518563ffffffff1660e01b815260040161039b949392919061207c565b600060405180830381600087803b1580156103b557600080fd5b505af11580156103c9573d6000803e3d6000fd5b5050505050505050565b600160009054906101000a900473ffffffffffffffffffffffffffffffffffffffff1673ffffffffffffffffffffffffffffffffffffffff166328d0cad734306040518363ffffffff1660e01b815260040161042f9190611f62565b6000604051808303818588803b15801561044857600080fd5b505af115801561045c573d6000803e3d6000fd5b5050505050565b61046b610961565b6104aa576040517f08c379a00000000000000000000000000000000000000000000000000000000081526004016104a19061205c565b60405180910390fd5b600073ffffffffffffffffffffffffffffffffffffffff168173ffffffffffffffffffffffffffffffffffffffff16141561051a576040517f08c379a000000000000000000000000000000000000000000000000000000000815260040161051190611ffc565b60405180910390fd5b80600160006101000a81548173ffffffffffffffffffffffffffffffffffffffff021916908373ffffffffffffffffffffffffffffffffffffffff16021790555050565b610566610961565b6105a5576040517f08c379a000000000000000000000000000000000000000000000000000000000815260040161059c9061205c565b60405180910390fd5b600073ffffffffffffffffffffffffffffffffffffffff166000809054906101000a900473ffffffffffffffffffffffffffffffffffffffff1673ffffffffffffffffffffffffffffffffffffffff167f8be0079c531659141344cd1fd0a4f28419497f9722a3daafe3b4186f6b6457e060405160405180910390a360008060006101000a81548173ffffffffffffffffffffffffffffffffffffffff021916908373ffffffffffffffffffffffffffffffffffffffff160217905550565b61066c610961565b6106ab576040517f08c379a00000000000000000000000000000000000000000000000000000000081526004016106a29061205c565b60405180910390fd5b6000600160009054906101000a900473ffffffffffffffffffffffffffffffffffffffff1673ffffffffffffffffffffffffffffffffffffffff1663c6638a8b846040518263ffffffff1660e01b81526004016107089190612106565b602060405180830381600087803b15801561072257600080fd5b505af1158015610736573d6000803e3d6000fd5b505050506040513d601f19601f8201168201806040525081019061075a91906116f3565b9050610785818373ffffffffffffffffffffffffffffffffffffffff16610cc590919063ffffffff16565b505050565b610792610961565b6107d1576040517f08c379a00000000000000000000000000000000000000000000000000000000081526004016107c89061205c565b60405180910390fd5b600160009054906101000a900473ffffffffffffffffffffffffffffffffffffffff1673ffffffffffffffffffffffffffffffffffffffff1663413a0ed3826040518263ffffffff1660e01b815260040161082c9190611f9f565b600060405180830381600087803b15801561084657600080fd5b505af115801561085a573d6000803e3d6000fd5b5050505050565b610869610961565b6108a8576040517f08c379a000000000000000000000000000000000000000000000000000000000815260040161089f9061205c565b60405180910390fd5b600160009054906101000a900473ffffffffffffffffffffffffffffffffffffffff1673ffffffffffffffffffffffffffffffffffffffff16637c3ceda4826040518263ffffffff1660e01b81526004016109039190611f7d565b600060405180830381600087803b15801561091d57600080fd5b505af1158015610931573d6000803e3d6000fd5b5050505050565b60008060009054906101000a900473ffffffffffffffffffffffffffffffffffffffff16905090565b60008060009054906101000a900473ffffffffffffffffffffffffffffffffffffffff1673ffffffffffffffffffffffffffffffffffffffff163373ffffffffffffffffffffffffffffffffffffffff1614905090565b6109c0610961565b6109ff576040517f08c379a00000000000000000000000000000000000000000000000000000000081526004016109f69061205c565b60405180910390fd5b600160009054906101000a900473ffffffffffffffffffffffffffffffffffffffff1673ffffffffffffffffffffffffffffffffffffffff1663b348e268858585856040518563ffffffff1660e01b8152600401610a60949392919061207c565b600060405180830381600087803b158015610a7a57600080fd5b505af1158015610a8e573d6000803e3d6000fd5b5050505050505050565b610aa0610961565b610adf576040517f08c379a0000000000000000000000000000000000000000000000000000000008152600401610ad69061205c565b60405180910390fd5b610ae881610db9565b50565b610af3610961565b610b32576040517f08c379a0000000000000000000000000000000000000000000000000000000008152600401610b299061205c565b60405180910390fd5b600160009054906101000a900473ffffffffffffffffffffffffffffffffffffffff1673ffffffffffffffffffffffffffffffffffffffff166388a5e330826040518263ffffffff1660e01b8152600401610b8d9190611f47565b600060405180830381600087803b158015610ba757600080fd5b505af1158015610bbb573d6000803e3d6000fd5b5050505050565b600160009054906101000a900473ffffffffffffffffffffffffffffffffffffffff1681565b610bf0610961565b610c2f576040517f08c379a0000000000000000000000000000000000000000000000000000000008152600401610c269061205c565b60405180910390fd5b600160009054906101000a900473ffffffffffffffffffffffffffffffffffffffff1673ffffffffffffffffffffffffffffffffffffffff1663ff92b1a88484846040518463ffffffff1660e01b8152600401610c8e939291906120c8565b600060405180830381600087803b158015610ca857600080fd5b505af1158015610cbc573d6000803e3d6000fd5b50505050505050565b80471015610d08576040517f08c379a0000000000000000000000000000000000000000000000000000000008152600401610cff9061203c565b60405180910390fd5b60008273ffffffffffffffffffffffffffffffffffffffff1682604051610d2e90611f32565b60006040518083038185875af1925050503d8060008114610d6b576040519150601f19603f3d011682016040523d82523d6000602084013e610d70565b606091505b5050905080610db4576040517f08c379a0000000000000000000000000000000000000000000000000000000008152600401610dab9061201c565b60405180910390fd5b505050565b600073ffffffffffffffffffffffffffffffffffffffff168173ffffffffffffffffffffffffffffffffffffffff161415610e29576040517f08c379a0000000000000000000000000000000000000000000000000000000008152600401610e2090611fdc565b60405180910390fd5b8073ffffffffffffffffffffffffffffffffffffffff166000809054906101000a900473ffffffffffffffffffffffffffffffffffffffff1673ffffffffffffffffffffffffffffffffffffffff167f8be0079c531659141344cd1fd0a4f28419497f9722a3daafe3b4186f6b6457e060405160405180910390a3806000806101000a81548173ffffffffffffffffffffffffffffffffffffffff021916908373ffffffffffffffffffffffffffffffffffffffff16021790555050565b600081359050610ef6816125ab565b92915050565b600081359050610f0b816125c2565b92915050565b600082601f830112610f2257600080fd5b8135610f35610f308261214e565b612121565b91508181835260208401935060208101905083856020840282011115610f5a57600080fd5b60005b83811015610f8a5781610f708882611250565b845260208401935060208301925050600181019050610f5d565b5050505092915050565b600082601f830112610fa557600080fd5b8135610fb8610fb382612176565b612121565b91508181835260208401935060208101905083856020840282011115610fdd57600080fd5b60005b8381101561100d5781610ff38882611265565b845260208401935060208301925050600181019050610fe0565b5050505092915050565b600082601f83011261102857600080fd5b813561103b6110368261219e565b612121565b9150818183526020840193506020810190508360005b83811015611081578135860161106788826112a4565b845260208401935060208301925050600181019050611051565b5050505092915050565b600082601f83011261109c57600080fd5b81356110af6110aa826121c6565b612121565b9150818183526020840193506020810190508360005b838110156110f557813586016110db8882611358565b8452602084019350602083019250506001810190506110c5565b5050505092915050565b600082601f83011261111057600080fd5b813561112361111e826121ee565b612121565b9150818183526020840193506020810190508360005b83811015611169578135860161114f8882611408565b845260208401935060208301925050600181019050611139565b5050505092915050565b600082601f83011261118457600080fd5b813561119761119282612216565b612121565b9150818183526020840193506020810190508360005b838110156111dd57813586016111c38882611498565b8452602084019350602083019250506001810190506111ad565b5050505092915050565b6000813590506111f6816125d9565b92915050565b600082601f83011261120d57600080fd5b813561122061121b8261223e565b612121565b9150808252602083016020830185838301111561123c57600080fd5b61124783828461253e565b50505092915050565b60008135905061125f816125f0565b92915050565b60008135905061127481612607565b92915050565b6000813590506112898161261e565b92915050565b60008135905061129e8161262e565b92915050565b600060c082840312156112b657600080fd5b6112c060c0612121565b905060006112d084828501610ee7565b600083015250602082013567ffffffffffffffff8111156112f057600080fd5b6112fc848285016111fc565b60208301525060406113108482850161128f565b60408301525060606113248482850161127a565b60608301525060806113388482850161153c565b60808301525060a061134c848285016111e7565b60a08301525092915050565b60006040828403121561136a57600080fd5b6113746040612121565b9050600061138484828501611250565b600083015250602082013567ffffffffffffffff8111156113a457600080fd5b6113b0848285016111fc565b60208301525092915050565b6000604082840312156113ce57600080fd5b6113d86040612121565b905060006113e884828501610ee7565b60008301525060206113fc84828501611265565b60208301525092915050565b60006060828403121561141a57600080fd5b6114246060612121565b9050600082013567ffffffffffffffff81111561144057600080fd5b61144c84828501610f11565b600083015250602082013567ffffffffffffffff81111561146c57600080fd5b61147884828501611017565b602083015250604061148c8482850161153c565b60408301525092915050565b6000608082840312156114aa57600080fd5b6114b46080612121565b9050600082013567ffffffffffffffff8111156114d057600080fd5b6114dc8482850161108b565b600083015250602082013567ffffffffffffffff8111156114fc57600080fd5b61150884828501611017565b602083015250604061151c8482850161153c565b60408301525060606115308482850161153c565b60608301525092915050565b60008135905061154b8161263e565b92915050565b6000815190506115608161263e565b92915050565b60006020828403121561157857600080fd5b600061158684828501610ee7565b91505092915050565b6000602082840312156115a157600080fd5b600082013567ffffffffffffffff8111156115bb57600080fd5b6115c784828501610f94565b91505092915050565b6000602082840312156115e257600080fd5b600082013567ffffffffffffffff8111156115fc57600080fd5b611608848285016110ff565b91505092915050565b60008060008060a0858703121561162757600080fd5b6000611635878288016113bc565b945050604085013567ffffffffffffffff81111561165257600080fd5b61165e87828801611173565b935050606061166f8782880161153c565b92505060806116808782880161153c565b91505092959194509250565b6000806000608084860312156116a157600080fd5b60006116af868287016113bc565b935050604084013567ffffffffffffffff8111156116cc57600080fd5b6116d886828701611498565b92505060606116e98682870161153c565b9150509250925092565b60006020828403121561170557600080fd5b600061171384828501611551565b91505092915050565b6000806040838503121561172f57600080fd5b600061173d8582860161153c565b925050602061174e85828601610efc565b9150509250929050565b60006117648383611aec565b60208301905092915050565b600061177c8383611afb565b60208301905092915050565b60006117948383611cf4565b905092915050565b60006117a88383611d7d565b905092915050565b60006117bc8383611de9565b905092915050565b60006117d08383611e40565b905092915050565b6117e18161249c565b82525050565b6117f0816123f8565b82525050565b6117ff816123f8565b82525050565b6000611810826122ca565b61181a8185612365565b93506118258361226a565b8060005b8381101561185657815161183d8882611758565b975061184883612317565b925050600181019050611829565b5085935050505092915050565b600061186e826122d5565b6118788185612376565b93506118838361227a565b8060005b838110156118b457815161189b8882611770565b97506118a683612324565b925050600181019050611887565b5085935050505092915050565b60006118cc826122e0565b6118d68185612387565b9350836020820285016118e88561228a565b8060005b8581101561192457848403895281516119058582611788565b945061191083612331565b925060208a019950506001810190506118ec565b50829750879550505050505092915050565b6000611941826122eb565b61194b8185612398565b93508360208202850161195d8561229a565b8060005b85811015611999578484038952815161197a858261179c565b94506119858361233e565b925060208a01995050600181019050611961565b50829750879550505050505092915050565b60006119b6826122f6565b6119c081856123a9565b9350836020820285016119d2856122aa565b8060005b85811015611a0e57848403895281516119ef85826117b0565b94506119fa8361234b565b925060208a019950506001810190506119d6565b50829750879550505050505092915050565b6000611a2b82612301565b611a3581856123ba565b935083602082028501611a47856122ba565b8060005b85811015611a835784840389528151611a6485826117c4565b9450611a6f83612358565b925060208a01995050600181019050611a4b565b50829750879550505050505092915050565b611a9e8161241c565b82525050565b611aad8161241c565b82525050565b6000611abe8261230c565b611ac881856123cb565b9350611ad881856020860161254d565b611ae181612580565b840191505092915050565b611af5816124ae565b82525050565b611b04816124d2565b82525050565b611b13816124f6565b82525050565b611b2281612508565b82525050565b6000611b356026836123e7565b91507f4f776e61626c653a206e6577206f776e657220697320746865207a65726f206160008301527f64647265737300000000000000000000000000000000000000000000000000006020830152604082019050919050565b6000611b9b6022836123e7565b91507f47656c61746f436f72653a2043616e6e6f742062652041646472657373205a6560008301527f726f0000000000000000000000000000000000000000000000000000000000006020830152604082019050919050565b6000611c01603a836123e7565b91507f416464726573733a20756e61626c6520746f2073656e642076616c75652c207260008301527f6563697069656e74206d617920686176652072657665727465640000000000006020830152604082019050919050565b6000611c67601d836123e7565b91507f416464726573733a20696e73756666696369656e742062616c616e63650000006000830152602082019050919050565b6000611ca76020836123e7565b91507f4f776e61626c653a2063616c6c6572206973206e6f7420746865206f776e65726000830152602082019050919050565b6000611ce76000836123dc565b9150600082019050919050565b600060c083016000830151611d0c60008601826117e7565b5060208301518482036020860152611d248282611ab3565b9150506040830151611d396040860182611b19565b506060830151611d4c6060860182611b0a565b506080830151611d5f6080860182611f14565b5060a0830151611d7260a0860182611a95565b508091505092915050565b6000604083016000830151611d956000860182611aec565b5060208301518482036020860152611dad8282611ab3565b9150508091505092915050565b604082016000820151611dd060008501826117e7565b506020820151611de36020850182611afb565b50505050565b60006060830160008301518482036000860152611e068282611805565b91505060208301518482036020860152611e2082826118c1565b9150506040830151611e356040860182611f14565b508091505092915050565b60006080830160008301518482036000860152611e5d8282611936565b91505060208301518482036020860152611e7782826118c1565b9150506040830151611e8c6040860182611f14565b506060830151611e9f6060860182611f14565b508091505092915050565b60006080830160008301518482036000860152611ec78282611936565b91505060208301518482036020860152611ee182826118c1565b9150506040830151611ef66040860182611f14565b506060830151611f096060860182611f14565b508091505092915050565b611f1d81612492565b82525050565b611f2c81612492565b82525050565b6000611f3d82611cda565b9150819050919050565b6000602082019050611f5c60008301846117f6565b92915050565b6000602082019050611f7760008301846117d8565b92915050565b60006020820190508181036000830152611f978184611863565b905092915050565b60006020820190508181036000830152611fb981846119ab565b905092915050565b6000602082019050611fd66000830184611aa4565b92915050565b60006020820190508181036000830152611ff581611b28565b9050919050565b6000602082019050818103600083015261201581611b8e565b9050919050565b6000602082019050818103600083015261203581611bf4565b9050919050565b6000602082019050818103600083015261205581611c5a565b9050919050565b6000602082019050818103600083015261207581611c9a565b9050919050565b600060a0820190506120916000830187611dba565b81810360408301526120a38186611a20565b90506120b26060830185611f23565b6120bf6080830184611f23565b95945050505050565b60006080820190506120dd6000830186611dba565b81810360408301526120ef8185611eaa565b90506120fe6060830184611f23565b949350505050565b600060208201905061211b6000830184611f23565b92915050565b6000604051905081810181811067ffffffffffffffff8211171561214457600080fd5b8060405250919050565b600067ffffffffffffffff82111561216557600080fd5b602082029050602081019050919050565b600067ffffffffffffffff82111561218d57600080fd5b602082029050602081019050919050565b600067ffffffffffffffff8211156121b557600080fd5b602082029050602081019050919050565b600067ffffffffffffffff8211156121dd57600080fd5b602082029050602081019050919050565b600067ffffffffffffffff82111561220557600080fd5b602082029050602081019050919050565b600067ffffffffffffffff82111561222d57600080fd5b602082029050602081019050919050565b600067ffffffffffffffff82111561225557600080fd5b601f19601f8301169050602081019050919050565b6000819050602082019050919050565b6000819050602082019050919050565b6000819050602082019050919050565b6000819050602082019050919050565b6000819050602082019050919050565b6000819050602082019050919050565b600081519050919050565b600081519050919050565b600081519050919050565b600081519050919050565b600081519050919050565b600081519050919050565b600081519050919050565b6000602082019050919050565b6000602082019050919050565b6000602082019050919050565b6000602082019050919050565b6000602082019050919050565b6000602082019050919050565b600082825260208201905092915050565b600082825260208201905092915050565b600082825260208201905092915050565b600082825260208201905092915050565b600082825260208201905092915050565b600082825260208201905092915050565b600082825260208201905092915050565b600081905092915050565b600082825260208201905092915050565b600061240382612472565b9050919050565b600061241582612472565b9050919050565b60008115159050919050565b6000612433826123f8565b9050919050565b6000612445826123f8565b9050919050565b600081905061245a82612591565b919050565b600081905061246d8261259e565b919050565b600073ffffffffffffffffffffffffffffffffffffffff82169050919050565b6000819050919050565b60006124a78261251a565b9050919050565b60006124b9826124c0565b9050919050565b60006124cb82612472565b9050919050565b60006124dd826124e4565b9050919050565b60006124ef82612472565b9050919050565b60006125018261244c565b9050919050565b60006125138261245f565b9050919050565b60006125258261252c565b9050919050565b600061253782612472565b9050919050565b82818337600083830152505050565b60005b8381101561256b578082015181840152602081019050612550565b8381111561257a576000848401525b50505050565b6000601f19601f8301169050919050565b6004811061259b57fe5b50565b600281106125a857fe5b50565b6125b4816123f8565b81146125bf57600080fd5b50565b6125cb8161240a565b81146125d657600080fd5b50565b6125e28161241c565b81146125ed57600080fd5b50565b6125f981612428565b811461260457600080fd5b50565b6126108161243a565b811461261b57600080fd5b50565b6004811061262b57600080fd5b50565b6002811061263b57600080fd5b50565b61264781612492565b811461265257600080fd5b5056fea2646970667358221220acb5890323c9edc2003d7e90272c0994bb951e37018f73c507cc7fbccbd428d764736f6c634300060a0033",
  "linkReferences": {},
  "deployedLinkReferences": {}
}