{
  "_format": "hh-sol-artifact-1",
  "contractName": "GelatoActionPipeline",
  "sourceName": "contracts/actions/GelatoActionPipeline.sol",
  "abi": [
    {
      "inputs": [],
      "stateMutability": "nonpayable",
      "type": "constructor"
    },
    {
      "inputs": [
        {
          "components": [
            {
              "internalType": "address",
              "name": "addr",
              "type": "address"
            },
            {
              "internalType": "bytes",
              "name": "data",
              "type": "bytes"
            },
            {
              "internalType": "enum Operation",
              "name": "operation",
              "type": "uint8"
            },
            {
              "internalType": "enum DataFlow",
              "name": "dataFlow",
              "type": "uint8"
            },
            {
              "internalType": "uint256",
              "name": "value",
              "type": "uint256"
            },
            {
              "internalType": "bool",
              "name": "termsOkCheck",
              "type": "bool"
            }
          ],
          "internalType": "struct Action[]",
          "name": "_actions",
          "type": "tuple[]"
        }
      ],
      "name": "execActionsAndPipeData",
      "outputs": [],
      "stateMutability": "nonpayable",
      "type": "function"
    },
    {
      "inputs": [
        {
          "components": [
            {
              "internalType": "address",
              "name": "addr",
              "type": "address"
            },
            {
              "internalType": "bytes",
              "name": "data",
              "type": "bytes"
            },
            {
              "internalType": "enum Operation",
              "name": "operation",
              "type": "uint8"
            },
            {
              "internalType": "enum DataFlow",
              "name": "dataFlow",
              "type": "uint8"
            },
            {
              "internalType": "uint256",
              "name": "value",
              "type": "uint256"
            },
            {
              "internalType": "bool",
              "name": "termsOkCheck",
              "type": "bool"
            }
          ],
          "internalType": "struct Action[]",
          "name": "_actions",
          "type": "tuple[]"
        }
      ],
      "name": "isValid",
      "outputs": [
        {
          "internalType": "bool",
          "name": "ok",
          "type": "bool"
        },
        {
          "internalType": "uint256",
          "name": "outActionIndex",
          "type": "uint256"
        },
        {
          "internalType": "uint256",
          "name": "inActionIndex",
          "type": "uint256"
        },
        {
          "internalType": "bytes32",
          "name": "currentOutflowType",
          "type": "bytes32"
        },
        {
          "internalType": "bytes32",
          "name": "nextInflowType",
          "type": "bytes32"
        }
      ],
      "stateMutability": "pure",
      "type": "function"
    },
    {
      "inputs": [],
      "name": "thisActionAddress",
      "outputs": [
        {
          "internalType": "address",
          "name": "",
          "type": "address"
        }
      ],
      "stateMutability": "view",
      "type": "function"
    }
  ],
  "bytecode": "0x60a060405234801561001057600080fd5b503073ffffffffffffffffffffffffffffffffffffffff1660808173ffffffffffffffffffffffffffffffffffffffff1660601b8152505060805160601c6116db61006a6000398061042a528061046552506116db6000f3fe608060405234801561001057600080fd5b50600436106100415760003560e01c806355abefbc146100465780637b9b93481461007a578063f69df28814610098575b600080fd5b610060600480360381019061005b9190610e22565b6100b4565b604051610071959493929190611312565b60405180910390f35b610082610428565b60405161008f91906112f7565b60405180910390f35b6100b260048036038101906100ad9190610e22565b61044c565b005b60008060008060006001945060008090505b8787905081101561041d57600160038111156100de57fe5b8888838181106100ea57fe5b90506020028101906100fc91906114bb565b606001602081019061010e9190610ed1565b600381111561011957fe5b1480610169575060038081111561012c57fe5b88888381811061013857fe5b905060200281019061014a91906114bb565b606001602081019061015c9190610ed1565b600381111561016757fe5b145b156102705787878281811061017a57fe5b905060200281019061018c91906114bb565b600001602081019061019e9190610df9565b73ffffffffffffffffffffffffffffffffffffffff1663ca0090ac6040518163ffffffff1660e01b815260040160206040518083038186803b1580156101e357600080fd5b505afa92505050801561021457506040513d601f19601f820116820180604052508101906102119190610e67565b60015b610253576040517f08c379a000000000000000000000000000000000000000000000000000000000815260040161024a906113e4565b60405180910390fd5b83811461026a57809250819450600096505061041d565b60019650505b6002600381111561027d57fe5b88888381811061028957fe5b905060200281019061029b91906114bb565b60600160208101906102ad9190610ed1565b60038111156102b857fe5b148061030857506003808111156102cb57fe5b8888838181106102d757fe5b90506020028101906102e991906114bb565b60600160208101906102fb9190610ed1565b600381111561030657fe5b145b156104105760001515861515141561031f5761041d565b87878281811061032b57fe5b905060200281019061033d91906114bb565b600001602081019061034f9190610df9565b73ffffffffffffffffffffffffffffffffffffffff1663bdd85b966040518163ffffffff1660e01b815260040160206040518083038186803b15801561039457600080fd5b505afa9250505080156103c557506040513d601f19601f820116820180604052508101906103c29190610e67565b60015b610404576040517f08c379a00000000000000000000000000000000000000000000000000000000081526004016103fb90611404565b60405180910390fd5b80935081955060009650505b80806001019150506100c6565b509295509295909350565b7f000000000000000000000000000000000000000000000000000000000000000081565b3073ffffffffffffffffffffffffffffffffffffffff167f000000000000000000000000000000000000000000000000000000000000000073ffffffffffffffffffffffffffffffffffffffff1614156104db576040517f08c379a00000000000000000000000000000000000000000000000000000000081526004016104d290611444565b60405180910390fd5b606060008090505b83839050811015610b9a57600073ffffffffffffffffffffffffffffffffffffffff1684848381811061051257fe5b905060200281019061052491906114bb565b60000160208101906105369190610df9565b73ffffffffffffffffffffffffffffffffffffffff16141561058d576040517f08c379a000000000000000000000000000000000000000000000000000000000815260040161058490611424565b60405180910390fd5b60606001600381111561059c57fe5b8585848181106105a857fe5b90506020028101906105ba91906114bb565b60600160208101906105cc9190610ed1565b60038111156105d757fe5b14156106895763a7f3a27360e01b8585848181106105f157fe5b905060200281019061060391906114bb565b80602001906106129190611464565b8560405160240161062593929190611389565b604051602081830303815290604052907bffffffffffffffffffffffffffffffffffffffffffffffffffffffff19166020820180517bffffffffffffffffffffffffffffffffffffffffffffffffffffffff838183161783525050505090506108ef565b6002600381111561069657fe5b8585848181106106a257fe5b90506020028101906106b491906114bb565b60600160208101906106c69190610ed1565b60038111156106d157fe5b14156107815763a6ba9bc660e01b8585848181106106eb57fe5b90506020028101906106fd91906114bb565b806020019061070c9190611464565b60405160240161071d929190611365565b604051602081830303815290604052907bffffffffffffffffffffffffffffffffffffffffffffffffffffffff19166020820180517bffffffffffffffffffffffffffffffffffffffffffffffffffffffff838183161783525050505090506108ee565b60038081111561078d57fe5b85858481811061079957fe5b90506020028101906107ab91906114bb565b60600160208101906107bd9190610ed1565b60038111156107c857fe5b141561087a576350c4adfd60e01b8585848181106107e257fe5b90506020028101906107f491906114bb565b80602001906108039190611464565b8560405160240161081693929190611389565b604051602081830303815290604052907bffffffffffffffffffffffffffffffffffffffffffffffffffffffff19166020820180517bffffffffffffffffffffffffffffffffffffffffffffffffffffffff838183161783525050505090506108ed565b84848381811061088657fe5b905060200281019061089891906114bb565b80602001906108a79190611464565b8080601f016020809104026020016040519081016040528093929190818152602001838380828437600081840152601f19601f8201169050808301925050505050505090505b5b5b600060606000600181111561090057fe5b87878681811061090c57fe5b905060200281019061091e91906114bb565b60400160208101906109309190610efa565b600181111561093b57fe5b1415610a075786868581811061094d57fe5b905060200281019061095f91906114bb565b60000160208101906109719190610df9565b73ffffffffffffffffffffffffffffffffffffffff1687878681811061099357fe5b90506020028101906109a591906114bb565b60800135846040516109b79190611278565b60006040518083038185875af1925050503d80600081146109f4576040519150601f19603f3d011682016040523d82523d6000602084013e6109f9565b606091505b508092508193505050610aa5565b868685818110610a1357fe5b9050602002810190610a2591906114bb565b6000016020810190610a379190610df9565b73ffffffffffffffffffffffffffffffffffffffff1683604051610a5b9190611278565b600060405180830381855af49150503d8060008114610a96576040519150601f19603f3d011682016040523d82523d6000602084013e610a9b565b606091505b5080925081935050505b81610ad657610ad56040518060600160405280602c815260200161167a602c913982610ba090919063ffffffff16565b5b60026003811115610ae357fe5b878786818110610aef57fe5b9050602002810190610b0191906114bb565b6060016020810190610b139190610ed1565b6003811115610b1e57fe5b1480610b6e5750600380811115610b3157fe5b878786818110610b3d57fe5b9050602002810190610b4f91906114bb565b6060016020810190610b619190610ed1565b6003811115610b6c57fe5b145b15610b8a5780806020019051810190610b879190610e90565b94505b50505080806001019150506104e3565b50505050565b60046020835181610bad57fe5b061415610cab576000826020015190506308c379a060e01b817bffffffffffffffffffffffffffffffffffffffffffffffffffffffff19161415610c4f576044830192508183604051602001610c0492919061128f565b6040516020818303038152906040526040517f08c379a0000000000000000000000000000000000000000000000000000000008152600401610c4691906113c2565b60405180910390fd5b81604051602001610c6091906112b3565b6040516020818303038152906040526040517f08c379a0000000000000000000000000000000000000000000000000000000008152600401610ca291906113c2565b60405180910390fd5b80604051602001610cbc91906112d5565b6040516020818303038152906040526040517f08c379a0000000000000000000000000000000000000000000000000000000008152600401610cfe91906113c2565b60405180910390fd5b600081359050610d168161162b565b92915050565b60008083601f840112610d2e57600080fd5b8235905067ffffffffffffffff811115610d4757600080fd5b602083019150836020820283011115610d5f57600080fd5b9250929050565b600081519050610d7581611642565b92915050565b600082601f830112610d8c57600080fd5b8151610d9f610d9a8261150c565b6114df565b91508082526020830160208301858383011115610dbb57600080fd5b610dc68382846115e7565b50505092915050565b600081359050610dde81611659565b92915050565b600081359050610df381611669565b92915050565b600060208284031215610e0b57600080fd5b6000610e1984828501610d07565b91505092915050565b60008060208385031215610e3557600080fd5b600083013567ffffffffffffffff811115610e4f57600080fd5b610e5b85828601610d1c565b92509250509250929050565b600060208284031215610e7957600080fd5b6000610e8784828501610d66565b91505092915050565b600060208284031215610ea257600080fd5b600082015167ffffffffffffffff811115610ebc57600080fd5b610ec884828501610d7b565b91505092915050565b600060208284031215610ee357600080fd5b6000610ef184828501610dcf565b91505092915050565b600060208284031215610f0c57600080fd5b6000610f1a84828501610de4565b91505092915050565b610f2c81611586565b82525050565b610f3b81611598565b82525050565b610f4a816115a4565b82525050565b6000610f5c838561154e565b9350610f698385846115d8565b610f728361161a565b840190509392505050565b6000610f8882611538565b610f92818561154e565b9350610fa28185602086016115e7565b610fab8161161a565b840191505092915050565b6000610fc182611538565b610fcb818561155f565b9350610fdb8185602086016115e7565b80840191505092915050565b6000610ff282611543565b610ffc818561156a565b935061100c8185602086016115e7565b6110158161161a565b840191505092915050565b600061102b82611543565b611035818561157b565b93506110458185602086016115e7565b80840191505092915050565b600061105e60358361156a565b91507f47656c61746f416374696f6e506970656c696e652e697356616c69643a20657260008301527f726f7220444154415f464c4f575f494e5f5459504500000000000000000000006020830152604082019050919050565b60006110c460368361156a565b91507f47656c61746f416374696f6e506970656c696e652e697356616c69643a20657260008301527f726f7220444154415f464c4f575f4f55545f54595045000000000000000000006020830152604082019050919050565b600061112a600f8361157b565b91507f4e6f4572726f7253656c6563746f7200000000000000000000000000000000006000830152600f82019050919050565b600061116a60228361156a565b91507f47656c61746f416374696f6e506970656c696e652e6e6f5a65726f416464726560008301527f73730000000000000000000000000000000000000000000000000000000000006020830152604082019050919050565b60006111d060258361156a565b91507f47656c61746f416374696f6e506970656c696e652e64656c656761746563616c60008301527f6c4f6e6c790000000000000000000000000000000000000000000000000000006020830152604082019050919050565b600061123660148361157b565b91507f556e657870656374656452657475726e646174610000000000000000000000006000830152601482019050919050565b611272816115ce565b82525050565b60006112848284610fb6565b915081905092915050565b600061129b8285611020565b91506112a78284611020565b91508190509392505050565b60006112bf8284611020565b91506112ca8261111d565b915081905092915050565b60006112e18284611020565b91506112ec82611229565b915081905092915050565b600060208201905061130c6000830184610f23565b92915050565b600060a0820190506113276000830188610f32565b6113346020830187611269565b6113416040830186611269565b61134e6060830185610f41565b61135b6080830184610f41565b9695505050505050565b60006020820190508181036000830152611380818486610f50565b90509392505050565b600060408201905081810360008301526113a4818587610f50565b905081810360208301526113b88184610f7d565b9050949350505050565b600060208201905081810360008301526113dc8184610fe7565b905092915050565b600060208201905081810360008301526113fd81611051565b9050919050565b6000602082019050818103600083015261141d816110b7565b9050919050565b6000602082019050818103600083015261143d8161115d565b9050919050565b6000602082019050818103600083015261145d816111c3565b9050919050565b6000808335600160200384360303811261147d57600080fd5b80840192508235915067ffffffffffffffff82111561149b57600080fd5b6020830192506001820236038313156114b357600080fd5b509250929050565b60008235600160c0038336030381126114d357600080fd5b80830191505092915050565b6000604051905081810181811067ffffffffffffffff8211171561150257600080fd5b8060405250919050565b600067ffffffffffffffff82111561152357600080fd5b601f19601f8301169050602081019050919050565b600081519050919050565b600081519050919050565b600082825260208201905092915050565b600081905092915050565b600082825260208201905092915050565b600081905092915050565b6000611591826115ae565b9050919050565b60008115159050919050565b6000819050919050565b600073ffffffffffffffffffffffffffffffffffffffff82169050919050565b6000819050919050565b82818337600083830152505050565b60005b838110156116055780820151818401526020810190506115ea565b83811115611614576000848401525b50505050565b6000601f19601f8301169050919050565b61163481611586565b811461163f57600080fd5b50565b61164b816115a4565b811461165657600080fd5b50565b6004811061166657600080fd5b50565b6002811061167657600080fd5b5056fe47656c61746f416374696f6e506970656c696e652e65786563416374696f6e73416e6450697065446174613aa26469706673582212205dccb09263c3f37e45e514f034c85577a313a860743fc87d47f358ecf7af456564736f6c634300060a0033",
  "linkReferences": {},
  "deployedLinkReferences": {}
}