{
  "_format": "hh-sol-artifact-1",
  "contractName": "GelatoCore",
  "sourceName": "contracts/gelato_core/GelatoCore.sol",
  "abi": [
    {
      "inputs": [
        {
          "components": [
            {
              "internalType": "address",
              "name": "gelatoGasPriceOracle",
              "type": "address"
            },
            {
              "internalType": "bytes",
              "name": "oracleRequestData",
              "type": "bytes"
            },
            {
              "internalType": "uint256",
              "name": "gelatoMaxGas",
              "type": "uint256"
            },
            {
              "internalType": "uint256",
              "name": "internalGasRequirement",
              "type": "uint256"
            },
            {
              "internalType": "uint256",
              "name": "minExecutorStake",
              "type": "uint256"
            },
            {
              "internalType": "uint256",
              "name": "executorSuccessShare",
              "type": "uint256"
            },
            {
              "internalType": "uint256",
              "name": "sysAdminSuccessShare",
              "type": "uint256"
            },
            {
              "internalType": "uint256",
              "name": "totalSuccessShare",
              "type": "uint256"
            }
          ],
          "internalType": "struct IGelatoSysAdmin.GelatoSysAdminInitialState",
          "name": "_",
          "type": "tuple"
        }
      ],
      "stateMutability": "nonpayable",
      "type": "constructor"
    },
    {
      "anonymous": false,
      "inputs": [
        {
          "indexed": true,
          "internalType": "address",
          "name": "executor",
          "type": "address"
        },
        {
          "indexed": true,
          "internalType": "uint256",
          "name": "taskReceiptId",
          "type": "uint256"
        },
        {
          "indexed": false,
          "internalType": "string",
          "name": "reason",
          "type": "string"
        }
      ],
      "name": "LogCanExecFailed",
      "type": "event"
    },
    {
      "anonymous": false,
      "inputs": [
        {
          "indexed": true,
          "internalType": "address",
          "name": "executor",
          "type": "address"
        },
        {
          "indexed": true,
          "internalType": "uint256",
          "name": "taskReceiptId",
          "type": "uint256"
        },
        {
          "indexed": false,
          "internalType": "uint256",
          "name": "executorRefund",
          "type": "uint256"
        },
        {
          "indexed": false,
          "internalType": "string",
          "name": "reason",
          "type": "string"
        }
      ],
      "name": "LogExecReverted",
      "type": "event"
    },
    {
      "anonymous": false,
      "inputs": [
        {
          "indexed": true,
          "internalType": "address",
          "name": "executor",
          "type": "address"
        },
        {
          "indexed": true,
          "internalType": "uint256",
          "name": "taskReceiptId",
          "type": "uint256"
        },
        {
          "indexed": false,
          "internalType": "uint256",
          "name": "executorSuccessFee",
          "type": "uint256"
        },
        {
          "indexed": false,
          "internalType": "uint256",
          "name": "sysAdminSuccessFee",
          "type": "uint256"
        }
      ],
      "name": "LogExecSuccess",
      "type": "event"
    },
    {
      "anonymous": false,
      "inputs": [
        {
          "indexed": true,
          "internalType": "address",
          "name": "provider",
          "type": "address"
        },
        {
          "indexed": true,
          "internalType": "address",
          "name": "oldExecutor",
          "type": "address"
        },
        {
          "indexed": true,
          "internalType": "address",
          "name": "newExecutor",
          "type": "address"
        }
      ],
      "name": "LogExecutorAssignedExecutor",
      "type": "event"
    },
    {
      "anonymous": false,
      "inputs": [
        {
          "indexed": true,
          "internalType": "address",
          "name": "executor",
          "type": "address"
        },
        {
          "indexed": false,
          "internalType": "uint256",
          "name": "withdrawAmount",
          "type": "uint256"
        }
      ],
      "name": "LogExecutorBalanceWithdrawn",
      "type": "event"
    },
    {
      "anonymous": false,
      "inputs": [
        {
          "indexed": true,
          "internalType": "address",
          "name": "executor",
          "type": "address"
        },
        {
          "indexed": false,
          "internalType": "uint256",
          "name": "oldStake",
          "type": "uint256"
        },
        {
          "indexed": false,
          "internalType": "uint256",
          "name": "newStake",
          "type": "uint256"
        }
      ],
      "name": "LogExecutorStaked",
      "type": "event"
    },
    {
      "anonymous": false,
      "inputs": [
        {
          "indexed": false,
          "internalType": "uint256",
          "name": "oldShare",
          "type": "uint256"
        },
        {
          "indexed": false,
          "internalType": "uint256",
          "name": "newShare",
          "type": "uint256"
        },
        {
          "indexed": false,
          "internalType": "uint256",
          "name": "total",
          "type": "uint256"
        }
      ],
      "name": "LogExecutorSuccessShareSet",
      "type": "event"
    },
    {
      "anonymous": false,
      "inputs": [
        {
          "indexed": true,
          "internalType": "address",
          "name": "executor",
          "type": "address"
        }
      ],
      "name": "LogExecutorUnstaked",
      "type": "event"
    },
    {
      "anonymous": false,
      "inputs": [
        {
          "indexed": true,
          "internalType": "address",
          "name": "provider",
          "type": "address"
        },
        {
          "indexed": false,
          "internalType": "uint256",
          "name": "amount",
          "type": "uint256"
        },
        {
          "indexed": false,
          "internalType": "uint256",
          "name": "newProviderFunds",
          "type": "uint256"
        }
      ],
      "name": "LogFundsProvided",
      "type": "event"
    },
    {
      "anonymous": false,
      "inputs": [
        {
          "indexed": true,
          "internalType": "address",
          "name": "provider",
          "type": "address"
        },
        {
          "indexed": false,
          "internalType": "uint256",
          "name": "realWithdrawAmount",
          "type": "uint256"
        },
        {
          "indexed": false,
          "internalType": "uint256",
          "name": "newProviderFunds",
          "type": "uint256"
        }
      ],
      "name": "LogFundsUnprovided",
      "type": "event"
    },
    {
      "anonymous": false,
      "inputs": [
        {
          "indexed": true,
          "internalType": "address",
          "name": "oldOracle",
          "type": "address"
        },
        {
          "indexed": true,
          "internalType": "address",
          "name": "newOracle",
          "type": "address"
        }
      ],
      "name": "LogGelatoGasPriceOracleSet",
      "type": "event"
    },
    {
      "anonymous": false,
      "inputs": [
        {
          "indexed": false,
          "internalType": "uint256",
          "name": "oldMaxGas",
          "type": "uint256"
        },
        {
          "indexed": false,
          "internalType": "uint256",
          "name": "newMaxGas",
          "type": "uint256"
        }
      ],
      "name": "LogGelatoMaxGasSet",
      "type": "event"
    },
    {
      "anonymous": false,
      "inputs": [
        {
          "indexed": false,
          "internalType": "uint256",
          "name": "oldRequirment",
          "type": "uint256"
        },
        {
          "indexed": false,
          "internalType": "uint256",
          "name": "newRequirment",
          "type": "uint256"
        }
      ],
      "name": "LogInternalGasRequirementSet",
      "type": "event"
    },
    {
      "anonymous": false,
      "inputs": [
        {
          "indexed": false,
          "internalType": "uint256",
          "name": "oldMin",
          "type": "uint256"
        },
        {
          "indexed": false,
          "internalType": "uint256",
          "name": "newMin",
          "type": "uint256"
        }
      ],
      "name": "LogMinExecutorStakeSet",
      "type": "event"
    },
    {
      "anonymous": false,
      "inputs": [
        {
          "indexed": false,
          "internalType": "bytes",
          "name": "oldData",
          "type": "bytes"
        },
        {
          "indexed": false,
          "internalType": "bytes",
          "name": "newData",
          "type": "bytes"
        }
      ],
      "name": "LogOracleRequestDataSet",
      "type": "event"
    },
    {
      "anonymous": false,
      "inputs": [
        {
          "indexed": true,
          "internalType": "address",
          "name": "provider",
          "type": "address"
        },
        {
          "indexed": true,
          "internalType": "address",
          "name": "oldExecutor",
          "type": "address"
        },
        {
          "indexed": true,
          "internalType": "address",
          "name": "newExecutor",
          "type": "address"
        }
      ],
      "name": "LogProviderAssignedExecutor",
      "type": "event"
    },
    {
      "anonymous": false,
      "inputs": [
        {
          "indexed": true,
          "internalType": "address",
          "name": "provider",
          "type": "address"
        },
        {
          "indexed": true,
          "internalType": "contract IGelatoProviderModule",
          "name": "module",
          "type": "address"
        }
      ],
      "name": "LogProviderModuleAdded",
      "type": "event"
    },
    {
      "anonymous": false,
      "inputs": [
        {
          "indexed": true,
          "internalType": "address",
          "name": "provider",
          "type": "address"
        },
        {
          "indexed": true,
          "internalType": "contract IGelatoProviderModule",
          "name": "module",
          "type": "address"
        }
      ],
      "name": "LogProviderModuleRemoved",
      "type": "event"
    },
    {
      "anonymous": false,
      "inputs": [
        {
          "indexed": false,
          "internalType": "uint256",
          "name": "oldBalance",
          "type": "uint256"
        },
        {
          "indexed": false,
          "internalType": "uint256",
          "name": "newBalance",
          "type": "uint256"
        }
      ],
      "name": "LogSysAdminFundsWithdrawn",
      "type": "event"
    },
    {
      "anonymous": false,
      "inputs": [
        {
          "indexed": false,
          "internalType": "uint256",
          "name": "oldShare",
          "type": "uint256"
        },
        {
          "indexed": false,
          "internalType": "uint256",
          "name": "newShare",
          "type": "uint256"
        },
        {
          "indexed": false,
          "internalType": "uint256",
          "name": "total",
          "type": "uint256"
        }
      ],
      "name": "LogSysAdminSuccessShareSet",
      "type": "event"
    },
    {
      "anonymous": false,
      "inputs": [
        {
          "indexed": true,
          "internalType": "uint256",
          "name": "taskReceiptId",
          "type": "uint256"
        },
        {
          "indexed": true,
          "internalType": "address",
          "name": "cancellor",
          "type": "address"
        }
      ],
      "name": "LogTaskCancelled",
      "type": "event"
    },
    {
      "anonymous": false,
      "inputs": [
        {
          "indexed": true,
          "internalType": "address",
          "name": "provider",
          "type": "address"
        },
        {
          "indexed": false,
          "internalType": "bytes32",
          "name": "taskSpecHash",
          "type": "bytes32"
        },
        {
          "indexed": false,
          "internalType": "uint256",
          "name": "oldTaskSpecGasPriceCeil",
          "type": "uint256"
        },
        {
          "indexed": false,
          "internalType": "uint256",
          "name": "newTaskSpecGasPriceCeil",
          "type": "uint256"
        }
      ],
      "name": "LogTaskSpecGasPriceCeilSet",
      "type": "event"
    },
    {
      "anonymous": false,
      "inputs": [
        {
          "indexed": true,
          "internalType": "address",
          "name": "provider",
          "type": "address"
        },
        {
          "indexed": true,
          "internalType": "bytes32",
          "name": "taskSpecHash",
          "type": "bytes32"
        }
      ],
      "name": "LogTaskSpecProvided",
      "type": "event"
    },
    {
      "anonymous": false,
      "inputs": [
        {
          "indexed": true,
          "internalType": "address",
          "name": "provider",
          "type": "address"
        },
        {
          "indexed": true,
          "internalType": "bytes32",
          "name": "taskSpecHash",
          "type": "bytes32"
        }
      ],
      "name": "LogTaskSpecUnprovided",
      "type": "event"
    },
    {
      "anonymous": false,
      "inputs": [
        {
          "indexed": true,
          "internalType": "uint256",
          "name": "taskReceiptId",
          "type": "uint256"
        },
        {
          "indexed": true,
          "internalType": "bytes32",
          "name": "taskReceiptHash",
          "type": "bytes32"
        },
        {
          "components": [
            {
              "internalType": "uint256",
              "name": "id",
              "type": "uint256"
            },
            {
              "internalType": "address",
              "name": "userProxy",
              "type": "address"
            },
            {
              "components": [
                {
                  "internalType": "address",
                  "name": "addr",
                  "type": "address"
                },
                {
                  "internalType": "contract IGelatoProviderModule",
                  "name": "module",
                  "type": "address"
                }
              ],
              "internalType": "struct Provider",
              "name": "provider",
              "type": "tuple"
            },
            {
              "internalType": "uint256",
              "name": "index",
              "type": "uint256"
            },
            {
              "components": [
                {
                  "components": [
                    {
                      "internalType": "contract IGelatoCondition",
                      "name": "inst",
                      "type": "address"
                    },
                    {
                      "internalType": "bytes",
                      "name": "data",
                      "type": "bytes"
                    }
                  ],
                  "internalType": "struct Condition[]",
                  "name": "conditions",
                  "type": "tuple[]"
                },
                {
                  "components": [
                    {
                      "internalType": "address",
                      "name": "addr",
                      "type": "address"
                    },
                    {
                      "internalType": "bytes",
                      "name": "data",
                      "type": "bytes"
                    },
                    {
                      "internalType": "enum Operation",
                      "name": "operation",
                      "type": "uint8"
                    },
                    {
                      "internalType": "enum DataFlow",
                      "name": "dataFlow",
                      "type": "uint8"
                    },
                    {
                      "internalType": "uint256",
                      "name": "value",
                      "type": "uint256"
                    },
                    {
                      "internalType": "bool",
                      "name": "termsOkCheck",
                      "type": "bool"
                    }
                  ],
                  "internalType": "struct Action[]",
                  "name": "actions",
                  "type": "tuple[]"
                },
                {
                  "internalType": "uint256",
                  "name": "selfProviderGasLimit",
                  "type": "uint256"
                },
                {
                  "internalType": "uint256",
                  "name": "selfProviderGasPriceCeil",
                  "type": "uint256"
                }
              ],
              "internalType": "struct Task[]",
              "name": "tasks",
              "type": "tuple[]"
            },
            {
              "internalType": "uint256",
              "name": "expiryDate",
              "type": "uint256"
            },
            {
              "internalType": "uint256",
              "name": "cycleId",
              "type": "uint256"
            },
            {
              "internalType": "uint256",
              "name": "submissionsLeft",
              "type": "uint256"
            }
          ],
          "indexed": false,
          "internalType": "struct TaskReceipt",
          "name": "taskReceipt",
          "type": "tuple"
        }
      ],
      "name": "LogTaskSubmitted",
      "type": "event"
    },
    {
      "anonymous": false,
      "inputs": [
        {
          "indexed": true,
          "internalType": "address",
          "name": "previousOwner",
          "type": "address"
        },
        {
          "indexed": true,
          "internalType": "address",
          "name": "newOwner",
          "type": "address"
        }
      ],
      "name": "OwnershipTransferred",
      "type": "event"
    },
    {
      "inputs": [],
      "name": "EXEC_TX_OVERHEAD",
      "outputs": [
        {
          "internalType": "uint256",
          "name": "",
          "type": "uint256"
        }
      ],
      "stateMutability": "view",
      "type": "function"
    },
    {
      "inputs": [],
      "name": "NO_CEIL",
      "outputs": [
        {
          "internalType": "uint256",
          "name": "",
          "type": "uint256"
        }
      ],
      "stateMutability": "view",
      "type": "function"
    },
    {
      "inputs": [
        {
          "internalType": "contract IGelatoProviderModule[]",
          "name": "_modules",
          "type": "address[]"
        }
      ],
      "name": "addProviderModules",
      "outputs": [],
      "stateMutability": "nonpayable",
      "type": "function"
    },
    {
      "inputs": [
        {
          "components": [
            {
              "internalType": "uint256",
              "name": "id",
              "type": "uint256"
            },
            {
              "internalType": "address",
              "name": "userProxy",
              "type": "address"
            },
            {
              "components": [
                {
                  "internalType": "address",
                  "name": "addr",
                  "type": "address"
                },
                {
                  "internalType": "contract IGelatoProviderModule",
                  "name": "module",
                  "type": "address"
                }
              ],
              "internalType": "struct Provider",
              "name": "provider",
              "type": "tuple"
            },
            {
              "internalType": "uint256",
              "name": "index",
              "type": "uint256"
            },
            {
              "components": [
                {
                  "components": [
                    {
                      "internalType": "contract IGelatoCondition",
                      "name": "inst",
                      "type": "address"
                    },
                    {
                      "internalType": "bytes",
                      "name": "data",
                      "type": "bytes"
                    }
                  ],
                  "internalType": "struct Condition[]",
                  "name": "conditions",
                  "type": "tuple[]"
                },
                {
                  "components": [
                    {
                      "internalType": "address",
                      "name": "addr",
                      "type": "address"
                    },
                    {
                      "internalType": "bytes",
                      "name": "data",
                      "type": "bytes"
                    },
                    {
                      "internalType": "enum Operation",
                      "name": "operation",
                      "type": "uint8"
                    },
                    {
                      "internalType": "enum DataFlow",
                      "name": "dataFlow",
                      "type": "uint8"
                    },
                    {
                      "internalType": "uint256",
                      "name": "value",
                      "type": "uint256"
                    },
                    {
                      "internalType": "bool",
                      "name": "termsOkCheck",
                      "type": "bool"
                    }
                  ],
                  "internalType": "struct Action[]",
                  "name": "actions",
                  "type": "tuple[]"
                },
                {
                  "internalType": "uint256",
                  "name": "selfProviderGasLimit",
                  "type": "uint256"
                },
                {
                  "internalType": "uint256",
                  "name": "selfProviderGasPriceCeil",
                  "type": "uint256"
                }
              ],
              "internalType": "struct Task[]",
              "name": "tasks",
              "type": "tuple[]"
            },
            {
              "internalType": "uint256",
              "name": "expiryDate",
              "type": "uint256"
            },
            {
              "internalType": "uint256",
              "name": "cycleId",
              "type": "uint256"
            },
            {
              "internalType": "uint256",
              "name": "submissionsLeft",
              "type": "uint256"
            }
          ],
          "internalType": "struct TaskReceipt",
          "name": "_TR",
          "type": "tuple"
        },
        {
          "internalType": "uint256",
          "name": "_gasLimit",
          "type": "uint256"
        },
        {
          "internalType": "uint256",
          "name": "_gelatoGasPrice",
          "type": "uint256"
        }
      ],
      "name": "canExec",
      "outputs": [
        {
          "internalType": "string",
          "name": "",
          "type": "string"
        }
      ],
      "stateMutability": "view",
      "type": "function"
    },
    {
      "inputs": [
        {
          "internalType": "address",
          "name": "_userProxy",
          "type": "address"
        },
        {
          "components": [
            {
              "internalType": "address",
              "name": "addr",
              "type": "address"
            },
            {
              "internalType": "contract IGelatoProviderModule",
              "name": "module",
              "type": "address"
            }
          ],
          "internalType": "struct Provider",
          "name": "_provider",
          "type": "tuple"
        },
        {
          "components": [
            {
              "components": [
                {
                  "internalType": "contract IGelatoCondition",
                  "name": "inst",
                  "type": "address"
                },
                {
                  "internalType": "bytes",
                  "name": "data",
                  "type": "bytes"
                }
              ],
              "internalType": "struct Condition[]",
              "name": "conditions",
              "type": "tuple[]"
            },
            {
              "components": [
                {
                  "internalType": "address",
                  "name": "addr",
                  "type": "address"
                },
                {
                  "internalType": "bytes",
                  "name": "data",
                  "type": "bytes"
                },
                {
                  "internalType": "enum Operation",
                  "name": "operation",
                  "type": "uint8"
                },
                {
                  "internalType": "enum DataFlow",
                  "name": "dataFlow",
                  "type": "uint8"
                },
                {
                  "internalType": "uint256",
                  "name": "value",
                  "type": "uint256"
                },
                {
                  "internalType": "bool",
                  "name": "termsOkCheck",
                  "type": "bool"
                }
              ],
              "internalType": "struct Action[]",
              "name": "actions",
              "type": "tuple[]"
            },
            {
              "internalType": "uint256",
              "name": "selfProviderGasLimit",
              "type": "uint256"
            },
            {
              "internalType": "uint256",
              "name": "selfProviderGasPriceCeil",
              "type": "uint256"
            }
          ],
          "internalType": "struct Task",
          "name": "_task",
          "type": "tuple"
        },
        {
          "internalType": "uint256",
          "name": "_expiryDate",
          "type": "uint256"
        }
      ],
      "name": "canSubmitTask",
      "outputs": [
        {
          "internalType": "string",
          "name": "",
          "type": "string"
        }
      ],
      "stateMutability": "view",
      "type": "function"
    },
    {
      "inputs": [
        {
          "components": [
            {
              "internalType": "uint256",
              "name": "id",
              "type": "uint256"
            },
            {
              "internalType": "address",
              "name": "userProxy",
              "type": "address"
            },
            {
              "components": [
                {
                  "internalType": "address",
                  "name": "addr",
                  "type": "address"
                },
                {
                  "internalType": "contract IGelatoProviderModule",
                  "name": "module",
                  "type": "address"
                }
              ],
              "internalType": "struct Provider",
              "name": "provider",
              "type": "tuple"
            },
            {
              "internalType": "uint256",
              "name": "index",
              "type": "uint256"
            },
            {
              "components": [
                {
                  "components": [
                    {
                      "internalType": "contract IGelatoCondition",
                      "name": "inst",
                      "type": "address"
                    },
                    {
                      "internalType": "bytes",
                      "name": "data",
                      "type": "bytes"
                    }
                  ],
                  "internalType": "struct Condition[]",
                  "name": "conditions",
                  "type": "tuple[]"
                },
                {
                  "components": [
                    {
                      "internalType": "address",
                      "name": "addr",
                      "type": "address"
                    },
                    {
                      "internalType": "bytes",
                      "name": "data",
                      "type": "bytes"
                    },
                    {
                      "internalType": "enum Operation",
                      "name": "operation",
                      "type": "uint8"
                    },
                    {
                      "internalType": "enum DataFlow",
                      "name": "dataFlow",
                      "type": "uint8"
                    },
                    {
                      "internalType": "uint256",
                      "name": "value",
                      "type": "uint256"
                    },
                    {
                      "internalType": "bool",
                      "name": "termsOkCheck",
                      "type": "bool"
                    }
                  ],
                  "internalType": "struct Action[]",
                  "name": "actions",
                  "type": "tuple[]"
                },
                {
                  "internalType": "uint256",
                  "name": "selfProviderGasLimit",
                  "type": "uint256"
                },
                {
                  "internalType": "uint256",
                  "name": "selfProviderGasPriceCeil",
                  "type": "uint256"
                }
              ],
              "internalType": "struct Task[]",
              "name": "tasks",
              "type": "tuple[]"
            },
            {
              "internalType": "uint256",
              "name": "expiryDate",
              "type": "uint256"
            },
            {
              "internalType": "uint256",
              "name": "cycleId",
              "type": "uint256"
            },
            {
              "internalType": "uint256",
              "name": "submissionsLeft",
              "type": "uint256"
            }
          ],
          "internalType": "struct TaskReceipt",
          "name": "_TR",
          "type": "tuple"
        }
      ],
      "name": "cancelTask",
      "outputs": [],
      "stateMutability": "nonpayable",
      "type": "function"
    },
    {
      "inputs": [],
      "name": "currentTaskReceiptId",
      "outputs": [
        {
          "internalType": "uint256",
          "name": "",
          "type": "uint256"
        }
      ],
      "stateMutability": "view",
      "type": "function"
    },
    {
      "inputs": [
        {
          "components": [
            {
              "internalType": "uint256",
              "name": "id",
              "type": "uint256"
            },
            {
              "internalType": "address",
              "name": "userProxy",
              "type": "address"
            },
            {
              "components": [
                {
                  "internalType": "address",
                  "name": "addr",
                  "type": "address"
                },
                {
                  "internalType": "contract IGelatoProviderModule",
                  "name": "module",
                  "type": "address"
                }
              ],
              "internalType": "struct Provider",
              "name": "provider",
              "type": "tuple"
            },
            {
              "internalType": "uint256",
              "name": "index",
              "type": "uint256"
            },
            {
              "components": [
                {
                  "components": [
                    {
                      "internalType": "contract IGelatoCondition",
                      "name": "inst",
                      "type": "address"
                    },
                    {
                      "internalType": "bytes",
                      "name": "data",
                      "type": "bytes"
                    }
                  ],
                  "internalType": "struct Condition[]",
                  "name": "conditions",
                  "type": "tuple[]"
                },
                {
                  "components": [
                    {
                      "internalType": "address",
                      "name": "addr",
                      "type": "address"
                    },
                    {
                      "internalType": "bytes",
                      "name": "data",
                      "type": "bytes"
                    },
                    {
                      "internalType": "enum Operation",
                      "name": "operation",
                      "type": "uint8"
                    },
                    {
                      "internalType": "enum DataFlow",
                      "name": "dataFlow",
                      "type": "uint8"
                    },
                    {
                      "internalType": "uint256",
                      "name": "value",
                      "type": "uint256"
                    },
                    {
                      "internalType": "bool",
                      "name": "termsOkCheck",
                      "type": "bool"
                    }
                  ],
                  "internalType": "struct Action[]",
                  "name": "actions",
                  "type": "tuple[]"
                },
                {
                  "internalType": "uint256",
                  "name": "selfProviderGasLimit",
                  "type": "uint256"
                },
                {
                  "internalType": "uint256",
                  "name": "selfProviderGasPriceCeil",
                  "type": "uint256"
                }
              ],
              "internalType": "struct Task[]",
              "name": "tasks",
              "type": "tuple[]"
            },
            {
              "internalType": "uint256",
              "name": "expiryDate",
              "type": "uint256"
            },
            {
              "internalType": "uint256",
              "name": "cycleId",
              "type": "uint256"
            },
            {
              "internalType": "uint256",
              "name": "submissionsLeft",
              "type": "uint256"
            }
          ],
          "internalType": "struct TaskReceipt",
          "name": "_TR",
          "type": "tuple"
        }
      ],
      "name": "exec",
      "outputs": [],
      "stateMutability": "nonpayable",
      "type": "function"
    },
    {
      "inputs": [
        {
          "components": [
            {
              "internalType": "uint256",
              "name": "id",
              "type": "uint256"
            },
            {
              "internalType": "address",
              "name": "userProxy",
              "type": "address"
            },
            {
              "components": [
                {
                  "internalType": "address",
                  "name": "addr",
                  "type": "address"
                },
                {
                  "internalType": "contract IGelatoProviderModule",
                  "name": "module",
                  "type": "address"
                }
              ],
              "internalType": "struct Provider",
              "name": "provider",
              "type": "tuple"
            },
            {
              "internalType": "uint256",
              "name": "index",
              "type": "uint256"
            },
            {
              "components": [
                {
                  "components": [
                    {
                      "internalType": "contract IGelatoCondition",
                      "name": "inst",
                      "type": "address"
                    },
                    {
                      "internalType": "bytes",
                      "name": "data",
                      "type": "bytes"
                    }
                  ],
                  "internalType": "struct Condition[]",
                  "name": "conditions",
                  "type": "tuple[]"
                },
                {
                  "components": [
                    {
                      "internalType": "address",
                      "name": "addr",
                      "type": "address"
                    },
                    {
                      "internalType": "bytes",
                      "name": "data",
                      "type": "bytes"
                    },
                    {
                      "internalType": "enum Operation",
                      "name": "operation",
                      "type": "uint8"
                    },
                    {
                      "internalType": "enum DataFlow",
                      "name": "dataFlow",
                      "type": "uint8"
                    },
                    {
                      "internalType": "uint256",
                      "name": "value",
                      "type": "uint256"
                    },
                    {
                      "internalType": "bool",
                      "name": "termsOkCheck",
                      "type": "bool"
                    }
                  ],
                  "internalType": "struct Action[]",
                  "name": "actions",
                  "type": "tuple[]"
                },
                {
                  "internalType": "uint256",
                  "name": "selfProviderGasLimit",
                  "type": "uint256"
                },
                {
                  "internalType": "uint256",
                  "name": "selfProviderGasPriceCeil",
                  "type": "uint256"
                }
              ],
              "internalType": "struct Task[]",
              "name": "tasks",
              "type": "tuple[]"
            },
            {
              "internalType": "uint256",
              "name": "expiryDate",
              "type": "uint256"
            },
            {
              "internalType": "uint256",
              "name": "cycleId",
              "type": "uint256"
            },
            {
              "internalType": "uint256",
              "name": "submissionsLeft",
              "type": "uint256"
            }
          ],
          "internalType": "struct TaskReceipt",
          "name": "taskReceipt",
          "type": "tuple"
        },
        {
          "internalType": "uint256",
          "name": "_gasLimit",
          "type": "uint256"
        },
        {
          "internalType": "uint256",
          "name": "_gelatoGasPrice",
          "type": "uint256"
        }
      ],
      "name": "executionWrapper",
      "outputs": [
        {
          "internalType": "enum GelatoCore.ExecutionResult",
          "name": "",
          "type": "uint8"
        },
        {
          "internalType": "string",
          "name": "",
          "type": "string"
        }
      ],
      "stateMutability": "nonpayable",
      "type": "function"
    },
    {
      "inputs": [
        {
          "internalType": "address",
          "name": "_provider",
          "type": "address"
        },
        {
          "internalType": "address",
          "name": "_newExecutor",
          "type": "address"
        }
      ],
      "name": "executorAssignsExecutor",
      "outputs": [],
      "stateMutability": "nonpayable",
      "type": "function"
    },
    {
      "inputs": [
        {
          "internalType": "address",
          "name": "",
          "type": "address"
        }
      ],
      "name": "executorByProvider",
      "outputs": [
        {
          "internalType": "address",
          "name": "",
          "type": "address"
        }
      ],
      "stateMutability": "view",
      "type": "function"
    },
    {
      "inputs": [
        {
          "internalType": "address",
          "name": "",
          "type": "address"
        }
      ],
      "name": "executorProvidersCount",
      "outputs": [
        {
          "internalType": "uint256",
          "name": "",
          "type": "uint256"
        }
      ],
      "stateMutability": "view",
      "type": "function"
    },
    {
      "inputs": [
        {
          "internalType": "address",
          "name": "",
          "type": "address"
        }
      ],
      "name": "executorStake",
      "outputs": [
        {
          "internalType": "uint256",
          "name": "",
          "type": "uint256"
        }
      ],
      "stateMutability": "view",
      "type": "function"
    },
    {
      "inputs": [
        {
          "internalType": "uint256",
          "name": "_gas",
          "type": "uint256"
        },
        {
          "internalType": "uint256",
          "name": "_gasPrice",
          "type": "uint256"
        }
      ],
      "name": "executorSuccessFee",
      "outputs": [
        {
          "internalType": "uint256",
          "name": "",
          "type": "uint256"
        }
      ],
      "stateMutability": "view",
      "type": "function"
    },
    {
      "inputs": [],
      "name": "executorSuccessShare",
      "outputs": [
        {
          "internalType": "uint256",
          "name": "",
          "type": "uint256"
        }
      ],
      "stateMutability": "view",
      "type": "function"
    },
    {
      "inputs": [],
      "name": "gelatoGasPriceOracle",
      "outputs": [
        {
          "internalType": "address",
          "name": "",
          "type": "address"
        }
      ],
      "stateMutability": "view",
      "type": "function"
    },
    {
      "inputs": [],
      "name": "gelatoMaxGas",
      "outputs": [
        {
          "internalType": "uint256",
          "name": "",
          "type": "uint256"
        }
      ],
      "stateMutability": "view",
      "type": "function"
    },
    {
      "inputs": [
        {
          "components": [
            {
              "internalType": "uint256",
              "name": "id",
              "type": "uint256"
            },
            {
              "internalType": "address",
              "name": "userProxy",
              "type": "address"
            },
            {
              "components": [
                {
                  "internalType": "address",
                  "name": "addr",
                  "type": "address"
                },
                {
                  "internalType": "contract IGelatoProviderModule",
                  "name": "module",
                  "type": "address"
                }
              ],
              "internalType": "struct Provider",
              "name": "provider",
              "type": "tuple"
            },
            {
              "internalType": "uint256",
              "name": "index",
              "type": "uint256"
            },
            {
              "components": [
                {
                  "components": [
                    {
                      "internalType": "contract IGelatoCondition",
                      "name": "inst",
                      "type": "address"
                    },
                    {
                      "internalType": "bytes",
                      "name": "data",
                      "type": "bytes"
                    }
                  ],
                  "internalType": "struct Condition[]",
                  "name": "conditions",
                  "type": "tuple[]"
                },
                {
                  "components": [
                    {
                      "internalType": "address",
                      "name": "addr",
                      "type": "address"
                    },
                    {
                      "internalType": "bytes",
                      "name": "data",
                      "type": "bytes"
                    },
                    {
                      "internalType": "enum Operation",
                      "name": "operation",
                      "type": "uint8"
                    },
                    {
                      "internalType": "enum DataFlow",
                      "name": "dataFlow",
                      "type": "uint8"
                    },
                    {
                      "internalType": "uint256",
                      "name": "value",
                      "type": "uint256"
                    },
                    {
                      "internalType": "bool",
                      "name": "termsOkCheck",
                      "type": "bool"
                    }
                  ],
                  "internalType": "struct Action[]",
                  "name": "actions",
                  "type": "tuple[]"
                },
                {
                  "internalType": "uint256",
                  "name": "selfProviderGasLimit",
                  "type": "uint256"
                },
                {
                  "internalType": "uint256",
                  "name": "selfProviderGasPriceCeil",
                  "type": "uint256"
                }
              ],
              "internalType": "struct Task[]",
              "name": "tasks",
              "type": "tuple[]"
            },
            {
              "internalType": "uint256",
              "name": "expiryDate",
              "type": "uint256"
            },
            {
              "internalType": "uint256",
              "name": "cycleId",
              "type": "uint256"
            },
            {
              "internalType": "uint256",
              "name": "submissionsLeft",
              "type": "uint256"
            }
          ],
          "internalType": "struct TaskReceipt",
          "name": "_TR",
          "type": "tuple"
        }
      ],
      "name": "hashTaskReceipt",
      "outputs": [
        {
          "internalType": "bytes32",
          "name": "",
          "type": "bytes32"
        }
      ],
      "stateMutability": "pure",
      "type": "function"
    },
    {
      "inputs": [
        {
          "components": [
            {
              "internalType": "contract IGelatoCondition[]",
              "name": "conditions",
              "type": "address[]"
            },
            {
              "components": [
                {
                  "internalType": "address",
                  "name": "addr",
                  "type": "address"
                },
                {
                  "internalType": "bytes",
                  "name": "data",
                  "type": "bytes"
                },
                {
                  "internalType": "enum Operation",
                  "name": "operation",
                  "type": "uint8"
                },
                {
                  "internalType": "enum DataFlow",
                  "name": "dataFlow",
                  "type": "uint8"
                },
                {
                  "internalType": "uint256",
                  "name": "value",
                  "type": "uint256"
                },
                {
                  "internalType": "bool",
                  "name": "termsOkCheck",
                  "type": "bool"
                }
              ],
              "internalType": "struct Action[]",
              "name": "actions",
              "type": "tuple[]"
            },
            {
              "internalType": "uint256",
              "name": "gasPriceCeil",
              "type": "uint256"
            }
          ],
          "internalType": "struct TaskSpec",
          "name": "_taskSpec",
          "type": "tuple"
        }
      ],
      "name": "hashTaskSpec",
      "outputs": [
        {
          "internalType": "bytes32",
          "name": "",
          "type": "bytes32"
        }
      ],
      "stateMutability": "view",
      "type": "function"
    },
    {
      "inputs": [],
      "name": "internalGasRequirement",
      "outputs": [
        {
          "internalType": "uint256",
          "name": "",
          "type": "uint256"
        }
      ],
      "stateMutability": "view",
      "type": "function"
    },
    {
      "inputs": [
        {
          "internalType": "address",
          "name": "_executor",
          "type": "address"
        }
      ],
      "name": "isExecutorAssigned",
      "outputs": [
        {
          "internalType": "bool",
          "name": "",
          "type": "bool"
        }
      ],
      "stateMutability": "view",
      "type": "function"
    },
    {
      "inputs": [
        {
          "internalType": "address",
          "name": "_executor",
          "type": "address"
        }
      ],
      "name": "isExecutorMinStaked",
      "outputs": [
        {
          "internalType": "bool",
          "name": "",
          "type": "bool"
        }
      ],
      "stateMutability": "view",
      "type": "function"
    },
    {
      "inputs": [
        {
          "internalType": "address",
          "name": "_provider",
          "type": "address"
        },
        {
          "internalType": "contract IGelatoProviderModule",
          "name": "_module",
          "type": "address"
        }
      ],
      "name": "isModuleProvided",
      "outputs": [
        {
          "internalType": "bool",
          "name": "",
          "type": "bool"
        }
      ],
      "stateMutability": "view",
      "type": "function"
    },
    {
      "inputs": [],
      "name": "isOwner",
      "outputs": [
        {
          "internalType": "bool",
          "name": "",
          "type": "bool"
        }
      ],
      "stateMutability": "view",
      "type": "function"
    },
    {
      "inputs": [
        {
          "internalType": "address",
          "name": "_provider",
          "type": "address"
        },
        {
          "internalType": "uint256",
          "name": "_gelatoMaxGas",
          "type": "uint256"
        },
        {
          "internalType": "uint256",
          "name": "_gelatoGasPrice",
          "type": "uint256"
        }
      ],
      "name": "isProviderLiquid",
      "outputs": [
        {
          "internalType": "bool",
          "name": "",
          "type": "bool"
        }
      ],
      "stateMutability": "view",
      "type": "function"
    },
    {
      "inputs": [
        {
          "internalType": "address",
          "name": "_userProxy",
          "type": "address"
        },
        {
          "components": [
            {
              "internalType": "address",
              "name": "addr",
              "type": "address"
            },
            {
              "internalType": "contract IGelatoProviderModule",
              "name": "module",
              "type": "address"
            }
          ],
          "internalType": "struct Provider",
          "name": "_provider",
          "type": "tuple"
        },
        {
          "components": [
            {
              "components": [
                {
                  "internalType": "contract IGelatoCondition",
                  "name": "inst",
                  "type": "address"
                },
                {
                  "internalType": "bytes",
                  "name": "data",
                  "type": "bytes"
                }
              ],
              "internalType": "struct Condition[]",
              "name": "conditions",
              "type": "tuple[]"
            },
            {
              "components": [
                {
                  "internalType": "address",
                  "name": "addr",
                  "type": "address"
                },
                {
                  "internalType": "bytes",
                  "name": "data",
                  "type": "bytes"
                },
                {
                  "internalType": "enum Operation",
                  "name": "operation",
                  "type": "uint8"
                },
                {
                  "internalType": "enum DataFlow",
                  "name": "dataFlow",
                  "type": "uint8"
                },
                {
                  "internalType": "uint256",
                  "name": "value",
                  "type": "uint256"
                },
                {
                  "internalType": "bool",
                  "name": "termsOkCheck",
                  "type": "bool"
                }
              ],
              "internalType": "struct Action[]",
              "name": "actions",
              "type": "tuple[]"
            },
            {
              "internalType": "uint256",
              "name": "selfProviderGasLimit",
              "type": "uint256"
            },
            {
              "internalType": "uint256",
              "name": "selfProviderGasPriceCeil",
              "type": "uint256"
            }
          ],
          "internalType": "struct Task",
          "name": "_task",
          "type": "tuple"
        }
      ],
      "name": "isTaskProvided",
      "outputs": [
        {
          "internalType": "string",
          "name": "res",
          "type": "string"
        }
      ],
      "stateMutability": "view",
      "type": "function"
    },
    {
      "inputs": [
        {
          "internalType": "address",
          "name": "_provider",
          "type": "address"
        },
        {
          "components": [
            {
              "internalType": "contract IGelatoCondition[]",
              "name": "conditions",
              "type": "address[]"
            },
            {
              "components": [
                {
                  "internalType": "address",
                  "name": "addr",
                  "type": "address"
                },
                {
                  "internalType": "bytes",
                  "name": "data",
                  "type": "bytes"
                },
                {
                  "internalType": "enum Operation",
                  "name": "operation",
                  "type": "uint8"
                },
                {
                  "internalType": "enum DataFlow",
                  "name": "dataFlow",
                  "type": "uint8"
                },
                {
                  "internalType": "uint256",
                  "name": "value",
                  "type": "uint256"
                },
                {
                  "internalType": "bool",
                  "name": "termsOkCheck",
                  "type": "bool"
                }
              ],
              "internalType": "struct Action[]",
              "name": "actions",
              "type": "tuple[]"
            },
            {
              "internalType": "uint256",
              "name": "gasPriceCeil",
              "type": "uint256"
            }
          ],
          "internalType": "struct TaskSpec",
          "name": "_taskSpec",
          "type": "tuple"
        }
      ],
      "name": "isTaskSpecProvided",
      "outputs": [
        {
          "internalType": "string",
          "name": "",
          "type": "string"
        }
      ],
      "stateMutability": "view",
      "type": "function"
    },
    {
      "inputs": [
        {
          "internalType": "uint256",
          "name": "_gelatoMaxGas",
          "type": "uint256"
        },
        {
          "internalType": "uint256",
          "name": "_gelatoGasPrice",
          "type": "uint256"
        }
      ],
      "name": "minExecProviderFunds",
      "outputs": [
        {
          "internalType": "uint256",
          "name": "",
          "type": "uint256"
        }
      ],
      "stateMutability": "view",
      "type": "function"
    },
    {
      "inputs": [],
      "name": "minExecutorStake",
      "outputs": [
        {
          "internalType": "uint256",
          "name": "",
          "type": "uint256"
        }
      ],
      "stateMutability": "view",
      "type": "function"
    },
    {
      "inputs": [
        {
          "components": [
            {
              "internalType": "uint256",
              "name": "id",
              "type": "uint256"
            },
            {
              "internalType": "address",
              "name": "userProxy",
              "type": "address"
            },
            {
              "components": [
                {
                  "internalType": "address",
                  "name": "addr",
                  "type": "address"
                },
                {
                  "internalType": "contract IGelatoProviderModule",
                  "name": "module",
                  "type": "address"
                }
              ],
              "internalType": "struct Provider",
              "name": "provider",
              "type": "tuple"
            },
            {
              "internalType": "uint256",
              "name": "index",
              "type": "uint256"
            },
            {
              "components": [
                {
                  "components": [
                    {
                      "internalType": "contract IGelatoCondition",
                      "name": "inst",
                      "type": "address"
                    },
                    {
                      "internalType": "bytes",
                      "name": "data",
                      "type": "bytes"
                    }
                  ],
                  "internalType": "struct Condition[]",
                  "name": "conditions",
                  "type": "tuple[]"
                },
                {
                  "components": [
                    {
                      "internalType": "address",
                      "name": "addr",
                      "type": "address"
                    },
                    {
                      "internalType": "bytes",
                      "name": "data",
                      "type": "bytes"
                    },
                    {
                      "internalType": "enum Operation",
                      "name": "operation",
                      "type": "uint8"
                    },
                    {
                      "internalType": "enum DataFlow",
                      "name": "dataFlow",
                      "type": "uint8"
                    },
                    {
                      "internalType": "uint256",
                      "name": "value",
                      "type": "uint256"
                    },
                    {
                      "internalType": "bool",
                      "name": "termsOkCheck",
                      "type": "bool"
                    }
                  ],
                  "internalType": "struct Action[]",
                  "name": "actions",
                  "type": "tuple[]"
                },
                {
                  "internalType": "uint256",
                  "name": "selfProviderGasLimit",
                  "type": "uint256"
                },
                {
                  "internalType": "uint256",
                  "name": "selfProviderGasPriceCeil",
                  "type": "uint256"
                }
              ],
              "internalType": "struct Task[]",
              "name": "tasks",
              "type": "tuple[]"
            },
            {
              "internalType": "uint256",
              "name": "expiryDate",
              "type": "uint256"
            },
            {
              "internalType": "uint256",
              "name": "cycleId",
              "type": "uint256"
            },
            {
              "internalType": "uint256",
              "name": "submissionsLeft",
              "type": "uint256"
            }
          ],
          "internalType": "struct TaskReceipt[]",
          "name": "_taskReceipts",
          "type": "tuple[]"
        }
      ],
      "name": "multiCancelTasks",
      "outputs": [],
      "stateMutability": "nonpayable",
      "type": "function"
    },
    {
      "inputs": [
        {
          "internalType": "address",
          "name": "_executor",
          "type": "address"
        },
        {
          "components": [
            {
              "internalType": "contract IGelatoCondition[]",
              "name": "conditions",
              "type": "address[]"
            },
            {
              "components": [
                {
                  "internalType": "address",
                  "name": "addr",
                  "type": "address"
                },
                {
                  "internalType": "bytes",
                  "name": "data",
                  "type": "bytes"
                },
                {
                  "internalType": "enum Operation",
                  "name": "operation",
                  "type": "uint8"
                },
                {
                  "internalType": "enum DataFlow",
                  "name": "dataFlow",
                  "type": "uint8"
                },
                {
                  "internalType": "uint256",
                  "name": "value",
                  "type": "uint256"
                },
                {
                  "internalType": "bool",
                  "name": "termsOkCheck",
                  "type": "bool"
                }
              ],
              "internalType": "struct Action[]",
              "name": "actions",
              "type": "tuple[]"
            },
            {
              "internalType": "uint256",
              "name": "gasPriceCeil",
              "type": "uint256"
            }
          ],
          "internalType": "struct TaskSpec[]",
          "name": "_taskSpecs",
          "type": "tuple[]"
        },
        {
          "internalType": "contract IGelatoProviderModule[]",
          "name": "_modules",
          "type": "address[]"
        }
      ],
      "name": "multiProvide",
      "outputs": [],
      "stateMutability": "payable",
      "type": "function"
    },
    {
      "inputs": [
        {
          "internalType": "address[]",
          "name": "_providers",
          "type": "address[]"
        },
        {
          "internalType": "address",
          "name": "_newExecutor",
          "type": "address"
        }
      ],
      "name": "multiReassignProviders",
      "outputs": [],
      "stateMutability": "nonpayable",
      "type": "function"
    },
    {
      "inputs": [
        {
          "internalType": "uint256",
          "name": "_withdrawAmount",
          "type": "uint256"
        },
        {
          "components": [
            {
              "internalType": "contract IGelatoCondition[]",
              "name": "conditions",
              "type": "address[]"
            },
            {
              "components": [
                {
                  "internalType": "address",
                  "name": "addr",
                  "type": "address"
                },
                {
                  "internalType": "bytes",
                  "name": "data",
                  "type": "bytes"
                },
                {
                  "internalType": "enum Operation",
                  "name": "operation",
                  "type": "uint8"
                },
                {
                  "internalType": "enum DataFlow",
                  "name": "dataFlow",
                  "type": "uint8"
                },
                {
                  "internalType": "uint256",
                  "name": "value",
                  "type": "uint256"
                },
                {
                  "internalType": "bool",
                  "name": "termsOkCheck",
                  "type": "bool"
                }
              ],
              "internalType": "struct Action[]",
              "name": "actions",
              "type": "tuple[]"
            },
            {
              "internalType": "uint256",
              "name": "gasPriceCeil",
              "type": "uint256"
            }
          ],
          "internalType": "struct TaskSpec[]",
          "name": "_taskSpecs",
          "type": "tuple[]"
        },
        {
          "internalType": "contract IGelatoProviderModule[]",
          "name": "_modules",
          "type": "address[]"
        }
      ],
      "name": "multiUnprovide",
      "outputs": [],
      "stateMutability": "nonpayable",
      "type": "function"
    },
    {
      "inputs": [],
      "name": "oracleRequestData",
      "outputs": [
        {
          "internalType": "bytes",
          "name": "",
          "type": "bytes"
        }
      ],
      "stateMutability": "view",
      "type": "function"
    },
    {
      "inputs": [],
      "name": "owner",
      "outputs": [
        {
          "internalType": "address",
          "name": "",
          "type": "address"
        }
      ],
      "stateMutability": "view",
      "type": "function"
    },
    {
      "inputs": [
        {
          "internalType": "address",
          "name": "_provider",
          "type": "address"
        }
      ],
      "name": "provideFunds",
      "outputs": [],
      "stateMutability": "payable",
      "type": "function"
    },
    {
      "inputs": [
        {
          "components": [
            {
              "internalType": "contract IGelatoCondition[]",
              "name": "conditions",
              "type": "address[]"
            },
            {
              "components": [
                {
                  "internalType": "address",
                  "name": "addr",
                  "type": "address"
                },
                {
                  "internalType": "bytes",
                  "name": "data",
                  "type": "bytes"
                },
                {
                  "internalType": "enum Operation",
                  "name": "operation",
                  "type": "uint8"
                },
                {
                  "internalType": "enum DataFlow",
                  "name": "dataFlow",
                  "type": "uint8"
                },
                {
                  "internalType": "uint256",
                  "name": "value",
                  "type": "uint256"
                },
                {
                  "internalType": "bool",
                  "name": "termsOkCheck",
                  "type": "bool"
                }
              ],
              "internalType": "struct Action[]",
              "name": "actions",
              "type": "tuple[]"
            },
            {
              "internalType": "uint256",
              "name": "gasPriceCeil",
              "type": "uint256"
            }
          ],
          "internalType": "struct TaskSpec[]",
          "name": "_taskSpecs",
          "type": "tuple[]"
        }
      ],
      "name": "provideTaskSpecs",
      "outputs": [],
      "stateMutability": "nonpayable",
      "type": "function"
    },
    {
      "inputs": [
        {
          "internalType": "address",
          "name": "_newExecutor",
          "type": "address"
        }
      ],
      "name": "providerAssignsExecutor",
      "outputs": [],
      "stateMutability": "nonpayable",
      "type": "function"
    },
    {
      "inputs": [
        {
          "internalType": "address",
          "name": "_userProxy",
          "type": "address"
        },
        {
          "components": [
            {
              "internalType": "address",
              "name": "addr",
              "type": "address"
            },
            {
              "internalType": "contract IGelatoProviderModule",
              "name": "module",
              "type": "address"
            }
          ],
          "internalType": "struct Provider",
          "name": "_provider",
          "type": "tuple"
        },
        {
          "components": [
            {
              "components": [
                {
                  "internalType": "contract IGelatoCondition",
                  "name": "inst",
                  "type": "address"
                },
                {
                  "internalType": "bytes",
                  "name": "data",
                  "type": "bytes"
                }
              ],
              "internalType": "struct Condition[]",
              "name": "conditions",
              "type": "tuple[]"
            },
            {
              "components": [
                {
                  "internalType": "address",
                  "name": "addr",
                  "type": "address"
                },
                {
                  "internalType": "bytes",
                  "name": "data",
                  "type": "bytes"
                },
                {
                  "internalType": "enum Operation",
                  "name": "operation",
                  "type": "uint8"
                },
                {
                  "internalType": "enum DataFlow",
                  "name": "dataFlow",
                  "type": "uint8"
                },
                {
                  "internalType": "uint256",
                  "name": "value",
                  "type": "uint256"
                },
                {
                  "internalType": "bool",
                  "name": "termsOkCheck",
                  "type": "bool"
                }
              ],
              "internalType": "struct Action[]",
              "name": "actions",
              "type": "tuple[]"
            },
            {
              "internalType": "uint256",
              "name": "selfProviderGasLimit",
              "type": "uint256"
            },
            {
              "internalType": "uint256",
              "name": "selfProviderGasPriceCeil",
              "type": "uint256"
            }
          ],
          "internalType": "struct Task",
          "name": "_task",
          "type": "tuple"
        },
        {
          "internalType": "uint256",
          "name": "_gelatoGasPrice",
          "type": "uint256"
        }
      ],
      "name": "providerCanExec",
      "outputs": [
        {
          "internalType": "string",
          "name": "",
          "type": "string"
        }
      ],
      "stateMutability": "view",
      "type": "function"
    },
    {
      "inputs": [
        {
          "internalType": "address",
          "name": "",
          "type": "address"
        }
      ],
      "name": "providerFunds",
      "outputs": [
        {
          "internalType": "uint256",
          "name": "",
          "type": "uint256"
        }
      ],
      "stateMutability": "view",
      "type": "function"
    },
    {
      "inputs": [
        {
          "internalType": "address",
          "name": "_userProxy",
          "type": "address"
        },
        {
          "components": [
            {
              "internalType": "address",
              "name": "addr",
              "type": "address"
            },
            {
              "internalType": "contract IGelatoProviderModule",
              "name": "module",
              "type": "address"
            }
          ],
          "internalType": "struct Provider",
          "name": "_provider",
          "type": "tuple"
        },
        {
          "components": [
            {
              "components": [
                {
                  "internalType": "contract IGelatoCondition",
                  "name": "inst",
                  "type": "address"
                },
                {
                  "internalType": "bytes",
                  "name": "data",
                  "type": "bytes"
                }
              ],
              "internalType": "struct Condition[]",
              "name": "conditions",
              "type": "tuple[]"
            },
            {
              "components": [
                {
                  "internalType": "address",
                  "name": "addr",
                  "type": "address"
                },
                {
                  "internalType": "bytes",
                  "name": "data",
                  "type": "bytes"
                },
                {
                  "internalType": "enum Operation",
                  "name": "operation",
                  "type": "uint8"
                },
                {
                  "internalType": "enum DataFlow",
                  "name": "dataFlow",
                  "type": "uint8"
                },
                {
                  "internalType": "uint256",
                  "name": "value",
                  "type": "uint256"
                },
                {
                  "internalType": "bool",
                  "name": "termsOkCheck",
                  "type": "bool"
                }
              ],
              "internalType": "struct Action[]",
              "name": "actions",
              "type": "tuple[]"
            },
            {
              "internalType": "uint256",
              "name": "selfProviderGasLimit",
              "type": "uint256"
            },
            {
              "internalType": "uint256",
              "name": "selfProviderGasPriceCeil",
              "type": "uint256"
            }
          ],
          "internalType": "struct Task",
          "name": "_task",
          "type": "tuple"
        }
      ],
      "name": "providerModuleChecks",
      "outputs": [
        {
          "internalType": "string",
          "name": "",
          "type": "string"
        }
      ],
      "stateMutability": "view",
      "type": "function"
    },
    {
      "inputs": [
        {
          "internalType": "address",
          "name": "_provider",
          "type": "address"
        }
      ],
      "name": "providerModules",
      "outputs": [
        {
          "internalType": "contract IGelatoProviderModule[]",
          "name": "",
          "type": "address[]"
        }
      ],
      "stateMutability": "view",
      "type": "function"
    },
    {
      "inputs": [
        {
          "internalType": "contract IGelatoProviderModule[]",
          "name": "_modules",
          "type": "address[]"
        }
      ],
      "name": "removeProviderModules",
      "outputs": [],
      "stateMutability": "nonpayable",
      "type": "function"
    },
    {
      "inputs": [],
      "name": "renounceOwnership",
      "outputs": [],
      "stateMutability": "nonpayable",
      "type": "function"
    },
    {
      "inputs": [
        {
          "internalType": "uint256",
          "name": "_percentage",
          "type": "uint256"
        }
      ],
      "name": "setExecutorSuccessShare",
      "outputs": [],
      "stateMutability": "nonpayable",
      "type": "function"
    },
    {
      "inputs": [
        {
          "internalType": "address",
          "name": "_newOracle",
          "type": "address"
        }
      ],
      "name": "setGelatoGasPriceOracle",
      "outputs": [],
      "stateMutability": "nonpayable",
      "type": "function"
    },
    {
      "inputs": [
        {
          "internalType": "uint256",
          "name": "_newMaxGas",
          "type": "uint256"
        }
      ],
      "name": "setGelatoMaxGas",
      "outputs": [],
      "stateMutability": "nonpayable",
      "type": "function"
    },
    {
      "inputs": [
        {
          "internalType": "uint256",
          "name": "_newRequirement",
          "type": "uint256"
        }
      ],
      "name": "setInternalGasRequirement",
      "outputs": [],
      "stateMutability": "nonpayable",
      "type": "function"
    },
    {
      "inputs": [
        {
          "internalType": "uint256",
          "name": "_newMin",
          "type": "uint256"
        }
      ],
      "name": "setMinExecutorStake",
      "outputs": [],
      "stateMutability": "nonpayable",
      "type": "function"
    },
    {
      "inputs": [
        {
          "internalType": "bytes",
          "name": "_requestData",
          "type": "bytes"
        }
      ],
      "name": "setOracleRequestData",
      "outputs": [],
      "stateMutability": "nonpayable",
      "type": "function"
    },
    {
      "inputs": [
        {
          "internalType": "uint256",
          "name": "_percentage",
          "type": "uint256"
        }
      ],
      "name": "setSysAdminSuccessShare",
      "outputs": [],
      "stateMutability": "nonpayable",
      "type": "function"
    },
    {
      "inputs": [
        {
          "internalType": "bytes32",
          "name": "_taskSpecHash",
          "type": "bytes32"
        },
        {
          "internalType": "uint256",
          "name": "_gasPriceCeil",
          "type": "uint256"
        }
      ],
      "name": "setTaskSpecGasPriceCeil",
      "outputs": [],
      "stateMutability": "nonpayable",
      "type": "function"
    },
    {
      "inputs": [],
      "name": "stakeExecutor",
      "outputs": [],
      "stateMutability": "payable",
      "type": "function"
    },
    {
      "inputs": [
        {
          "components": [
            {
              "internalType": "address",
              "name": "addr",
              "type": "address"
            },
            {
              "internalType": "contract IGelatoProviderModule",
              "name": "module",
              "type": "address"
            }
          ],
          "internalType": "struct Provider",
          "name": "_provider",
          "type": "tuple"
        },
        {
          "components": [
            {
              "components": [
                {
                  "internalType": "contract IGelatoCondition",
                  "name": "inst",
                  "type": "address"
                },
                {
                  "internalType": "bytes",
                  "name": "data",
                  "type": "bytes"
                }
              ],
              "internalType": "struct Condition[]",
              "name": "conditions",
              "type": "tuple[]"
            },
            {
              "components": [
                {
                  "internalType": "address",
                  "name": "addr",
                  "type": "address"
                },
                {
                  "internalType": "bytes",
                  "name": "data",
                  "type": "bytes"
                },
                {
                  "internalType": "enum Operation",
                  "name": "operation",
                  "type": "uint8"
                },
                {
                  "internalType": "enum DataFlow",
                  "name": "dataFlow",
                  "type": "uint8"
                },
                {
                  "internalType": "uint256",
                  "name": "value",
                  "type": "uint256"
                },
                {
                  "internalType": "bool",
                  "name": "termsOkCheck",
                  "type": "bool"
                }
              ],
              "internalType": "struct Action[]",
              "name": "actions",
              "type": "tuple[]"
            },
            {
              "internalType": "uint256",
              "name": "selfProviderGasLimit",
              "type": "uint256"
            },
            {
              "internalType": "uint256",
              "name": "selfProviderGasPriceCeil",
              "type": "uint256"
            }
          ],
          "internalType": "struct Task",
          "name": "_task",
          "type": "tuple"
        },
        {
          "internalType": "uint256",
          "name": "_expiryDate",
          "type": "uint256"
        }
      ],
      "name": "submitTask",
      "outputs": [],
      "stateMutability": "nonpayable",
      "type": "function"
    },
    {
      "inputs": [
        {
          "components": [
            {
              "internalType": "address",
              "name": "addr",
              "type": "address"
            },
            {
              "internalType": "contract IGelatoProviderModule",
              "name": "module",
              "type": "address"
            }
          ],
          "internalType": "struct Provider",
          "name": "_provider",
          "type": "tuple"
        },
        {
          "components": [
            {
              "components": [
                {
                  "internalType": "contract IGelatoCondition",
                  "name": "inst",
                  "type": "address"
                },
                {
                  "internalType": "bytes",
                  "name": "data",
                  "type": "bytes"
                }
              ],
              "internalType": "struct Condition[]",
              "name": "conditions",
              "type": "tuple[]"
            },
            {
              "components": [
                {
                  "internalType": "address",
                  "name": "addr",
                  "type": "address"
                },
                {
                  "internalType": "bytes",
                  "name": "data",
                  "type": "bytes"
                },
                {
                  "internalType": "enum Operation",
                  "name": "operation",
                  "type": "uint8"
                },
                {
                  "internalType": "enum DataFlow",
                  "name": "dataFlow",
                  "type": "uint8"
                },
                {
                  "internalType": "uint256",
                  "name": "value",
                  "type": "uint256"
                },
                {
                  "internalType": "bool",
                  "name": "termsOkCheck",
                  "type": "bool"
                }
              ],
              "internalType": "struct Action[]",
              "name": "actions",
              "type": "tuple[]"
            },
            {
              "internalType": "uint256",
              "name": "selfProviderGasLimit",
              "type": "uint256"
            },
            {
              "internalType": "uint256",
              "name": "selfProviderGasPriceCeil",
              "type": "uint256"
            }
          ],
          "internalType": "struct Task[]",
          "name": "_tasks",
          "type": "tuple[]"
        },
        {
          "internalType": "uint256",
          "name": "_expiryDate",
          "type": "uint256"
        },
        {
          "internalType": "uint256",
          "name": "_sumOfRequestedTaskSubmits",
          "type": "uint256"
        }
      ],
      "name": "submitTaskChain",
      "outputs": [],
      "stateMutability": "nonpayable",
      "type": "function"
    },
    {
      "inputs": [
        {
          "components": [
            {
              "internalType": "address",
              "name": "addr",
              "type": "address"
            },
            {
              "internalType": "contract IGelatoProviderModule",
              "name": "module",
              "type": "address"
            }
          ],
          "internalType": "struct Provider",
          "name": "_provider",
          "type": "tuple"
        },
        {
          "components": [
            {
              "components": [
                {
                  "internalType": "contract IGelatoCondition",
                  "name": "inst",
                  "type": "address"
                },
                {
                  "internalType": "bytes",
                  "name": "data",
                  "type": "bytes"
                }
              ],
              "internalType": "struct Condition[]",
              "name": "conditions",
              "type": "tuple[]"
            },
            {
              "components": [
                {
                  "internalType": "address",
                  "name": "addr",
                  "type": "address"
                },
                {
                  "internalType": "bytes",
                  "name": "data",
                  "type": "bytes"
                },
                {
                  "internalType": "enum Operation",
                  "name": "operation",
                  "type": "uint8"
                },
                {
                  "internalType": "enum DataFlow",
                  "name": "dataFlow",
                  "type": "uint8"
                },
                {
                  "internalType": "uint256",
                  "name": "value",
                  "type": "uint256"
                },
                {
                  "internalType": "bool",
                  "name": "termsOkCheck",
                  "type": "bool"
                }
              ],
              "internalType": "struct Action[]",
              "name": "actions",
              "type": "tuple[]"
            },
            {
              "internalType": "uint256",
              "name": "selfProviderGasLimit",
              "type": "uint256"
            },
            {
              "internalType": "uint256",
              "name": "selfProviderGasPriceCeil",
              "type": "uint256"
            }
          ],
          "internalType": "struct Task[]",
          "name": "_tasks",
          "type": "tuple[]"
        },
        {
          "internalType": "uint256",
          "name": "_expiryDate",
          "type": "uint256"
        },
        {
          "internalType": "uint256",
          "name": "_cycles",
          "type": "uint256"
        }
      ],
      "name": "submitTaskCycle",
      "outputs": [],
      "stateMutability": "nonpayable",
      "type": "function"
    },
    {
      "inputs": [],
      "name": "sysAdminFunds",
      "outputs": [
        {
          "internalType": "uint256",
          "name": "",
          "type": "uint256"
        }
      ],
      "stateMutability": "view",
      "type": "function"
    },
    {
      "inputs": [
        {
          "internalType": "uint256",
          "name": "_gas",
          "type": "uint256"
        },
        {
          "internalType": "uint256",
          "name": "_gasPrice",
          "type": "uint256"
        }
      ],
      "name": "sysAdminSuccessFee",
      "outputs": [
        {
          "internalType": "uint256",
          "name": "",
          "type": "uint256"
        }
      ],
      "stateMutability": "view",
      "type": "function"
    },
    {
      "inputs": [],
      "name": "sysAdminSuccessShare",
      "outputs": [
        {
          "internalType": "uint256",
          "name": "",
          "type": "uint256"
        }
      ],
      "stateMutability": "view",
      "type": "function"
    },
    {
      "inputs": [
        {
          "internalType": "uint256",
          "name": "",
          "type": "uint256"
        }
      ],
      "name": "taskReceiptHash",
      "outputs": [
        {
          "internalType": "bytes32",
          "name": "",
          "type": "bytes32"
        }
      ],
      "stateMutability": "view",
      "type": "function"
    },
    {
      "inputs": [
        {
          "internalType": "address",
          "name": "",
          "type": "address"
        },
        {
          "internalType": "bytes32",
          "name": "",
          "type": "bytes32"
        }
      ],
      "name": "taskSpecGasPriceCeil",
      "outputs": [
        {
          "internalType": "uint256",
          "name": "",
          "type": "uint256"
        }
      ],
      "stateMutability": "view",
      "type": "function"
    },
    {
      "inputs": [],
      "name": "totalSuccessShare",
      "outputs": [
        {
          "internalType": "uint256",
          "name": "",
          "type": "uint256"
        }
      ],
      "stateMutability": "view",
      "type": "function"
    },
    {
      "inputs": [
        {
          "internalType": "address",
          "name": "newOwner",
          "type": "address"
        }
      ],
      "name": "transferOwnership",
      "outputs": [],
      "stateMutability": "nonpayable",
      "type": "function"
    },
    {
      "inputs": [
        {
          "internalType": "uint256",
          "name": "_withdrawAmount",
          "type": "uint256"
        }
      ],
      "name": "unprovideFunds",
      "outputs": [
        {
          "internalType": "uint256",
          "name": "realWithdrawAmount",
          "type": "uint256"
        }
      ],
      "stateMutability": "nonpayable",
      "type": "function"
    },
    {
      "inputs": [
        {
          "components": [
            {
              "internalType": "contract IGelatoCondition[]",
              "name": "conditions",
              "type": "address[]"
            },
            {
              "components": [
                {
                  "internalType": "address",
                  "name": "addr",
                  "type": "address"
                },
                {
                  "internalType": "bytes",
                  "name": "data",
                  "type": "bytes"
                },
                {
                  "internalType": "enum Operation",
                  "name": "operation",
                  "type": "uint8"
                },
                {
                  "internalType": "enum DataFlow",
                  "name": "dataFlow",
                  "type": "uint8"
                },
                {
                  "internalType": "uint256",
                  "name": "value",
                  "type": "uint256"
                },
                {
                  "internalType": "bool",
                  "name": "termsOkCheck",
                  "type": "bool"
                }
              ],
              "internalType": "struct Action[]",
              "name": "actions",
              "type": "tuple[]"
            },
            {
              "internalType": "uint256",
              "name": "gasPriceCeil",
              "type": "uint256"
            }
          ],
          "internalType": "struct TaskSpec[]",
          "name": "_taskSpecs",
          "type": "tuple[]"
        }
      ],
      "name": "unprovideTaskSpecs",
      "outputs": [],
      "stateMutability": "nonpayable",
      "type": "function"
    },
    {
      "inputs": [],
      "name": "unstakeExecutor",
      "outputs": [],
      "stateMutability": "nonpayable",
      "type": "function"
    },
    {
      "inputs": [
        {
          "internalType": "uint256",
          "name": "_withdrawAmount",
          "type": "uint256"
        }
      ],
      "name": "withdrawExcessExecutorStake",
      "outputs": [
        {
          "internalType": "uint256",
          "name": "realWithdrawAmount",
          "type": "uint256"
        }
      ],
      "stateMutability": "nonpayable",
      "type": "function"
    },
    {
      "inputs": [
        {
          "internalType": "uint256",
          "name": "_amount",
          "type": "uint256"
        },
        {
          "internalType": "address payable",
          "name": "_to",
          "type": "address"
        }
      ],
      "name": "withdrawSysAdminFunds",
      "outputs": [
        {
          "internalType": "uint256",
          "name": "realWithdrawAmount",
          "type": "uint256"
        }
      ],
      "stateMutability": "nonpayable",
      "type": "function"
    }
  ],
  "bytecode": "0x60806040523480156200001157600080fd5b506040516200a11d3803806200a11d8339818101604052810190620000379190620003c9565b336000806101000a81548173ffffffffffffffffffffffffffffffffffffffff021916908373ffffffffffffffffffffffffffffffffffffffff1602179055506000809054906101000a900473ffffffffffffffffffffffffffffffffffffffff1673ffffffffffffffffffffffffffffffffffffffff16600073ffffffffffffffffffffffffffffffffffffffff167f8be0079c531659141344cd1fd0a4f28419497f9722a3daafe3b4186f6b6457e060405160405180910390a38060000151600160006101000a81548173ffffffffffffffffffffffffffffffffffffffff021916908373ffffffffffffffffffffffffffffffffffffffff160217905550806020015160029080519060200190620001549291906200019e565b508060400151600381905550806060015160048190555080608001516005819055508060a001516006819055508060c001516007819055508060e001516008819055505062000511565b828054600181600116156101000203166002900490600052602060002090601f016020900481019282601f10620001e157805160ff191683800117855562000212565b8280016001018555821562000212579182015b8281111562000211578251825591602001919060010190620001f4565b5b50905062000221919062000225565b5090565b6200024a91905b80821115620002465760008160009055506001016200022c565b5090565b90565b6000815190506200025e81620004dd565b92915050565b600082601f8301126200027657600080fd5b81516200028d62000287826200043c565b6200040e565b91508082526020830160208301858383011115620002aa57600080fd5b620002b7838284620004a7565b50505092915050565b60006101008284031215620002d457600080fd5b620002e16101006200040e565b90506000620002f3848285016200024d565b600083015250602082015167ffffffffffffffff8111156200031457600080fd5b620003228482850162000264565b60208301525060406200033884828501620003b2565b60408301525060606200034e84828501620003b2565b60608301525060806200036484828501620003b2565b60808301525060a06200037a84828501620003b2565b60a08301525060c06200039084828501620003b2565b60c08301525060e0620003a684828501620003b2565b60e08301525092915050565b600081519050620003c381620004f7565b92915050565b600060208284031215620003dc57600080fd5b600082015167ffffffffffffffff811115620003f757600080fd5b6200040584828501620002c0565b91505092915050565b6000604051905081810181811067ffffffffffffffff821117156200043257600080fd5b8060405250919050565b600067ffffffffffffffff8211156200045457600080fd5b601f19601f8301169050602081019050919050565b600062000476826200047d565b9050919050565b600073ffffffffffffffffffffffffffffffffffffffff82169050919050565b6000819050919050565b60005b83811015620004c7578082015181840152602081019050620004aa565b83811115620004d7576000848401525b50505050565b620004e88162000469565b8114620004f457600080fd5b50565b62000502816200049d565b81146200050e57600080fd5b50565b619bfc80620005216000396000f3fe6080604052600436106103ef5760003560e01c80639075180f11610208578063bf2a458a11610118578063d58b172c116100ab578063e9d1a8a91161007a578063e9d1a8a914610fbf578063f2fde38b14610fe8578063f323609914611011578063f8559c081461104e578063ff92b1a814611077576103ef565b8063d58b172c14610edf578063d922de9914610f1c578063e138d05014610f45578063e61235b714610f82576103ef565b8063ca1efcdb116100e7578063ca1efcdb14610dff578063cf37b49514610e3c578063d378597414610e65578063d3ab1f7a14610ea2576103ef565b8063bf2a458a14610d1f578063c234feb614610d5c578063c6638a8b14610d85578063ca05abe114610dc2576103ef565b8063a4ceb6a31161019b578063b348e2681161016a578063b348e26814610c14578063bac3bf1314610c3d578063bb07c50314610c7a578063bedf04a714610ca5578063beecd49314610ce2576103ef565b8063a4ceb6a314610b8b578063a4fffd2c14610bb6578063b300f75214610be1578063b30f457214610c0a576103ef565b80639a53cb79116101d75780639a53cb7914610af25780639aad379814610b1b5780639d703cdf14610b37578063a4c1225614610b62576103ef565b80639075180f14610a24578063949d879014610a4f57806394caca6f14610a8c57806399b2261714610ab5576103ef565b8063613f2b7d1161030357806385f75f70116102965780638e2e925f116102655780638e2e925f1461093b5780638e68595d146109665780638f01bf77146109a35780638f32d59b146109ce578063905bc3e3146109f9576103ef565b806385f75f701461086d578063888a4a7a146108aa57806388a5e330146108e75780638da5cb5b14610910576103ef565b8063715018a6116102d2578063715018a6146107db57806372d55083146107f25780637c3ceda41461081b5780637f9fe1a214610844576103ef565b8063613f2b7d146106fb5780636264f6981461073857806363905be8146107755780636d00e9a01461079e576103ef565b80631f3bb9bc116103865780633e75a9a8116103555780633e75a9a814610603578063413a0ed31461062c57806348f3c009146106555780634a0880191461069357806352ee5bc7146106d0576103ef565b80631f3bb9bc146105425780632325b1801461057f57806323eaa5df146105bc57806328d0cad7146105e7576103ef565b8063172e7bc9116103c2578063172e7bc91461049c5780631746a2b4146104c7578063193d4922146104f05780631a69e17314610519576103ef565b806302526490146103f45780630b379b181461041d578063114c3bcd1461045a57806311c7662414610471575b600080fd5b34801561040057600080fd5b5061041b60048036038101906104169190616ed5565b6110a0565b005b34801561042957600080fd5b50610444600480360381019061043f91906170a0565b611148565b6040516104519190619177565b60405180910390f35b34801561046657600080fd5b5061046f6112b5565b005b34801561047d57600080fd5b50610486611438565b6040516104939190619177565b60405180910390f35b3480156104a857600080fd5b506104b161143e565b6040516104be9190619177565b60405180910390f35b3480156104d357600080fd5b506104ee60048036038101906104e99190616c27565b611444565b005b3480156104fc57600080fd5b50610517600480360381019061051291906170a0565b61148f565b005b34801561052557600080fd5b50610540600480360381019061053b9190616d42565b61151b565b005b34801561054e57600080fd5b5061056960048036038101906105649190616ff8565b61165f565b6040516105769190618d15565b60405180910390f35b34801561058b57600080fd5b506105a660048036038101906105a19190617184565b611dfa565b6040516105b39190619177565b60405180910390f35b3480156105c857600080fd5b506105d1611e5f565b6040516105de9190619177565b60405180910390f35b61060160048036038101906105fc9190616946565b611e65565b005b34801561060f57600080fd5b5061062a60048036038101906106259190616cc0565b611f96565b005b34801561063857600080fd5b50610653600480360381019061064e9190616d01565b611fcf565b005b34801561066157600080fd5b5061067c60048036038101906106779190616ff8565b6120d0565b60405161068a929190618cb5565b60405180910390f35b34801561069f57600080fd5b506106ba60048036038101906106b59190616a66565b612194565b6040516106c79190618bed565b60405180910390f35b3480156106dc57600080fd5b506106e56121ef565b6040516106f29190619177565b60405180910390f35b34801561070757600080fd5b50610722600480360381019061071d9190616a2a565b6121f5565b60405161072f9190619177565b60405180910390f35b34801561074457600080fd5b5061075f600480360381019061075a9190616946565b61221a565b60405161076c9190619177565b60405180910390f35b34801561078157600080fd5b5061079c600480360381019061079791906170a0565b612232565b005b3480156107aa57600080fd5b506107c560048036038101906107c09190616946565b6122be565b6040516107d29190619177565b60405180910390f35b3480156107e757600080fd5b506107f06122d6565b005b3480156107fe57600080fd5b5061081960048036038101906108149190616c7f565b6123dc565b005b34801561082757600080fd5b50610842600480360381019061083d9190616c7f565b612527565b005b34801561085057600080fd5b5061086b60048036038101906108669190616d01565b612673565b005b34801561087957600080fd5b50610894600480360381019061088f9190616946565b6127dd565b6040516108a19190618bed565b60405180910390f35b3480156108b657600080fd5b506108d160048036038101906108cc9190617184565b61282b565b6040516108de9190619177565b60405180910390f35b3480156108f357600080fd5b5061090e60048036038101906109099190616946565b61288e565b005b34801561091c57600080fd5b50610925612bda565b6040516109329190618b3b565b60405180910390f35b34801561094757600080fd5b50610950612c03565b60405161095d9190619177565b60405180910390f35b34801561097257600080fd5b5061098d60048036038101906109889190616b09565b612c09565b60405161099a9190618d15565b60405180910390f35b3480156109af57600080fd5b506109b8612d3b565b6040516109c59190619177565b60405180910390f35b3480156109da57600080fd5b506109e3612d41565b6040516109f09190618bed565b60405180910390f35b348015610a0557600080fd5b50610a0e612d98565b604051610a1b9190619177565b60405180910390f35b348015610a3057600080fd5b50610a39612d9e565b604051610a469190619177565b60405180910390f35b348015610a5b57600080fd5b50610a766004803603810190610a7191906170a0565b612da4565b604051610a839190618c08565b60405180910390f35b348015610a9857600080fd5b50610ab36004803603810190610aae919061696f565b612dbc565b005b348015610ac157600080fd5b50610adc6004803603810190610ad7919061705f565b6130d8565b604051610ae99190618c08565b60405180910390f35b348015610afe57600080fd5b50610b196004803603810190610b1491906170a0565b61329d565b005b610b356004803603810190610b3091906169ab565b61333a565b005b348015610b4357600080fd5b50610b4c6133a1565b604051610b599190619177565b60405180910390f35b348015610b6e57600080fd5b50610b896004803603810190610b849190616fb7565b6133c5565b005b348015610b9757600080fd5b50610ba0613542565b604051610bad9190618c5a565b60405180910390f35b348015610bc257600080fd5b50610bcb6135e0565b604051610bd89190618b3b565b60405180910390f35b348015610bed57600080fd5b50610c086004803603810190610c039190617105565b613606565b005b610c12613630565b005b348015610c2057600080fd5b50610c3b6004803603810190610c369190616ed5565b613758565b005b348015610c4957600080fd5b50610c646004803603810190610c5f9190616946565b6137b6565b604051610c719190619177565b60405180910390f35b348015610c8657600080fd5b50610c8f6137ce565b604051610c9c9190619177565b60405180910390f35b348015610cb157600080fd5b50610ccc6004803603810190610cc79190616aa2565b6137d4565b604051610cd99190618d15565b60405180910390f35b348015610cee57600080fd5b50610d096004803603810190610d049190616fb7565b613823565b604051610d169190618c08565b60405180910390f35b348015610d2b57600080fd5b50610d466004803603810190610d419190616946565b613853565b604051610d539190618bcb565b60405180910390f35b348015610d6857600080fd5b50610d836004803603810190610d7e91906170a0565b6138a3565b005b348015610d9157600080fd5b50610dac6004803603810190610da791906170a0565b613940565b604051610db99190619177565b60405180910390f35b348015610dce57600080fd5b50610de96004803603810190610de49190616bd8565b613a5c565b604051610df69190618bed565b60405180910390f35b348015610e0b57600080fd5b50610e266004803603810190610e219190616b84565b613ab3565b604051610e339190618d15565b60405180910390f35b348015610e4857600080fd5b50610e636004803603810190610e5e9190616946565b613b92565b005b348015610e7157600080fd5b50610e8c6004803603810190610e879190617184565b613d09565b604051610e999190619177565b60405180910390f35b348015610eae57600080fd5b50610ec96004803603810190610ec49190616aa2565b613d2f565b604051610ed69190618d15565b60405180910390f35b348015610eeb57600080fd5b50610f066004803603810190610f019190616946565b613ec2565b604051610f139190618b3b565b60405180910390f35b348015610f2857600080fd5b50610f436004803603810190610f3e9190616fb7565b613ef5565b005b348015610f5157600080fd5b50610f6c6004803603810190610f679190616b09565b614361565b604051610f799190618d15565b60405180910390f35b348015610f8e57600080fd5b50610fa96004803603810190610fa491906170c9565b614537565b604051610fb69190619177565b60405180910390f35b348015610fcb57600080fd5b50610fe66004803603810190610fe19190616d7e565b61460b565b005b348015610ff457600080fd5b5061100f600480360381019061100a9190616946565b6146a4565b005b34801561101d57600080fd5b5061103860048036038101906110339190616946565b6146f7565b6040516110459190618bed565b60405180910390f35b34801561105a57600080fd5b50611075600480360381019061107091906170a0565b614743565b005b34801561108357600080fd5b5061109e60048036038101906110999190616f50565b6147cf565b005b600081146110ed5782518110156110ec576040517f08c379a00000000000000000000000000000000000000000000000000000000081526004016110e390618f97565b60405180910390fd5b5b836000015173ffffffffffffffffffffffffffffffffffffffff163373ffffffffffffffffffffffffffffffffffffffff16141561112f5761112e8361489b565b5b61114260013386600087876000886149ca565b50505050565b6000611153336127dd565b611192576040517f08c379a000000000000000000000000000000000000000000000000000000000815260040161118990618e17565b60405180910390fd5b6000600b60003373ffffffffffffffffffffffffffffffffffffffff1673ffffffffffffffffffffffffffffffffffffffff1681526020019081526020016000205490506000600554820390506111e98482614ab4565b92506000838303905080600b60003373ffffffffffffffffffffffffffffffffffffffff1673ffffffffffffffffffffffffffffffffffffffff1681526020019081526020016000208190555061125f843373ffffffffffffffffffffffffffffffffffffffff16614acd90919063ffffffff16565b3373ffffffffffffffffffffffffffffffffffffffff167f79dc947028ead97dc90a91709ac7d54ce368511fc330841f2279299375933889856040516112a59190619177565b60405180910390a2505050919050565b6112be336146f7565b156112fe576040517f08c379a00000000000000000000000000000000000000000000000000000000081526004016112f590618ff7565b60405180910390fd5b6000600b60003373ffffffffffffffffffffffffffffffffffffffff1673ffffffffffffffffffffffffffffffffffffffff1681526020019081526020016000205490506000811415611386576040517f08c379a000000000000000000000000000000000000000000000000000000000815260040161137d90619017565b60405180910390fd5b600b60003373ffffffffffffffffffffffffffffffffffffffff1673ffffffffffffffffffffffffffffffffffffffff168152602001908152602001600020600090556113f2813373ffffffffffffffffffffffffffffffffffffffff16614acd90919063ffffffff16565b3373ffffffffffffffffffffffffffffffffffffffff167ffa9bbf66bded823e4fb9b6e3b204382872af75ef0fe0a330d82af5f84256b00e60405160405180910390a250565b60055481565b60085481565b60005b838390508110156114895761147c84848381811061146157fe5b90506020020160208101906114769190616946565b83612dbc565b8080600101915050611447565b50505050565b611497612d41565b6114d6576040517f08c379a00000000000000000000000000000000000000000000000000000000081526004016114cd90618ef7565b60405180910390fd5b7f7ad23e704ae3ade0a94213eb580d92e6e1bce7243aab9eca2584936485d29e1c600554826040516115099291906192c2565b60405180910390a18060058190555050565b6000600e60003373ffffffffffffffffffffffffffffffffffffffff1673ffffffffffffffffffffffffffffffffffffffff1681526020019081526020016000206000848152602001908152602001600020549050818114156115b3576040517f08c379a00000000000000000000000000000000000000000000000000000000081526004016115aa90619037565b60405180910390fd5b81600e60003373ffffffffffffffffffffffffffffffffffffffff1673ffffffffffffffffffffffffffffffffffffffff1681526020019081526020016000206000858152602001908152602001600020819055503373ffffffffffffffffffffffffffffffffffffffff167fc9fec98da4403e7d178ac928f2d08614c7121b0e1ae2fc4f607ebd48c623b48784838560405161165293929190618c23565b60405180910390a2505050565b60606116d1600c600086604001516000015173ffffffffffffffffffffffffffffffffffffffff1673ffffffffffffffffffffffffffffffffffffffff16815260200190815260200160002060009054906101000a900473ffffffffffffffffffffffffffffffffffffffff166127dd565b611712576040518060400160405280601481526020017f4578656375746f724e6f744d696e5374616b65640000000000000000000000008152509050611df3565b6117258460400151600001518484613a5c565b611766576040518060400160405280601381526020017f50726f7669646572496c6c6971756964697479000000000000000000000000008152509050611df3565b60606117848560200151866040015161177e88614bc1565b86612c09565b905061178f81614bec565b61179c5780915050611df3565b60006117a786613823565b90508060116000886000015181526020019081526020016000205414611806576040518060400160405280601681526020017f496e76616c69645461736b52656365697074486173680000000000000000000081525092505050611df3565b60008660a001511415801561181f5750428660a0015111155b15611863576040518060400160405280601281526020017f5461736b5265636569707445787069726564000000000000000000000000000081525092505050611df3565b600061186e87614bc1565b600001515114611a335760005b61188487614bc1565b6000015151811015611a315761189987614bc1565b6000015181815181106118a857fe5b60200260200101516000015173ffffffffffffffffffffffffffffffffffffffff1663a99891c588600001516118dd8a614bc1565b6000015184815181106118ec57fe5b6020026020010151602001518a60c001516040518463ffffffff1660e01b815260040161191b93929190619254565b60006040518083038186803b15801561193357600080fd5b505afa92505050801561196957506040513d6000823e3d601f19601f820116820180604052508101906119669190616e94565b60015b6119eb57611975619833565b8061198057506119ab565b806040516020016119919190618a9e565b604051602081830303815290604052945050505050611df3565b6040518060400160405280601b81526020017f436f6e646974696f6e52657665727465643a756e646566696e656400000000008152509350505050611df3565b6119f481614bec565b611a235780604051602001611a099190618ae2565b604051602081830303815290604052945050505050611df3565b50808060010191505061187b565b505b60005b611a3f87614bc1565b6020015151811015611c6a57611a5487614bc1565b602001518181518110611a6357fe5b602002602001015160a00151611a7857611c5d565b611a8187614bc1565b602001518181518110611a9057fe5b60200260200101516000015173ffffffffffffffffffffffffffffffffffffffff1663eb9e712688600001518960200151611aca8b614bc1565b602001518581518110611ad957fe5b602002602001015160200151611aee8c614bc1565b602001518681518110611afd57fe5b602002602001015160600151611b128d614bc1565b602001518781518110611b2157fe5b6020026020010151608001518d60c001516040518763ffffffff1660e01b8152600401611b53969594939291906191ec565b60006040518083038186803b158015611b6b57600080fd5b505afa925050508015611ba157506040513d6000823e3d601f19601f82011682018060405250810190611b9e9190616e94565b60015b611c2357611bad619833565b80611bb85750611be3565b80604051602001611bc99190618a7c565b604051602081830303815290604052945050505050611df3565b6040518060400160405280601781526020017f416374696f6e52657665727465644e6f4d6573736167650000000000000000008152509350505050611df3565b611c2c81614bec565b611c5b5780604051602001611c419190618ac0565b604051602081830303815290604052945050505050611df3565b505b8080600101915050611a36565b503073ffffffffffffffffffffffffffffffffffffffff163373ffffffffffffffffffffffffffffffffffffffff161415611cde576040518060400160405280600281526020017f4f4b00000000000000000000000000000000000000000000000000000000000081525092505050611df3565b600c600087604001516000015173ffffffffffffffffffffffffffffffffffffffff1673ffffffffffffffffffffffffffffffffffffffff16815260200190815260200160002060009054906101000a900473ffffffffffffffffffffffffffffffffffffffff1673ffffffffffffffffffffffffffffffffffffffff163373ffffffffffffffffffffffffffffffffffffffff161415611db8576040518060400160405280600281526020017f4f4b00000000000000000000000000000000000000000000000000000000000081525092505050611df3565b6040518060400160405280600f81526020017f496e76616c69644578656375746f720000000000000000000000000000000000815250925050505b9392505050565b600080611e108385614cd490919063ffffffff16565b9050611e5460646040518060600160405280602c8152602001619a62602c9139611e4560065485614cd490919063ffffffff16565b614d449092919063ffffffff16565b810191505092915050565b60075481565b60003411611ea8576040517f08c379a0000000000000000000000000000000000000000000000000000000008152600401611e9f90618fd7565b60405180910390fd5b6000611efc34600a60008573ffffffffffffffffffffffffffffffffffffffff1673ffffffffffffffffffffffffffffffffffffffff16815260200190815260200160002054614da590919063ffffffff16565b90508173ffffffffffffffffffffffffffffffffffffffff167f7eb3336aae9a3b461018823bcfbd81627ab3872ec4760568cb69599b3f572c873483604051611f469291906192c2565b60405180910390a280600a60008473ffffffffffffffffffffffffffffffffffffffff1673ffffffffffffffffffffffffffffffffffffffff168152602001908152602001600020819055505050565b60005b8151811015611fcb57611fbe828281518110611fb157fe5b60200260200101516133c5565b8080600101915050611f99565b5050565b60005b81518110156120cc576000828281518110611fe957fe5b6020026020010151604001511415612039577fffffffffffffffffffffffffffffffffffffffffffffffffffffffffffffffff82828151811061202857fe5b602002602001015160400181815250505b600061205783838151811061204a57fe5b60200260200101516130d8565b905061207a8184848151811061206957fe5b60200260200101516040015161151b565b803373ffffffffffffffffffffffffffffffffffffffff167f57eba0f5699d16b2cdc399006d21f172c68772b9eb995702bb087eace7604fe860405160405180910390a3508080600101915050611fd2565b5050565b600060603073ffffffffffffffffffffffffffffffffffffffff163373ffffffffffffffffffffffffffffffffffffffff1614612142576040517f08c379a000000000000000000000000000000000000000000000000000000000815260040161213990618e77565b60405180910390fd5b606061214f86868661165f565b905061215a81614bec565b61216b57600181925092505061218c565b61217486614dfa565b60006040518060200160405280600081525092509250505b935093915050565b60006121e782600f60008673ffffffffffffffffffffffffffffffffffffffff1673ffffffffffffffffffffffffffffffffffffffff1681526020019081526020016000206151ce90919063ffffffff16565b905092915050565b60035481565b600e602052816000526040600020602052806000526040600020600091509150505481565b600d6020528060005260406000206000915090505481565b61223a612d41565b612279576040517f08c379a000000000000000000000000000000000000000000000000000000000815260040161227090618ef7565b60405180910390fd5b7fabed28d8267464321e12f0e7fb50f149327ccd924ca4f97169a81350c0000fcc600454826040516122ac9291906192c2565b60405180910390a18060048190555050565b600b6020528060005260406000206000915090505481565b6122de612d41565b61231d576040517f08c379a000000000000000000000000000000000000000000000000000000000815260040161231490618ef7565b60405180910390fd5b600073ffffffffffffffffffffffffffffffffffffffff166000809054906101000a900473ffffffffffffffffffffffffffffffffffffffff1673ffffffffffffffffffffffffffffffffffffffff167f8be0079c531659141344cd1fd0a4f28419497f9722a3daafe3b4186f6b6457e060405160405180910390a360008060006101000a81548173ffffffffffffffffffffffffffffffffffffffff021916908373ffffffffffffffffffffffffffffffffffffffff160217905550565b60005b815181101561252357612405338383815181106123f857fe5b6020026020010151612194565b612444576040517f08c379a000000000000000000000000000000000000000000000000000000000815260040161243b90618f37565b60405180910390fd5b6124a882828151811061245357fe5b6020026020010151600f60003373ffffffffffffffffffffffffffffffffffffffff1673ffffffffffffffffffffffffffffffffffffffff16815260200190815260200160002061521d90919063ffffffff16565b508181815181106124b557fe5b602002602001015173ffffffffffffffffffffffffffffffffffffffff163373ffffffffffffffffffffffffffffffffffffffff167f7a88170de70a4f05aedbab44658e05b07a34686b1c3044c0a130763e613c34de60405160405180910390a380806001019150506123df565b5050565b60005b815181101561266f576125503383838151811061254357fe5b6020026020010151612194565b15612590576040517f08c379a000000000000000000000000000000000000000000000000000000000815260040161258790618f77565b60405180910390fd5b6125f482828151811061259f57fe5b6020026020010151600f60003373ffffffffffffffffffffffffffffffffffffffff1673ffffffffffffffffffffffffffffffffffffffff16815260200190815260200160002061540b90919063ffffffff16565b5081818151811061260157fe5b602002602001015173ffffffffffffffffffffffffffffffffffffffff163373ffffffffffffffffffffffffffffffffffffffff167f0b25d15701a5ba475e30812c6fb077ee6ecaa9337afe94b54fa2d673a7e264b960405160405180910390a3808060010191505061252a565b5050565b60005b81518110156127d957600061269d83838151811061269057fe5b60200260200101516130d8565b90506000600e60003373ffffffffffffffffffffffffffffffffffffffff1673ffffffffffffffffffffffffffffffffffffffff1681526020019081526020016000206000838152602001908152602001600020541415612733576040517f08c379a000000000000000000000000000000000000000000000000000000000815260040161272a90618e57565b60405180910390fd5b600e60003373ffffffffffffffffffffffffffffffffffffffff1673ffffffffffffffffffffffffffffffffffffffff168152602001908152602001600020600082815260200190815260200160002060009055803373ffffffffffffffffffffffffffffffffffffffff167fb1bd71728ee07f94bcab41c157fcdce5fbdeef0932e50955da5b60dfcb5c02f660405160405180910390a3508080600101915050612676565b5050565b6000600554600b60008473ffffffffffffffffffffffffffffffffffffffff1673ffffffffffffffffffffffffffffffffffffffff1681526020019081526020016000205410159050919050565b6000806128418385614cd490919063ffffffff16565b905061288560646040518060600160405280602e8152602001619b1d602e913961287660075485614cd490919063ffffffff16565b614d449092919063ffffffff16565b91505092915050565b6000600c60003373ffffffffffffffffffffffffffffffffffffffff1673ffffffffffffffffffffffffffffffffffffffff16815260200190815260200160002060009054906101000a900473ffffffffffffffffffffffffffffffffffffffff1690508173ffffffffffffffffffffffffffffffffffffffff168173ffffffffffffffffffffffffffffffffffffffff161415612961576040517f08c379a000000000000000000000000000000000000000000000000000000000815260040161295890619057565b60405180910390fd5b600073ffffffffffffffffffffffffffffffffffffffff168273ffffffffffffffffffffffffffffffffffffffff16146129de5761299e826127dd565b6129dd576040517f08c379a00000000000000000000000000000000000000000000000000000000081526004016129d4906190d7565b60405180910390fd5b5b600073ffffffffffffffffffffffffffffffffffffffff168173ffffffffffffffffffffffffffffffffffffffff1614612a6357600d60008273ffffffffffffffffffffffffffffffffffffffff1673ffffffffffffffffffffffffffffffffffffffff16815260200190815260200160002060008154809291906001900391905055505b81600c60003373ffffffffffffffffffffffffffffffffffffffff1673ffffffffffffffffffffffffffffffffffffffff16815260200190815260200160002060006101000a81548173ffffffffffffffffffffffffffffffffffffffff021916908373ffffffffffffffffffffffffffffffffffffffff160217905550600073ffffffffffffffffffffffffffffffffffffffff168273ffffffffffffffffffffffffffffffffffffffff1614612b6557600d60008373ffffffffffffffffffffffffffffffffffffffff1673ffffffffffffffffffffffffffffffffffffffff168152602001908152602001600020600081548092919060010191905055505b8173ffffffffffffffffffffffffffffffffffffffff168173ffffffffffffffffffffffffffffffffffffffff163373ffffffffffffffffffffffffffffffffffffffff167f1a8b0d27a5b7dcaa3d4823d6e62cb91475b6db3711f348acd68dfd245647046160405160405180910390a45050565b60008060009054906101000a900473ffffffffffffffffffffffffffffffffffffffff16905090565b60065481565b6060836000015173ffffffffffffffffffffffffffffffffffffffff168573ffffffffffffffffffffffffffffffffffffffff161415612c91578183606001511015612c8c576040518060400160405280601881526020017f53656c6650726f766964657247617350726963654365696c00000000000000008152509050612d33565b612d25565b6000612ca4612c9f856154e1565b6130d8565b905082600e6000876000015173ffffffffffffffffffffffffffffffffffffffff1673ffffffffffffffffffffffffffffffffffffffff1681526020019081526020016000206000838152602001908152602001600020541015612d2357604051806060016040528060238152602001619abe60239139915050612d33565b505b612d30858585613d2f565b90505b949350505050565b60045481565b60008060009054906101000a900473ffffffffffffffffffffffffffffffffffffffff1673ffffffffffffffffffffffffffffffffffffffff163373ffffffffffffffffffffffffffffffffffffffff1614905090565b61d6d881565b60095481565b60116020528060005260406000206000915090505481565b6000600c60008473ffffffffffffffffffffffffffffffffffffffff1673ffffffffffffffffffffffffffffffffffffffff16815260200190815260200160002060009054906101000a900473ffffffffffffffffffffffffffffffffffffffff1690503373ffffffffffffffffffffffffffffffffffffffff168173ffffffffffffffffffffffffffffffffffffffff1614612e8e576040517f08c379a0000000000000000000000000000000000000000000000000000000008152600401612e8590618eb7565b60405180910390fd5b8173ffffffffffffffffffffffffffffffffffffffff168173ffffffffffffffffffffffffffffffffffffffff161415612efd576040517f08c379a0000000000000000000000000000000000000000000000000000000008152600401612ef4906190f7565b60405180910390fd5b612f06826127dd565b612f45576040517f08c379a0000000000000000000000000000000000000000000000000000000008152600401612f3c90618fb7565b60405180910390fd5b600d60008273ffffffffffffffffffffffffffffffffffffffff1673ffffffffffffffffffffffffffffffffffffffff168152602001908152602001600020600081548092919060019003919050555081600c60008573ffffffffffffffffffffffffffffffffffffffff1673ffffffffffffffffffffffffffffffffffffffff16815260200190815260200160002060006101000a81548173ffffffffffffffffffffffffffffffffffffffff021916908373ffffffffffffffffffffffffffffffffffffffff160217905550600d60008373ffffffffffffffffffffffffffffffffffffffff1673ffffffffffffffffffffffffffffffffffffffff168152602001908152602001600020600081548092919060010191905055508173ffffffffffffffffffffffffffffffffffffffff168173ffffffffffffffffffffffffffffffffffffffff168473ffffffffffffffffffffffffffffffffffffffff167fd71c850483c235524c816dbe9b5c11d4c3097788bf44f3cea4c969d91432681a60405160405180910390a4505050565b6000606082602001515167ffffffffffffffff811180156130f857600080fd5b5060405190808252806020026020018201604052801561313257816020015b61311f615e05565b8152602001906001900390816131175790505b50905060008090505b83602001515181101561326757613150615e05565b6040518060a001604052808660200151848151811061316b57fe5b60200260200101516000015173ffffffffffffffffffffffffffffffffffffffff168152602001866020015184815181106131a257fe5b60200260200101516040015160018111156131b957fe5b8152602001866020015184815181106131ce57fe5b60200260200101516060015160038111156131e557fe5b81526020016000876020015185815181106131fc57fe5b60200260200101516080015114613214576001613217565b60005b151581526020018660200151848151811061322e57fe5b602002602001015160a00151151581525090508083838151811061324e57fe5b602002602001018190525050808060010191505061313b565b5082600001518160405160200161327f929190618b94565b60405160208183030381529060405280519060200120915050919050565b6132a5612d41565b6132e4576040517f08c379a00000000000000000000000000000000000000000000000000000000081526004016132db90618ef7565b60405180910390fd5b7f0e2413d9141d1b6412c7ba967d457bf348f597f0e5bf6d5f82991c38f8b2923060065482600754840160405161331d939291906192eb565b60405180910390a180600681905550600754810160088190555050565b6000341461334c5761334b33611e65565b5b600073ffffffffffffffffffffffffffffffffffffffff168373ffffffffffffffffffffffffffffffffffffffff161461338a576133898361288e565b5b61339382611fcf565b61339c81612527565b505050565b7fffffffffffffffffffffffffffffffffffffffffffffffffffffffffffffffff81565b806020015173ffffffffffffffffffffffffffffffffffffffff163373ffffffffffffffffffffffffffffffffffffffff161480613436575080604001516000015173ffffffffffffffffffffffffffffffffffffffff163373ffffffffffffffffffffffffffffffffffffffff16145b613475576040517f08c379a000000000000000000000000000000000000000000000000000000000815260040161346c90618d37565b60405180910390fd5b600061348082613823565b905060116000836000015181526020019081526020016000205481146134db576040517f08c379a00000000000000000000000000000000000000000000000000000000081526004016134d290618d77565b60405180910390fd5b6011600083600001518152602001908152602001600020600090553373ffffffffffffffffffffffffffffffffffffffff1682600001517f744b8104621eb036ccd898df8af9eca45fdef9a44758a759b9a02edfc3c2253d60405160405180910390a35050565b60028054600181600116156101000203166002900480601f0160208091040260200160405190810160405280929190818152602001828054600181600116156101000203166002900480156135d85780601f106135ad576101008083540402835291602001916135d8565b820191906000526020600020905b8154815290600101906020018083116135bb57829003601f168201915b505050505081565b600160009054906101000a900473ffffffffffffffffffffffffffffffffffffffff1681565b600083146136195761361783613940565b505b61362282612673565b61362b816123dc565b505050565b6000600b60003373ffffffffffffffffffffffffffffffffffffffff1673ffffffffffffffffffffffffffffffffffffffff168152602001908152602001600020549050600034820190506005548110156136c0576040517f08c379a00000000000000000000000000000000000000000000000000000000081526004016136b790618e97565b60405180910390fd5b80600b60003373ffffffffffffffffffffffffffffffffffffffff1673ffffffffffffffffffffffffffffffffffffffff168152602001908152602001600020819055503373ffffffffffffffffffffffffffffffffffffffff167feb86fbd76202b1fb8ea477263ebbaa0ca039911aebfaa0d93aeaaf8f422d7772838360405161374c9291906192c2565b60405180910390a25050565b836000015173ffffffffffffffffffffffffffffffffffffffff163373ffffffffffffffffffffffffffffffffffffffff16141561379a576137998361489b565b5b6137b0600133866000878760008a5189026149ca565b50505050565b600a6020528060005260406000206000915090505481565b60105481565b60606137de615e64565b6137e7836154e1565b90506137f7846000015182613ab3565b915061380282614bec565b1561381a57613812858585613d2f565b91505061381c565b505b9392505050565b6000816040516020016138369190619117565b604051602081830303815290604052805190602001209050919050565b606061389c600f60008473ffffffffffffffffffffffffffffffffffffffff1673ffffffffffffffffffffffffffffffffffffffff16815260200190815260200160002061551c565b9050919050565b6138ab612d41565b6138ea576040517f08c379a00000000000000000000000000000000000000000000000000000000081526004016138e190618ef7565b60405180910390fd5b7f67e5ac0a08ca541e78d867cdf9766fb1e2e572cc4f1fe4a4f338ba5c585fd20c600754828360065401604051613923939291906192eb565b60405180910390a180600781905550806006540160088190555050565b600080600a60003373ffffffffffffffffffffffffffffffffffffffff1673ffffffffffffffffffffffffffffffffffffffff16815260200190815260200160002054905061398f8382614ab4565b91506000828203905080600a60003373ffffffffffffffffffffffffffffffffffffffff1673ffffffffffffffffffffffffffffffffffffffff16815260200190815260200160002081905550613a05833373ffffffffffffffffffffffffffffffffffffffff16614acd90919063ffffffff16565b3373ffffffffffffffffffffffffffffffffffffffff167fffd57c770591833d795262faf39af705c4e7f7428a2857f5a15b4c6d1c01e09f8483604051613a4d9291906192c2565b60405180910390a25050919050565b6000600a60008573ffffffffffffffffffffffffffffffffffffffff1673ffffffffffffffffffffffffffffffffffffffff16815260200190815260200160002054613aa88484613d09565b111590509392505050565b60606000600e60008573ffffffffffffffffffffffffffffffffffffffff1673ffffffffffffffffffffffffffffffffffffffff1681526020019081526020016000206000613b01856130d8565b8152602001908152602001600020541415613b53576040518060400160405280601381526020017f5461736b537065634e6f7450726f7669646564000000000000000000000000008152509050613b8c565b6040518060400160405280600281526020017f4f4b00000000000000000000000000000000000000000000000000000000000081525090505b92915050565b613b9a612d41565b613bd9576040517f08c379a0000000000000000000000000000000000000000000000000000000008152600401613bd090618ef7565b60405180910390fd5b600073ffffffffffffffffffffffffffffffffffffffff168173ffffffffffffffffffffffffffffffffffffffff161415613c49576040517f08c379a0000000000000000000000000000000000000000000000000000000008152600401613c4090619097565b60405180910390fd5b8073ffffffffffffffffffffffffffffffffffffffff16600160009054906101000a900473ffffffffffffffffffffffffffffffffffffffff1673ffffffffffffffffffffffffffffffffffffffff167f3d30b06f36978acd3a6f74d861ea1b0e6d1ebe3d9d65a0e4c738d1b680a70f3a60405160405180910390a380600160006101000a81548173ffffffffffffffffffffffffffffffffffffffff021916908373ffffffffffffffffffffffffffffffffffffffff16021790555050565b600080828461d6d8010290506064600854820281613d2357fe5b04810191505092915050565b6060613d4383600001518460200151612194565b613d84576040518060400160405280601581526020017f496e76616c696450726f76696465724d6f64756c6500000000000000000000008152509050613ebb565b826000015173ffffffffffffffffffffffffffffffffffffffff168473ffffffffffffffffffffffffffffffffffffffff1614613e82576000836020015190508073ffffffffffffffffffffffffffffffffffffffff16633f17c3df868660000151866040518463ffffffff1660e01b8152600401613e0593929190618b56565b60006040518083038186803b158015613e1d57600080fd5b505afa925050508015613e5357506040513d6000823e3d601f19601f82011682018060405250810190613e509190616e94565b60015b613e7857604051806060016040528060248152602001619a1a60249139915050613ebb565b8092505050613ebb565b6040518060400160405280600281526020017f4f4b00000000000000000000000000000000000000000000000000000000000081525090505b9392505050565b600c6020528060005260406000206000915054906101000a900473ffffffffffffffffffffffffffffffffffffffff1681565b60005a90506000613f04615618565b9050803a1015613f49576040517f08c379a0000000000000000000000000000000000000000000000000000000008152600401613f4090618e37565b60405180910390fd5b600c600084604001516000015173ffffffffffffffffffffffffffffffffffffffff1673ffffffffffffffffffffffffffffffffffffffff16815260200190815260200160002060009054906101000a900473ffffffffffffffffffffffffffffffffffffffff1673ffffffffffffffffffffffffffffffffffffffff163373ffffffffffffffffffffffffffffffffffffffff161461401e576040517f08c379a000000000000000000000000000000000000000000000000000000000815260040161401590618f57565b60405180910390fd5b60006140298461573f565b61403557600354614043565b61403e84614bc1565b604001515b9050600060603073ffffffffffffffffffffffffffffffffffffffff166348f3c0096140946004546040518060600160405280602181526020016199f9602191395a6157839092919063ffffffff16565b8886886040518563ffffffff1660e01b81526004016140b593929190619139565b600060405180830381600088803b1580156140cf57600080fd5b5087f19350505050801561410657506040513d6000823e3d601f19601f820116820180604052508101906141039190616e17565b60015b61414f57614112619833565b8061411d575061412a565b600292508091505061414a565b60029150604051806060016040528060258152602001619ba26025913990505b614158565b81935080925050505b6000600281111561416557fe5b82600281111561417157fe5b14156141f057600080614190886040015160000151600089888a6157de565b9150915087600001513373ffffffffffffffffffffffffffffffffffffffff167f24676369d56b822255a2ba8afa7c68231dbbb5d324cd311d023fd37554da594e84846040516141e19291906192c2565b60405180910390a35050614359565b600160028111156141fd57fe5b82600281111561420957fe5b14156142675785600001513373ffffffffffffffffffffffffffffffffffffffff167f5d326d4f0aa3ba9e690e44880c6750bdb3b93089be85717401ac419ae2c942a28360405161425a9190618d15565b60405180910390a3614358565b828510156142ca5785600001513373ffffffffffffffffffffffffffffffffffffffff167f582386e898e6a2854d5cc88154e27da9816ef33b0a260f010f2c17f3b385f9e66000846040516142bd929190618ce5565b60405180910390a3614357565b60116000876000015181526020019081526020016000206000905560006142fd87604001516000015160018887896157de565b50905086600001513373ffffffffffffffffffffffffffffffffffffffff167f582386e898e6a2854d5cc88154e27da9816ef33b0a260f010f2c17f3b385f9e6838560405161434d929190619292565b60405180910390a3505b5b5b505050505050565b60606143cf600c6000866000015173ffffffffffffffffffffffffffffffffffffffff1673ffffffffffffffffffffffffffffffffffffffff16815260200190815260200160002060009054906101000a900473ffffffffffffffffffffffffffffffffffffffff166127dd565b6143f357604051806060016040528060308152602001619a8e60309139905061452f565b60008214614424574282101561442357604051806060016040528060248152602001619a3e60249139905061452f565b5b6060846000015173ffffffffffffffffffffffffffffffffffffffff168673ffffffffffffffffffffffffffffffffffffffff1614156144b2576144746002600454614cd490919063ffffffff16565b846040015110156144a057604051806060016040528060358152602001619b6d6035913991505061452f565b6144ab868686613d2f565b90506144c0565b6144bd8686866137d4565b90505b6144c981614bec565b6144f557806040516020016144de9190618a38565b60405160208183030381529060405291505061452f565b6040518060400160405280600281526020017f4f4b0000000000000000000000000000000000000000000000000000000000008152509150505b949350505050565b6000614541612d41565b614580576040517f08c379a000000000000000000000000000000000000000000000000000000000815260040161457790618ef7565b60405180910390fd5b600060095490506145918482614ab4565b915060008282039050806009819055506145ca838573ffffffffffffffffffffffffffffffffffffffff16614acd90919063ffffffff16565b7f555f142d04d5fd169d7709fec5eda01b4d671371a74cda4734159a9863a13cd182826040516145fb9291906192c2565b60405180910390a1505092915050565b614613612d41565b614652576040517f08c379a000000000000000000000000000000000000000000000000000000000815260040161464990618ef7565b60405180910390fd5b7f980ecf343395980880528aff1988eab2b3c7284da56044b30cc0af8cb72bac356002838360405161468693929190618c7c565b60405180910390a181816002919061469f929190615e85565b505050565b6146ac612d41565b6146eb576040517f08c379a00000000000000000000000000000000000000000000000000000000081526004016146e290618ef7565b60405180910390fd5b6146f481615a7b565b50565b600080600d60008473ffffffffffffffffffffffffffffffffffffffff1673ffffffffffffffffffffffffffffffffffffffff1681526020019081526020016000205414159050919050565b61474b612d41565b61478a576040517f08c379a000000000000000000000000000000000000000000000000000000000815260040161478190618ef7565b60405180910390fd5b7fc6e11d62bd8aab57eb4e534cf62d7f0c9670522681d2559de9ac3ff7ef8325d3600354826040516147bd9291906192c2565b60405180910390a18060038190555050565b6060600167ffffffffffffffff811180156147e957600080fd5b5060405190808252806020026020018201604052801561482357816020015b614810615f05565b8152602001906001900390816148085790505b509050828160008151811061483457fe5b6020026020010181905250836000015173ffffffffffffffffffffffffffffffffffffffff163373ffffffffffffffffffffffffffffffffffffffff161415614881576148808161489b565b5b6148956000338660008587600060016149ca565b50505050565b60005b81518110156149c65760008282815181106148b557fe5b60200260200101516040015114156148eb576003548282815181106148d657fe5b6020026020010151604001818152505061495b565b6149016002600454614cd490919063ffffffff16565b82828151811061490d57fe5b602002602001015160400151101561495a576040517f08c379a000000000000000000000000000000000000000000000000000000000815260040161495190618df7565b60405180910390fd5b5b600082828151811061496957fe5b60200260200101516060015114156149b9577fffffffffffffffffffffffffffffffffffffffffffffffffffffffffffffffff8282815181106149a857fe5b602002602001015160600181815250505b808060010191505061489e565b5050565b60006001601054019050806010819055506149e3615f2d565b6040518061010001604052808381526020018a73ffffffffffffffffffffffffffffffffffffffff1681526020018981526020018881526020018781526020018681526020018b614a345785614a36565b835b81526020018481525090506000614a4c82613823565b9050806011600084600001518152602001908152602001600020819055508082600001517f77be3ee486c6101ef6d894d85101234637da624e1bc54f11bd8e97174564b08e84604051614a9f9190619117565b60405180910390a35050505050505050505050565b6000818310614ac35781614ac5565b825b905092915050565b80471015614b10576040517f08c379a0000000000000000000000000000000000000000000000000000000008152600401614b0790618dd7565b60405180910390fd5b60008273ffffffffffffffffffffffffffffffffffffffff1682604051614b3690618b26565b60006040518083038185875af1925050503d8060008114614b73576040519150601f19603f3d011682016040523d82523d6000602084013e614b78565b606091505b5050905080614bbc576040517f08c379a0000000000000000000000000000000000000000000000000000000008152600401614bb390618db7565b60405180910390fd5b505050565b614bc9615f05565b8160800151826060015181518110614bdd57fe5b60200260200101519050919050565b60006002825110158015614c5857507f4f0000000000000000000000000000000000000000000000000000000000000082600081518110614c2957fe5b602001015160f81c60f81b7effffffffffffffffffffffffffffffffffffffffffffffffffffffffffffff1916145b8015614cbc57507f4b0000000000000000000000000000000000000000000000000000000000000082600181518110614c8d57fe5b602001015160f81c60f81b7effffffffffffffffffffffffffffffffffffffffffffffffffffffffffffff1916145b15614cca5760019050614ccf565b600090505b919050565b600080831415614ce75760009050614d3e565b6000828402905082848281614cf857fe5b0414614d39576040517f08c379a0000000000000000000000000000000000000000000000000000000008152600401614d3090618ed7565b60405180910390fd5b809150505b92915050565b60008083118290614d8b576040517f08c379a0000000000000000000000000000000000000000000000000000000008152600401614d829190618d15565b60405180910390fd5b506000838581614d9757fe5b049050809150509392505050565b600080828401905083811015614df0576040517f08c379a0000000000000000000000000000000000000000000000000000000008152600401614de790618d97565b60405180910390fd5b8091505092915050565b6060600082604001516020015173ffffffffffffffffffffffffffffffffffffffff166306fca72884600001518560200151866040015160000151614e3e88614bc1565b8860c001516040518663ffffffff1660e01b8152600401614e63959493929190619192565b60006040518083038186803b158015614e7b57600080fd5b505afa925050508015614eb157506040513d6000823e3d601f19601f82011682018060405250810190614eae9190616dc3565b60015b614f5f57614ebd619833565b80614ec85750614f24565b80604051602001614ed99190618b04565b6040516020818303038152906040526040517f08c379a0000000000000000000000000000000000000000000000000000000008152600401614f1b9190618d15565b60405180910390fd5b6040517f08c379a0000000000000000000000000000000000000000000000000000000008152600401614f5690619077565b60405180910390fd5b819350809250505060116000846000015181526020019081526020016000206000905560006060846020015173ffffffffffffffffffffffffffffffffffffffff1684604051614faf91906189a2565b6000604051808303816000865af19150503d8060008114614fec576040519150601f19603f3d011682016040523d82523d6000602084013e614ff1565b606091505b50915091508180156150005750825b1561511e5784604001516020015173ffffffffffffffffffffffffffffffffffffffff16633e88ecf4826040518263ffffffff1660e01b81526004016150469190618c5a565b60006040518083038186803b15801561505e57600080fd5b505afa92505050801561506f575060015b61511d5761507b619833565b8061508657506150e2565b806040516020016150979190618a5a565b6040516020818303038152906040526040517f08c379a00000000000000000000000000000000000000000000000000000000081526004016150d99190618d15565b60405180910390fd5b6040517f08c379a0000000000000000000000000000000000000000000000000000000008152600401615114906190b7565b60405180910390fd5b5b811561517e5760018560e00151146151795761517860008660200151876040015161514889615ba9565b89608001518a60a001518b60c0015160008d60e00151146151705760018d60e0015103615173565b60005b6149ca565b5b6151c7565b6151c66040518060400160405280601181526020017f47656c61746f436f72652e5f657865633a00000000000000000000000000000081525082615bd590919063ffffffff16565b5b5050505050565b6000808360000160008473ffffffffffffffffffffffffffffffffffffffff1673ffffffffffffffffffffffffffffffffffffffff168152602001908152602001600020541415905092915050565b600061522983836151ce565b1561540057600060018460000160008573ffffffffffffffffffffffffffffffffffffffff1673ffffffffffffffffffffffffffffffffffffffff1681526020019081526020016000205403905060006001856001018054905003905081811461536e57600085600101828154811061529e57fe5b9060005260206000200160009054906101000a900473ffffffffffffffffffffffffffffffffffffffff169050808660010184815481106152db57fe5b9060005260206000200160006101000a81548173ffffffffffffffffffffffffffffffffffffffff021916908373ffffffffffffffffffffffffffffffffffffffff160217905550600183018660000160008373ffffffffffffffffffffffffffffffffffffffff1673ffffffffffffffffffffffffffffffffffffffff16815260200190815260200160002081905550505b8460000160008573ffffffffffffffffffffffffffffffffffffffff1673ffffffffffffffffffffffffffffffffffffffff16815260200190815260200160002060009055846001018054806153c057fe5b6001900381819060005260206000200160006101000a81549073ffffffffffffffffffffffffffffffffffffffff02191690559055600192505050615405565b600090505b92915050565b600061541783836151ce565b6154d65782600101829080600181540180825580915050600190039060005260206000200160009091909190916101000a81548173ffffffffffffffffffffffffffffffffffffffff021916908373ffffffffffffffffffffffffffffffffffffffff16021790555082600101805490508360000160008473ffffffffffffffffffffffffffffffffffffffff1673ffffffffffffffffffffffffffffffffffffffff16815260200190815260200160002081905550600190506154db565b600090505b92915050565b6154e9615e64565b60405180606001604052806155018460000151615d3c565b81526020018360200151815260200160008152509050919050565b606080826001018054905067ffffffffffffffff8111801561553d57600080fd5b5060405190808252806020026020018201604052801561556c5781602001602082028036833780820191505090505b50905060005b836001018054905081101561560e5783600101818154811061559057fe5b9060005260206000200160009054906101000a900473ffffffffffffffffffffffffffffffffffffffff168282815181106155c757fe5b602002602001019073ffffffffffffffffffffffffffffffffffffffff16908173ffffffffffffffffffffffffffffffffffffffff16815250508080600101915050615572565b5080915050919050565b6000806060600160009054906101000a900473ffffffffffffffffffffffffffffffffffffffff1673ffffffffffffffffffffffffffffffffffffffff16600260405161566591906189b9565b600060405180830381855afa9150503d80600081146156a0576040519150601f19603f3d011682016040523d82523d6000602084013e6156a5565b606091505b5091509150816156db576156da604051806060016040528060228152602001619b4b6022913982615bd590919063ffffffff16565b5b6000818060200190518101906156f19190616e6b565b905060008113615736576040517f08c379a000000000000000000000000000000000000000000000000000000000815260040161572d90618f17565b60405180910390fd5b80935050505090565b6000816020015173ffffffffffffffffffffffffffffffffffffffff1682604001516000015173ffffffffffffffffffffffffffffffffffffffff16149050919050565b60008383111582906157cb576040517f08c379a00000000000000000000000000000000000000000000000000000000081526004016157c29190618d15565b60405180910390fd5b5060008385039050809150509392505050565b60008060005a8603905060008582106157fb5761d6d88601615801565b61d6d882015b90506000600181111561581057fe5b88600181111561581c57fe5b141561595d5761582c8186611dfa565b9350615838818661282b565b92506158b86158508486614da590919063ffffffff16565b6040518060600160405280603c8152602001619ae1603c9139600a60008d73ffffffffffffffffffffffffffffffffffffffff1673ffffffffffffffffffffffffffffffffffffffff168152602001908152602001600020546157839092919063ffffffff16565b600a60008b73ffffffffffffffffffffffffffffffffffffffff1673ffffffffffffffffffffffffffffffffffffffff1681526020019081526020016000208190555083600b60003373ffffffffffffffffffffffffffffffffffffffff1673ffffffffffffffffffffffffffffffffffffffff1681526020019081526020016000206000828254019250508190555082600960008282540192505081905550615a6f565b6159708582614cd490919063ffffffff16565b93506159de846040518060600160405280603c8152602001619ae1603c9139600a60008d73ffffffffffffffffffffffffffffffffffffffff1673ffffffffffffffffffffffffffffffffffffffff168152602001908152602001600020546157839092919063ffffffff16565b600a60008b73ffffffffffffffffffffffffffffffffffffffff1673ffffffffffffffffffffffffffffffffffffffff1681526020019081526020016000208190555083600b60003373ffffffffffffffffffffffffffffffffffffffff1673ffffffffffffffffffffffffffffffffffffffff168152602001908152602001600020600082825401925050819055505b50509550959350505050565b600073ffffffffffffffffffffffffffffffffffffffff168173ffffffffffffffffffffffffffffffffffffffff161415615aeb576040517f08c379a0000000000000000000000000000000000000000000000000000000008152600401615ae290618d57565b60405180910390fd5b8073ffffffffffffffffffffffffffffffffffffffff166000809054906101000a900473ffffffffffffffffffffffffffffffffffffffff1673ffffffffffffffffffffffffffffffffffffffff167f8be0079c531659141344cd1fd0a4f28419497f9722a3daafe3b4186f6b6457e060405160405180910390a3806000806101000a81548173ffffffffffffffffffffffffffffffffffffffff021916908373ffffffffffffffffffffffffffffffffffffffff16021790555050565b6000600182608001515103826060015114615bcb576001826060015101615bce565b60005b9050919050565b60046020835181615be257fe5b061415615ce0576000826020015190506308c379a060e01b817bffffffffffffffffffffffffffffffffffffffffffffffffffffffff19161415615c84576044830192508183604051602001615c399291906189d0565b6040516020818303038152906040526040517f08c379a0000000000000000000000000000000000000000000000000000000008152600401615c7b9190618d15565b60405180910390fd5b81604051602001615c9591906189f4565b6040516020818303038152906040526040517f08c379a0000000000000000000000000000000000000000000000000000000008152600401615cd79190618d15565b60405180910390fd5b80604051602001615cf19190618a16565b6040516020818303038152906040526040517f08c379a0000000000000000000000000000000000000000000000000000000008152600401615d339190618d15565b60405180910390fd5b6060815167ffffffffffffffff81118015615d5657600080fd5b50604051908082528060200260200182016040528015615d855781602001602082028036833780820191505090505b50905060005b8251811015615dff57828181518110615da057fe5b602002602001015160000151828281518110615db857fe5b602002602001019073ffffffffffffffffffffffffffffffffffffffff16908173ffffffffffffffffffffffffffffffffffffffff16815250508080600101915050615d8b565b50919050565b6040518060a00160405280600073ffffffffffffffffffffffffffffffffffffffff16815260200160006001811115615e3a57fe5b815260200160006003811115615e4c57fe5b81526020016000151581526020016000151581525090565b60405180606001604052806060815260200160608152602001600081525090565b828054600181600116156101000203166002900490600052602060002090601f016020900481019282601f10615ec657803560ff1916838001178555615ef4565b82800160010185558215615ef4579182015b82811115615ef3578235825591602001919060010190615ed8565b5b509050615f019190615f8e565b5090565b6040518060800160405280606081526020016060815260200160008152602001600081525090565b60405180610100016040528060008152602001600073ffffffffffffffffffffffffffffffffffffffff168152602001615f65615fb3565b815260200160008152602001606081526020016000815260200160008152602001600081525090565b615fb091905b80821115615fac576000816000905550600101615f94565b5090565b90565b6040518060400160405280600073ffffffffffffffffffffffffffffffffffffffff168152602001600073ffffffffffffffffffffffffffffffffffffffff1681525090565b60008135905061600881619910565b92915050565b60008135905061601d81619927565b92915050565b60008083601f84011261603557600080fd5b8235905067ffffffffffffffff81111561604e57600080fd5b60208301915083602082028301111561606657600080fd5b9250929050565b600082601f83011261607e57600080fd5b813561609161608c8261934f565b619322565b915081818352602084019350602081019050838560208402820111156160b657600080fd5b60005b838110156160e657816160cc88826164e8565b8452602084019350602083019250506001810190506160b9565b5050505092915050565b600082601f83011261610157600080fd5b813561611461610f82619377565b619322565b9150818183526020840193506020810190508385602084028201111561613957600080fd5b60005b83811015616169578161614f88826164fd565b84526020840193506020830192505060018101905061613c565b5050505092915050565b600082601f83011261618457600080fd5b81356161976161928261939f565b619322565b9150818183526020840193506020810190508360005b838110156161dd57813586016161c388826165ba565b8452602084019350602083019250506001810190506161ad565b5050505092915050565b600082601f8301126161f857600080fd5b813561620b616206826193c7565b619322565b9150818183526020840193506020810190508360005b838110156162515781358601616237888261666e565b845260208401935060208301925050600181019050616221565b5050505092915050565b600082601f83011261626c57600080fd5b813561627f61627a826193ef565b619322565b9150818183526020840193506020810190508360005b838110156162c557813586016162ab888261671e565b845260208401935060208301925050600181019050616295565b5050505092915050565b600082601f8301126162e057600080fd5b81356162f36162ee82619417565b619322565b9150818183526020840193506020810190508360005b83811015616339578135860161631f88826167fd565b845260208401935060208301925050600181019050616309565b5050505092915050565b600082601f83011261635457600080fd5b81356163676163628261943f565b619322565b9150818183526020840193506020810190508360005b838110156163ad5781358601616393888261688d565b84526020840193506020830192505060018101905061637d565b5050505092915050565b6000813590506163c68161993e565b92915050565b6000815190506163db8161993e565b92915050565b6000813590506163f081619955565b92915050565b60008083601f84011261640857600080fd5b8235905067ffffffffffffffff81111561642157600080fd5b60208301915083600182028301111561643957600080fd5b9250929050565b600082601f83011261645157600080fd5b813561646461645f82619467565b619322565b9150808252602083016020830185838301111561648057600080fd5b61648b8382846197d3565b50505092915050565b600082601f8301126164a557600080fd5b81516164b86164b382619467565b619322565b915080825260208301602083018583830111156164d457600080fd5b6164df8382846197e2565b50505092915050565b6000813590506164f78161996c565b92915050565b60008135905061650c81619983565b92915050565b6000813590506165218161999a565b92915050565b600081519050616536816199aa565b92915050565b60008135905061654b816199ba565b92915050565b600081519050616560816199ca565b92915050565b600082601f83011261657757600080fd5b815161658a61658582619493565b619322565b915080825260208301602083018583830111156165a657600080fd5b6165b18382846197e2565b50505092915050565b600060c082840312156165cc57600080fd5b6165d660c0619322565b905060006165e684828501615ff9565b600083015250602082013567ffffffffffffffff81111561660657600080fd5b61661284828501616440565b60208301525060406166268482850161653c565b604083015250606061663a84828501616512565b606083015250608061664e84828501616931565b60808301525060a0616662848285016163b7565b60a08301525092915050565b60006040828403121561668057600080fd5b61668a6040619322565b9050600061669a848285016164e8565b600083015250602082013567ffffffffffffffff8111156166ba57600080fd5b6166c684828501616440565b60208301525092915050565b6000604082840312156166e457600080fd5b6166ee6040619322565b905060006166fe84828501615ff9565b6000830152506020616712848285016164fd565b60208301525092915050565b6000610120828403121561673157600080fd5b61673c610100619322565b9050600061674c84828501616931565b600083015250602061676084828501615ff9565b6020830152506040616774848285016166d2565b604083015250608061678884828501616931565b60608301525060a082013567ffffffffffffffff8111156167a857600080fd5b6167b484828501616343565b60808301525060c06167c884828501616931565b60a08301525060e06167dc84828501616931565b60c0830152506101006167f184828501616931565b60e08301525092915050565b60006060828403121561680f57600080fd5b6168196060619322565b9050600082013567ffffffffffffffff81111561683557600080fd5b6168418482850161606d565b600083015250602082013567ffffffffffffffff81111561686157600080fd5b61686d84828501616173565b602083015250604061688184828501616931565b60408301525092915050565b60006080828403121561689f57600080fd5b6168a96080619322565b9050600082013567ffffffffffffffff8111156168c557600080fd5b6168d1848285016161e7565b600083015250602082013567ffffffffffffffff8111156168f157600080fd5b6168fd84828501616173565b602083015250604061691184828501616931565b604083015250606061692584828501616931565b60608301525092915050565b600081359050616940816199e1565b92915050565b60006020828403121561695857600080fd5b600061696684828501615ff9565b91505092915050565b6000806040838503121561698257600080fd5b600061699085828601615ff9565b92505060206169a185828601615ff9565b9150509250929050565b6000806000606084860312156169c057600080fd5b60006169ce86828701615ff9565b935050602084013567ffffffffffffffff8111156169eb57600080fd5b6169f7868287016162cf565b925050604084013567ffffffffffffffff811115616a1457600080fd5b616a20868287016160f0565b9150509250925092565b60008060408385031215616a3d57600080fd5b6000616a4b85828601615ff9565b9250506020616a5c858286016163e1565b9150509250929050565b60008060408385031215616a7957600080fd5b6000616a8785828601615ff9565b9250506020616a98858286016164fd565b9150509250929050565b600080600060808486031215616ab757600080fd5b6000616ac586828701615ff9565b9350506020616ad6868287016166d2565b925050606084013567ffffffffffffffff811115616af357600080fd5b616aff8682870161688d565b9150509250925092565b60008060008060a08587031215616b1f57600080fd5b6000616b2d87828801615ff9565b9450506020616b3e878288016166d2565b935050606085013567ffffffffffffffff811115616b5b57600080fd5b616b678782880161688d565b9250506080616b7887828801616931565b91505092959194509250565b60008060408385031215616b9757600080fd5b6000616ba585828601615ff9565b925050602083013567ffffffffffffffff811115616bc257600080fd5b616bce858286016167fd565b9150509250929050565b600080600060608486031215616bed57600080fd5b6000616bfb86828701615ff9565b9350506020616c0c86828701616931565b9250506040616c1d86828701616931565b9150509250925092565b600080600060408486031215616c3c57600080fd5b600084013567ffffffffffffffff811115616c5657600080fd5b616c6286828701616023565b93509350506020616c7586828701615ff9565b9150509250925092565b600060208284031215616c9157600080fd5b600082013567ffffffffffffffff811115616cab57600080fd5b616cb7848285016160f0565b91505092915050565b600060208284031215616cd257600080fd5b600082013567ffffffffffffffff811115616cec57600080fd5b616cf88482850161625b565b91505092915050565b600060208284031215616d1357600080fd5b600082013567ffffffffffffffff811115616d2d57600080fd5b616d39848285016162cf565b91505092915050565b60008060408385031215616d5557600080fd5b6000616d63858286016163e1565b9250506020616d7485828601616931565b9150509250929050565b60008060208385031215616d9157600080fd5b600083013567ffffffffffffffff811115616dab57600080fd5b616db7858286016163f6565b92509250509250929050565b60008060408385031215616dd657600080fd5b600083015167ffffffffffffffff811115616df057600080fd5b616dfc85828601616494565b9250506020616e0d858286016163cc565b9150509250929050565b60008060408385031215616e2a57600080fd5b6000616e3885828601616527565b925050602083015167ffffffffffffffff811115616e5557600080fd5b616e6185828601616566565b9150509250929050565b600060208284031215616e7d57600080fd5b6000616e8b84828501616551565b91505092915050565b600060208284031215616ea657600080fd5b600082015167ffffffffffffffff811115616ec057600080fd5b616ecc84828501616566565b91505092915050565b60008060008060a08587031215616eeb57600080fd5b6000616ef9878288016166d2565b945050604085013567ffffffffffffffff811115616f1657600080fd5b616f2287828801616343565b9350506060616f3387828801616931565b9250506080616f4487828801616931565b91505092959194509250565b600080600060808486031215616f6557600080fd5b6000616f73868287016166d2565b935050604084013567ffffffffffffffff811115616f9057600080fd5b616f9c8682870161688d565b9250506060616fad86828701616931565b9150509250925092565b600060208284031215616fc957600080fd5b600082013567ffffffffffffffff811115616fe357600080fd5b616fef8482850161671e565b91505092915050565b60008060006060848603121561700d57600080fd5b600084013567ffffffffffffffff81111561702757600080fd5b6170338682870161671e565b935050602061704486828701616931565b925050604061705586828701616931565b9150509250925092565b60006020828403121561707157600080fd5b600082013567ffffffffffffffff81111561708b57600080fd5b617097848285016167fd565b91505092915050565b6000602082840312156170b257600080fd5b60006170c084828501616931565b91505092915050565b600080604083850312156170dc57600080fd5b60006170ea85828601616931565b92505060206170fb8582860161600e565b9150509250929050565b60008060006060848603121561711a57600080fd5b600061712886828701616931565b935050602084013567ffffffffffffffff81111561714557600080fd5b617151868287016162cf565b925050604084013567ffffffffffffffff81111561716e57600080fd5b61717a868287016160f0565b9150509250925092565b6000806040838503121561719757600080fd5b60006171a585828601616931565b92505060206171b685828601616931565b9150509250929050565b60006171cc83836176f5565b60208301905092915050565b60006171e48383617704565b60208301905092915050565b60006171fc83836186a2565b905092915050565b6000617210838361872b565b905092915050565b60006172248383618768565b60a08301905092915050565b600061723c83836188b0565b905092915050565b61724d81619678565b82525050565b61725c81619678565b82525050565b600061726d82619534565b61727781856195da565b9350617282836194bf565b8060005b838110156172b357815161729a88826171c0565b97506172a58361958c565b925050600181019050617286565b5085935050505092915050565b60006172cb8261953f565b6172d581856195da565b93506172e0836194cf565b8060005b838110156173115781516172f888826171d8565b975061730383619599565b9250506001810190506172e4565b5085935050505092915050565b60006173298261954a565b61733381856195eb565b935083602082028501617345856194df565b8060005b85811015617381578484038952815161736285826171f0565b945061736d836195a6565b925060208a01995050600181019050617349565b50829750879550505050505092915050565b600061739e82619555565b6173a881856195fc565b9350836020820285016173ba856194ef565b8060005b858110156173f657848403895281516173d78582617204565b94506173e2836195b3565b925060208a019950506001810190506173be565b50829750879550505050505092915050565b600061741382619560565b61741d818561960d565b9350617428836194ff565b8060005b838110156174595781516174408882617218565b975061744b836195c0565b92505060018101905061742c565b5085935050505092915050565b60006174718261956b565b61747b818561961e565b93508360208202850161748d8561950f565b8060005b858110156174c957848403895281516174aa8582617230565b94506174b5836195cd565b925060208a01995050600181019050617491565b50829750879550505050505092915050565b6174e48161969c565b82525050565b6174f38161969c565b82525050565b617502816196a8565b82525050565b60006175148385619640565b93506175218385846197d3565b61752a83619815565b840190509392505050565b600061754082619576565b61754a818561962f565b935061755a8185602086016197e2565b61756381619815565b840191505092915050565b600061757982619576565b6175838185619640565b93506175938185602086016197e2565b61759c81619815565b840191505092915050565b60006175b282619576565b6175bc8185619651565b93506175cc8185602086016197e2565b80840191505092915050565b6000815460018116600081146175f5576001811461761b5761765f565b607f60028304166176068187619640565b955060ff19831686526020860193505061765f565b600282046176298187619640565b95506176348561951f565b60005b8281101561765657815481890152600182019150602081019050617637565b80880195505050505b505092915050565b60008154600181166000811461768457600181146176a9576176ed565b607f60028304166176958187619651565b955060ff19831686528086019350506176ed565b600282046176b78187619651565b95506176c28561951f565b60005b828110156176e4578154818901526001820191506020810190506176c5565b82880195505050505b505092915050565b6176fe81619743565b82525050565b61770d81619767565b82525050565b61771c8161978b565b82525050565b61772b8161978b565b82525050565b61773a8161979d565b82525050565b617749816197af565b82525050565b617758816197c1565b82525050565b600061776982619581565b617773818561965c565b93506177838185602086016197e2565b61778c81619815565b840191505092915050565b60006177a282619581565b6177ac818561966d565b93506177bc8185602086016197e2565b80840191505092915050565b60006177d560248361966d565b91507f47656c61746f436f72652e63616e5375626d69745461736b2e697350726f766960008301527f6465643a000000000000000000000000000000000000000000000000000000006020830152602482019050919050565b600061783b601d8361965c565b91507f47656c61746f436f72652e63616e63656c5461736b3a2073656e6465720000006000830152602082019050919050565b600061787b60268361965c565b91507f4f776e61626c653a206e6577206f776e657220697320746865207a65726f206160008301527f64647265737300000000000000000000000000000000000000000000000000006020830152604082019050919050565b60006178e1602e8361965c565b91507f47656c61746f436f72652e63616e63656c5461736b3a20696e76616c6964207460008301527f61736b52656365697074486173680000000000000000000000000000000000006020830152604082019050919050565b600061794760218361966d565b91507f47656c61746f436f72652e5f657865632e65786563526576657274436865636b60008301527f3a000000000000000000000000000000000000000000000000000000000000006020830152602182019050919050565b60006179ad601b8361965c565b91507f536166654d6174683a206164646974696f6e206f766572666c6f7700000000006000830152602082019050919050565b60006179ed600f8361966d565b91507f416374696f6e52657665727465643a00000000000000000000000000000000006000830152600f82019050919050565b6000617a2d603a8361965c565b91507f416464726573733a20756e61626c6520746f2073656e642076616c75652c207260008301527f6563697069656e74206d617920686176652072657665727465640000000000006020830152604082019050919050565b6000617a93600f8361966d565b91507f4e6f4572726f7253656c6563746f7200000000000000000000000000000000006000830152600f82019050919050565b6000617ad3601d8361965c565b91507f416464726573733a20696e73756666696369656e742062616c616e63650000006000830152602082019050919050565b6000617b1360468361965c565b91507f47656c61746f436f72652e5f68616e646c6553656c6650726f7669646572476160008301527f7344656661756c74733a73656c6650726f76696465724761734c696d6974207460208301527f6f6f206c6f7700000000000000000000000000000000000000000000000000006040830152606082019050919050565b6000617b9f603a8361965c565b91507f47656c61746f4578656375746f72732e7769746864726177457863657373457860008301527f656375746f725374616b653a206e6f74206d696e5374616b65640000000000006020830152604082019050919050565b6000617c0560128361966d565b91507f436f6e646974696f6e52657665727465643a00000000000000000000000000006000830152601282019050919050565b6000617c4560318361965c565b91507f47656c61746f436f72652e657865633a2074782e67617370726963652062656c60008301527f6f772067656c61746f47617350726963650000000000000000000000000000006020830152604082019050919050565b6000617cab602d8361965c565b91507f47656c61746f50726f7669646572732e756e70726f766964655461736b53706560008301527f63733a20726564756e64616e74000000000000000000000000000000000000006020830152604082019050919050565b6000617d1160118361966d565b91507f416374696f6e5465726d734e6f744f6b3a0000000000000000000000000000006000830152601182019050919050565b6000617d51600f8361966d565b91507f436f6e646974696f6e4e6f744f6b3a00000000000000000000000000000000006000830152600f82019050919050565b6000617d91602a8361965c565b91507f47656c61746f436f72652e657865637574696f6e577261707065723a6f6e6c7960008301527f47656c61746f436f7265000000000000000000000000000000000000000000006020830152604082019050919050565b6000617df7602d8361965c565b91507f47656c61746f4578656375746f72732e7374616b654578656375746f723a206260008301527f656c6f77206d696e5374616b65000000000000000000000000000000000000006020830152604082019050919050565b6000617e5d604c8361965c565b91507f47656c61746f50726f7669646572732e6578656375746f7241737369676e734560008301527f78656375746f723a206d73672e73656e646572206973206e6f7420617373696760208301527f6e6564206578656375746f7200000000000000000000000000000000000000006040830152606082019050919050565b6000617ee960218361965c565b91507f536166654d6174683a206d756c7469706c69636174696f6e206f766572666c6f60008301527f77000000000000000000000000000000000000000000000000000000000000006020830152604082019050919050565b6000617f4f60208361965c565b91507f4f776e61626c653a2063616c6c6572206973206e6f7420746865206f776e65726000830152602082019050919050565b6000617f8f602a8361965c565b91507f47656c61746f53797341646d696e2e5f67657447656c61746f4761735072696360008301527f653a306f7242656c6f77000000000000000000000000000000000000000000006020830152604082019050919050565b6000617ff560308361965c565b91507f47656c61746f50726f7669646572732e72656d6f766550726f76696465724d6f60008301527f64756c65733a20726564756e64616e74000000000000000000000000000000006020830152604082019050919050565b600061805b60218361965c565b91507f47656c61746f436f72652e657865633a20496e76616c6964204578656375746f60008301527f72000000000000000000000000000000000000000000000000000000000000006020830152604082019050919050565b60006180c1602d8361965c565b91507f47656c61746f50726f7669646572732e61646450726f76696465724d6f64756c60008301527f65733a20726564756e64616e74000000000000000000000000000000000000006020830152604082019050919050565b6000618127601d8361966d565b91507f47656c61746f436f72652e5f657865632e657865635061796c6f61643a0000006000830152601d82019050919050565b6000618167603d8361965c565b91507f47656c61746f436f72652e7375626d69745461736b436861696e3a206c65737360008301527f20726571756573746564207375626d697473207468616e207461736b730000006020830152604082019050919050565b60006181cd603e8361965c565b91507f47656c61746f50726f7669646572732e6578656375746f7241737369676e734560008301527f78656375746f723a2069734578656375746f724d696e5374616b6564282900006020830152604082019050919050565b600061823360288361965c565b91507f47656c61746f50726f7669646572732e70726f7669646546756e64733a207a6560008301527f726f2076616c75650000000000000000000000000000000000000000000000006020830152604082019050919050565b6000618299600083619651565b9150600082019050919050565b60006182b3603a8361965c565b91507f47656c61746f4578656375746f72732e756e7374616b654578656375746f723a60008301527f206d73672e73656e646572207374696c6c2061737369676e65640000000000006020830152604082019050919050565b600061831960148361966d565b91507f556e657870656374656452657475726e646174610000000000000000000000006000830152601482019050919050565b600061835960318361965c565b91507f47656c61746f4578656375746f72732e756e7374616b654578656375746f723a60008301527f20616c726561647920756e7374616b65640000000000000000000000000000006020830152604082019050919050565b60006183bf604e8361965c565b91507f47656c61746f50726f7669646572732e7365745461736b53706563476173507260008301527f6963654365696c3a20416c72656164792077686974656c69737465642077697460208301527f682067617350726963654365696c0000000000000000000000000000000000006040830152606082019050919050565b600061844b603a8361965c565b91507f47656c61746f50726f7669646572732e70726f766964657241737369676e734560008301527f78656375746f723a20616c72656164792061737369676e65642e0000000000006020830152604082019050919050565b60006184b160268361965c565b91507f47656c61746f436f72652e5f657865632e657865635061796c6f61643a756e6460008301527f6566696e656400000000000000000000000000000000000000000000000000006020830152604082019050919050565b600061851760298361965c565b91507f47656c61746f53797341646d696e2e73657447656c61746f476173507269636560008301527f4f7261636c653a203000000000000000000000000000000000000000000000006020830152604082019050919050565b600061857d602a8361965c565b91507f47656c61746f436f72652e5f657865632e65786563526576657274436865636b60008301527f3a756e646566696e6564000000000000000000000000000000000000000000006020830152604082019050919050565b60006185e3603e8361965c565b91507f47656c61746f50726f7669646572732e70726f766964657241737369676e734560008301527f78656375746f723a2069734578656375746f724d696e5374616b6564282900006020830152604082019050919050565b6000618649603a8361965c565b91507f47656c61746f50726f7669646572732e6578656375746f7241737369676e734560008301527f78656375746f723a20616c72656164792061737369676e65642e0000000000006020830152604082019050919050565b600060c0830160008301516186ba6000860182617244565b50602083015184820360208601526186d28282617535565b91505060408301516186e76040860182617740565b5060608301516186fa6060860182617713565b50608083015161870d6080860182618984565b5060a083015161872060a08601826174db565b508091505092915050565b600060408301600083015161874360008601826176f5565b506020830151848203602086015261875b8282617535565b9150508091505092915050565b60a08201600082015161877e6000850182617244565b5060208201516187916020850182617740565b5060408201516187a46040850182617713565b5060608201516187b760608501826174db565b5060808201516187ca60808501826174db565b50505050565b6040820160008201516187e66000850182617244565b5060208201516187f96020850182617704565b50505050565b6000610120830160008301516188186000860182618984565b50602083015161882b6020860182617244565b50604083015161883e60408601826187d0565b5060608301516188516080860182618984565b50608083015184820360a08601526188698282617466565b91505060a083015161887e60c0860182618984565b5060c083015161889160e0860182618984565b5060e08301516188a5610100860182618984565b508091505092915050565b600060808301600083015184820360008601526188cd8282617393565b915050602083015184820360208601526188e7828261731e565b91505060408301516188fc6040860182618984565b50606083015161890f6060860182618984565b508091505092915050565b600060808301600083015184820360008601526189378282617393565b91505060208301518482036020860152618951828261731e565b91505060408301516189666040860182618984565b5060608301516189796060860182618984565b508091505092915050565b61898d81619739565b82525050565b61899c81619739565b82525050565b60006189ae82846175a7565b915081905092915050565b60006189c58284617667565b915081905092915050565b60006189dc8285617797565b91506189e88284617797565b91508190509392505050565b6000618a008284617797565b9150618a0b82617a86565b915081905092915050565b6000618a228284617797565b9150618a2d8261830c565b915081905092915050565b6000618a43826177c8565b9150618a4f8284617797565b915081905092915050565b6000618a658261793a565b9150618a718284617797565b915081905092915050565b6000618a87826179e0565b9150618a938284617797565b915081905092915050565b6000618aa982617bf8565b9150618ab58284617797565b915081905092915050565b6000618acb82617d04565b9150618ad78284617797565b915081905092915050565b6000618aed82617d44565b9150618af98284617797565b915081905092915050565b6000618b0f8261811a565b9150618b1b8284617797565b915081905092915050565b6000618b318261828c565b9150819050919050565b6000602082019050618b506000830184617253565b92915050565b6000606082019050618b6b6000830186617253565b618b786020830185617253565b8181036040830152618b8a818461891a565b9050949350505050565b60006040820190508181036000830152618bae8185617262565b90508181036020830152618bc28184617408565b90509392505050565b60006020820190508181036000830152618be581846172c0565b905092915050565b6000602082019050618c0260008301846174ea565b92915050565b6000602082019050618c1d60008301846174f9565b92915050565b6000606082019050618c3860008301866174f9565b618c456020830185618993565b618c526040830184618993565b949350505050565b60006020820190508181036000830152618c74818461756e565b905092915050565b60006040820190508181036000830152618c9681866175d8565b90508181036020830152618cab818486617508565b9050949350505050565b6000604082019050618cca6000830185617731565b8181036020830152618cdc818461775e565b90509392505050565b6000604082019050618cfa600083018561774f565b8181036020830152618d0c818461775e565b90509392505050565b60006020820190508181036000830152618d2f818461775e565b905092915050565b60006020820190508181036000830152618d508161782e565b9050919050565b60006020820190508181036000830152618d708161786e565b9050919050565b60006020820190508181036000830152618d90816178d4565b9050919050565b60006020820190508181036000830152618db0816179a0565b9050919050565b60006020820190508181036000830152618dd081617a20565b9050919050565b60006020820190508181036000830152618df081617ac6565b9050919050565b60006020820190508181036000830152618e1081617b06565b9050919050565b60006020820190508181036000830152618e3081617b92565b9050919050565b60006020820190508181036000830152618e5081617c38565b9050919050565b60006020820190508181036000830152618e7081617c9e565b9050919050565b60006020820190508181036000830152618e9081617d84565b9050919050565b60006020820190508181036000830152618eb081617dea565b9050919050565b60006020820190508181036000830152618ed081617e50565b9050919050565b60006020820190508181036000830152618ef081617edc565b9050919050565b60006020820190508181036000830152618f1081617f42565b9050919050565b60006020820190508181036000830152618f3081617f82565b9050919050565b60006020820190508181036000830152618f5081617fe8565b9050919050565b60006020820190508181036000830152618f708161804e565b9050919050565b60006020820190508181036000830152618f90816180b4565b9050919050565b60006020820190508181036000830152618fb08161815a565b9050919050565b60006020820190508181036000830152618fd0816181c0565b9050919050565b60006020820190508181036000830152618ff081618226565b9050919050565b60006020820190508181036000830152619010816182a6565b9050919050565b600060208201905081810360008301526190308161834c565b9050919050565b60006020820190508181036000830152619050816183b2565b9050919050565b600060208201905081810360008301526190708161843e565b9050919050565b60006020820190508181036000830152619090816184a4565b9050919050565b600060208201905081810360008301526190b08161850a565b9050919050565b600060208201905081810360008301526190d081618570565b9050919050565b600060208201905081810360008301526190f0816185d6565b9050919050565b600060208201905081810360008301526191108161863c565b9050919050565b6000602082019050818103600083015261913181846187ff565b905092915050565b6000606082019050818103600083015261915381866187ff565b90506191626020830185618993565b61916f6040830184618993565b949350505050565b600060208201905061918c6000830184618993565b92915050565b600060a0820190506191a76000830188618993565b6191b46020830187617253565b6191c16040830186617253565b81810360608301526191d3818561891a565b90506191e26080830184618993565b9695505050505050565b600060c0820190506192016000830189618993565b61920e6020830188617253565b8181036040830152619220818761756e565b905061922f6060830186617722565b61923c6080830185618993565b61924960a0830184618993565b979650505050505050565b60006060820190506192696000830186618993565b818103602083015261927b818561756e565b905061928a6040830184618993565b949350505050565b60006040820190506192a76000830185618993565b81810360208301526192b9818461775e565b90509392505050565b60006040820190506192d76000830185618993565b6192e46020830184618993565b9392505050565b60006060820190506193006000830186618993565b61930d6020830185618993565b61931a6040830184618993565b949350505050565b6000604051905081810181811067ffffffffffffffff8211171561934557600080fd5b8060405250919050565b600067ffffffffffffffff82111561936657600080fd5b602082029050602081019050919050565b600067ffffffffffffffff82111561938e57600080fd5b602082029050602081019050919050565b600067ffffffffffffffff8211156193b657600080fd5b602082029050602081019050919050565b600067ffffffffffffffff8211156193de57600080fd5b602082029050602081019050919050565b600067ffffffffffffffff82111561940657600080fd5b602082029050602081019050919050565b600067ffffffffffffffff82111561942e57600080fd5b602082029050602081019050919050565b600067ffffffffffffffff82111561945657600080fd5b602082029050602081019050919050565b600067ffffffffffffffff82111561947e57600080fd5b601f19601f8301169050602081019050919050565b600067ffffffffffffffff8211156194aa57600080fd5b601f19601f8301169050602081019050919050565b6000819050602082019050919050565b6000819050602082019050919050565b6000819050602082019050919050565b6000819050602082019050919050565b6000819050602082019050919050565b6000819050602082019050919050565b60008190508160005260206000209050919050565b600081519050919050565b600081519050919050565b600081519050919050565b600081519050919050565b600081519050919050565b600081519050919050565b600081519050919050565b600081519050919050565b6000602082019050919050565b6000602082019050919050565b6000602082019050919050565b6000602082019050919050565b6000602082019050919050565b6000602082019050919050565b600082825260208201905092915050565b600082825260208201905092915050565b600082825260208201905092915050565b600082825260208201905092915050565b600082825260208201905092915050565b600082825260208201905092915050565b600082825260208201905092915050565b600081905092915050565b600082825260208201905092915050565b600081905092915050565b600061968382619719565b9050919050565b600061969582619719565b9050919050565b60008115159050919050565b6000819050919050565b60006196bd82619678565b9050919050565b60006196cf82619678565b9050919050565b60008190506196e4826198e9565b919050565b60008190506196f7826198f6565b919050565b600081905061970a82619903565b919050565b6000819050919050565b600073ffffffffffffffffffffffffffffffffffffffff82169050919050565b6000819050919050565b600061974e82619755565b9050919050565b600061976082619719565b9050919050565b600061977282619779565b9050919050565b600061978482619719565b9050919050565b6000619796826196d6565b9050919050565b60006197a8826196e9565b9050919050565b60006197ba826196fc565b9050919050565b60006197cc82619739565b9050919050565b82818337600083830152505050565b60005b838110156198005780820151818401526020810190506197e5565b8381111561980f576000848401525b50505050565b6000601f19601f8301169050919050565b60008160e01c9050919050565b600060443d1015619843576198e6565b60046000803e619854600051619826565b6308c379a0811461986557506198e6565b60405160043d036004823e80513d602482011167ffffffffffffffff82111715619891575050506198e6565b808201805167ffffffffffffffff8111156198b05750505050506198e6565b8060208301013d85018111156198cb575050505050506198e6565b6198d482619815565b60208401016040528296505050505050505b90565b600481106198f357fe5b50565b6003811061990057fe5b50565b6002811061990d57fe5b50565b61991981619678565b811461992457600080fd5b50565b6199308161968a565b811461993b57600080fd5b50565b6199478161969c565b811461995257600080fd5b50565b61995e816196a8565b811461996957600080fd5b50565b619975816196b2565b811461998057600080fd5b50565b61998c816196c4565b811461999757600080fd5b50565b600481106199a757600080fd5b50565b600381106199b757600080fd5b50565b600281106199c757600080fd5b50565b6199d38161970f565b81146199de57600080fd5b50565b6199ea81619739565b81146199f557600080fd5b5056fe47656c61746f436f72652e657865633a20496e73756666696369656e742067617347656c61746f50726f7669646572732e70726f76696465724d6f64756c65436865636b7347656c61746f436f72652e63616e5375626d69745461736b3a206578706972794461746547656c61746f53797341646d696e2e6578656375746f72537563636573734665653a20646976206572726f7247656c61746f436f72652e63616e5375626d69745461736b3a206578656375746f72206e6f74206d696e5374616b65647461736b5370656347617350726963654365696c2d4f522d6e6f7450726f766964656447656c61746f436f72652e5f70726f6365737350726f766964657250617961626c65733a2070726f766964657246756e647320756e646572666c6f7747656c61746f53797341646d696e2e73797341646d696e5375636365737353686172653a20646976206572726f7247656c61746f53797341646d696e2e5f67657447656c61746f47617350726963653a47656c61746f436f72652e63616e5375626d69745461736b3a73656c6650726f76696465724761734c696d697420746f6f206c6f7747656c61746f436f72652e657865637574696f6e577261707065723a756e646566696e6564a2646970667358221220ef1a989bed0e5d68a5ba67fee82c8982dfe3c127d96a1dccca1bcbd48c8f465064736f6c634300060a0033",
  "linkReferences": {},
  "deployedLinkReferences": {}
}